{
  "address": "0x60ECBc10ab124657d6f7aF73B308954F1704C81E",
  "abi": [
    {
      "inputs": [
        {
          "internalType": "int256",
          "name": "_price",
          "type": "int256"
        }
      ],
      "stateMutability": "nonpayable",
      "type": "constructor"
    },
    {
      "anonymous": false,
      "inputs": [
        {
          "indexed": false,
          "internalType": "address",
          "name": "asset",
          "type": "address"
        },
        {
          "indexed": false,
          "internalType": "uint256",
          "name": "newPrice",
          "type": "uint256"
        }
      ],
      "name": "PriceUpdated",
      "type": "event"
    },
    {
      "inputs": [],
      "name": "latestAnswer",
      "outputs": [
        {
          "internalType": "int256",
          "name": "",
          "type": "int256"
        }
      ],
      "stateMutability": "view",
      "type": "function"
    },
    {
      "inputs": [
        {
          "internalType": "int256",
          "name": "_newPrice",
          "type": "int256"
        }
      ],
      "name": "setPrice",
      "outputs": [],
      "stateMutability": "nonpayable",
      "type": "function"
    },
    {
      "inputs": [],
      "name": "viewPriceInUSD",
      "outputs": [
        {
          "internalType": "int256",
          "name": "",
          "type": "int256"
        }
      ],
      "stateMutability": "view",
      "type": "function"
    }
  ],
  "transactionHash": "0xcb4f835a1593de7c5ca72390ec6cf20d15d13b6b48a9bdd4d9a9ced02635e921",
  "args": [
    "100000000"
  ],
  "solcInputHash": "d8f710d108043478052b140f0bad2611",
  "bytecode": "0x608060405234801561001057600080fd5b5060405161012a38038061012a83398101604081905261002f91610037565b60005561004f565b600060208284031215610048578081fd5b5051919050565b60cd8061005d6000396000f3fe6080604052348015600f57600080fd5b5060043610603c5760003560e01c806350d25bcd146041578063f55fa17f146041578063f7a3080614605b575b600080fd5b6047606c565b60405160529190608e565b60405180910390f35b606a60663660046077565b6072565b005b60005490565b600055565b6000602082840312156087578081fd5b5035919050565b9081526020019056fea26469706673582212204b4756d1af670a5d5933abbd5370f0ecf6853ebc7832d4906f3c5913e98d84ff64736f6c63430008010033",
  "devdoc": {
    "kind": "dev",
    "methods": {
      "latestAnswer()": {
        "details": "returns latest answer"
      }
    },
    "version": 1
  },
  "userdoc": {
    "events": {
      "PriceUpdated(address,uint256)": {
        "notice": "Price update event"
      }
    },
    "kind": "user",
    "methods": {},
    "version": 1
  },
  "storageLayout": {
    "storage": [
      {
        "astId": 12140,
        "contract": "contracts/test/MockPriceOracle.sol:MockPriceOracle",
        "label": "lastestAnswer",
        "offset": 0,
        "slot": "0",
        "type": "t_int256"
      }
    ],
    "types": {
      "t_int256": {
        "encoding": "inplace",
        "label": "int256",
        "numberOfBytes": "32"
      }
    }
  }
}