{
  "address": "0x3efD14Bf259f752C2FEcB0C3b879E077185447b8",
  "abi": [
    {
      "inputs": [
        {
          "internalType": "uint256",
          "name": "baseRatePerYear",
          "type": "uint256"
        },
        {
          "internalType": "uint256",
          "name": "multiplierPerYear",
          "type": "uint256"
        },
        {
          "internalType": "uint256",
          "name": "jumpMultiplierPerYear",
          "type": "uint256"
        },
        {
          "internalType": "uint256",
          "name": "kink_",
          "type": "uint256"
        },
        {
          "internalType": "address",
          "name": "owner_",
          "type": "address"
        },
        {
          "internalType": "uint256",
          "name": "borrowRateMaxMantissa_",
          "type": "uint256"
        },
        {
          "internalType": "uint256",
          "name": "blocksPerYear_",
          "type": "uint256"
        }
      ],
      "stateMutability": "nonpayable",
      "type": "constructor"
    },
    {
      "anonymous": false,
      "inputs": [
        {
          "indexed": false,
          "internalType": "uint256",
          "name": "baseRatePerBlock",
          "type": "uint256"
        },
        {
          "indexed": false,
          "internalType": "uint256",
          "name": "multiplierPerBlock",
          "type": "uint256"
        },
        {
          "indexed": false,
          "internalType": "uint256",
          "name": "jumpMultiplierPerBlock",
          "type": "uint256"
        },
        {
          "indexed": false,
          "internalType": "uint256",
          "name": "kink",
          "type": "uint256"
        }
      ],
      "name": "NewInterestParams",
      "type": "event"
    },
    {
      "inputs": [],
      "name": "baseRatePerBlock",
      "outputs": [
        {
          "internalType": "uint256",
          "name": "",
          "type": "uint256"
        }
      ],
      "stateMutability": "view",
      "type": "function"
    },
    {
      "inputs": [],
      "name": "blocksPerYear",
      "outputs": [
        {
          "internalType": "uint256",
          "name": "",
          "type": "uint256"
        }
      ],
      "stateMutability": "view",
      "type": "function"
    },
    {
      "inputs": [
        {
          "internalType": "uint256",
          "name": "cash",
          "type": "uint256"
        },
        {
          "internalType": "uint256",
          "name": "borrows",
          "type": "uint256"
        },
        {
          "internalType": "uint256",
          "name": "reserves",
          "type": "uint256"
        }
      ],
      "name": "getBorrowRate",
      "outputs": [
        {
          "internalType": "uint256",
          "name": "",
          "type": "uint256"
        }
      ],
      "stateMutability": "view",
      "type": "function"
    },
    {
      "inputs": [
        {
          "internalType": "uint256",
          "name": "cash",
          "type": "uint256"
        },
        {
          "internalType": "uint256",
          "name": "borrows",
          "type": "uint256"
        },
        {
          "internalType": "uint256",
          "name": "reserves",
          "type": "uint256"
        },
        {
          "internalType": "uint256",
          "name": "reserveFactorMantissa",
          "type": "uint256"
        }
      ],
      "name": "getSupplyRate",
      "outputs": [
        {
          "internalType": "uint256",
          "name": "",
          "type": "uint256"
        }
      ],
      "stateMutability": "view",
      "type": "function"
    },
    {
      "inputs": [],
      "name": "jumpMultiplierPerBlock",
      "outputs": [
        {
          "internalType": "uint256",
          "name": "",
          "type": "uint256"
        }
      ],
      "stateMutability": "view",
      "type": "function"
    },
    {
      "inputs": [],
      "name": "kink",
      "outputs": [
        {
          "internalType": "uint256",
          "name": "",
          "type": "uint256"
        }
      ],
      "stateMutability": "view",
      "type": "function"
    },
    {
      "inputs": [],
      "name": "multiplierPerBlock",
      "outputs": [
        {
          "internalType": "uint256",
          "name": "",
          "type": "uint256"
        }
      ],
      "stateMutability": "view",
      "type": "function"
    },
    {
      "inputs": [],
      "name": "owner",
      "outputs": [
        {
          "internalType": "address",
          "name": "",
          "type": "address"
        }
      ],
      "stateMutability": "view",
      "type": "function"
    },
    {
      "inputs": [
        {
          "internalType": "uint256",
          "name": "baseRatePerYear",
          "type": "uint256"
        },
        {
          "internalType": "uint256",
          "name": "multiplierPerYear",
          "type": "uint256"
        },
        {
          "internalType": "uint256",
          "name": "jumpMultiplierPerYear",
          "type": "uint256"
        },
        {
          "internalType": "uint256",
          "name": "kink_",
          "type": "uint256"
        }
      ],
      "name": "updateJumpRateModel",
      "outputs": [],
      "stateMutability": "nonpayable",
      "type": "function"
    },
    {
      "inputs": [
        {
          "internalType": "uint256",
          "name": "cash",
          "type": "uint256"
        },
        {
          "internalType": "uint256",
          "name": "borrows",
          "type": "uint256"
        },
        {
          "internalType": "uint256",
          "name": "reserves",
          "type": "uint256"
        }
      ],
      "name": "utilizationRate",
      "outputs": [
        {
          "internalType": "uint256",
          "name": "",
          "type": "uint256"
        }
      ],
      "stateMutability": "pure",
      "type": "function"
    }
  ],
  "args": [
    "30000000000000000",
    "52222222222200000",
    "70",
    "1000000000000000000",
    "0xf6DF5d5Ec46CcD10AE514384C292e3ca6E31dFa8",
    "50000000000000",
    2102400
  ],
  "solcInputHash": "d8f710d108043478052b140f0bad2611",
  "bytecode": "0x60c06040523480156200001157600080fd5b5060405162000bc738038062000bc7833981016040819052620000349162000216565b60008711620000605760405162461bcd60e51b81526004016200005790620003ab565b60405180910390fd5b60008611620000835760405162461bcd60e51b81526004016200005790620002aa565b60008511620000a65760405162461bcd60e51b815260040162000057906200033f565b60008411620000c95760405162461bcd60e51b8152600401620000579062000284565b6001600160a01b038316620000f25760405162461bcd60e51b8152600401620000579062000318565b60008211620001155760405162461bcd60e51b8152600401620000579062000374565b60008111620001385760405162461bcd60e51b81526004016200005790620002e1565b600080546001600160a01b0319166001600160a01b03851617905560a082905260808190526200016c878787878562000179565b505050505050506200043e565b620001858186620003f1565b60025562000194828262000412565b620001a885670de0b6b3a764000062000412565b620001b49190620003f1565b600155620001c38184620003f1565b600381905560048390556002546001546040517f6960ab234c7ef4b0c9197100f5393cfcde7c453ac910a27bd2000aa1dd4c068d93620002079392918790620003d6565b60405180910390a15050505050565b600080600080600080600060e0888a03121562000231578283fd5b8751602089015160408a015160608b015160808c0151939a50919850965094506001600160a01b038116811462000266578384fd5b8093505060a0880151915060c0880151905092959891949750929550565b6020808252600c908201526b696e76616c6964206b696e6b60a01b604082015260600190565b6020808252601b908201527f696e76616c6964206d756c7469706c6965722070657220796561720000000000604082015260600190565b60208082526017908201527f696e76616c696420626c6f636b73207065722079656172000000000000000000604082015260600190565b6020808252600d908201526c34b73b30b634b21037bbb732b960991b604082015260600190565b6020808252818101527f696e76616c6964206a756d70206d756c7469706c696572207065722079656172604082015260600190565b60208082526017908201527f696e76616c696420626f72726f772072617465206d6178000000000000000000604082015260600190565b602080825260119082015270696e76616c69642062617365207261746560781b604082015260600190565b93845260208401929092526040830152606082015260800190565b6000826200040d57634e487b7160e01b81526012600452602481fd5b500490565b60008160001904831182151516156200043957634e487b7160e01b81526011600452602481fd5b500290565b60805160a0516107556200047260003960008181610156015261017e01526000818161026b01526102ec01526107556000f3fe608060405234801561001057600080fd5b506004361061009e5760003560e01c8063a385fb9611610066578063a385fb9614610111578063b816881614610119578063b9f9850a1461012c578063f14039de14610134578063fd2da3391461013c5761009e565b806315f24053146100a35780632037f3e7146100cc5780636e71e2d8146100e15780638726bb89146100f45780638da5cb5b146100fc575b600080fd5b6100b66100b13660046104f8565b610144565b6040516100c39190610677565b60405180910390f35b6100df6100da366004610523565b6101af565b005b6100b66100ef3660046104f8565b610295565b6100b66102d5565b6101046102db565b6040516100c39190610554565b6100b66102ea565b6100b6610127366004610523565b61030e565b6100b661038a565b6100b6610390565b6100b6610396565b60008061015285858561039c565b90507f00000000000000000000000000000000000000000000000000000000000000008111156101a5577f00000000000000000000000000000000000000000000000000000000000000009150506101a8565b90505b9392505050565b6000546001600160a01b031633146101e25760405162461bcd60e51b81526004016101d990610631565b60405180910390fd5b600084116102025760405162461bcd60e51b81526004016101d9906105fa565b600083116102225760405162461bcd60e51b81526004016101d99061058e565b600082116102425760405162461bcd60e51b81526004016101d9906105c5565b600081116102625760405162461bcd60e51b81526004016101d990610568565b61028f848484847f0000000000000000000000000000000000000000000000000000000000000000610467565b50505050565b6000826102a4575060006101a8565b816102af848661069b565b6102b991906106f2565b6102cb84670de0b6b3a76400006106d3565b6101a591906106b3565b60015481565b6000546001600160a01b031681565b7f000000000000000000000000000000000000000000000000000000000000000081565b60008061032383670de0b6b3a76400006106f2565b9050600061033287878761039c565b90506000670de0b6b3a764000061034984846106d3565b61035391906106b3565b9050670de0b6b3a76400008161036a8a8a8a610295565b61037491906106d3565b61037e91906106b3565b98975050505050505050565b60035481565b60025481565b60045481565b6000806103aa858585610295565b905060045481116103eb57600254670de0b6b3a7640000600154836103cf91906106d3565b6103d991906106b3565b6103e3919061069b565b9150506101a8565b6000600254670de0b6b3a764000060015460045461040991906106d3565b61041391906106b3565b61041d919061069b565b905060006004548361042f91906106f2565b905081670de0b6b3a76400006003548361044991906106d3565b61045391906106b3565b61045d919061069b565b93505050506101a8565b61047181866106b3565b60025561047e82826106d3565b61049085670de0b6b3a76400006106d3565b61049a91906106b3565b6001556104a781846106b3565b600381905560048390556002546001546040517f6960ab234c7ef4b0c9197100f5393cfcde7c453ac910a27bd2000aa1dd4c068d936104e99392918790610680565b60405180910390a15050505050565b60008060006060848603121561050c578283fd5b505081359360208301359350604090920135919050565b60008060008060808587031215610538578081fd5b5050823594602084013594506040840135936060013592509050565b6001600160a01b0391909116815260200190565b6020808252600c908201526b696e76616c6964206b696e6b60a01b604082015260600190565b6020808252601b908201527f696e76616c6964206d756c7469706c6965722070657220796561720000000000604082015260600190565b6020808252818101527f696e76616c6964206a756d70206d756c7469706c696572207065722079656172604082015260600190565b60208082526011908201527f696e76616c696420626173652072617465000000000000000000000000000000604082015260600190565b60208082526026908201527f6f6e6c7920746865206f776e6572206d61792063616c6c20746869732066756e60408201526531ba34b7b71760d11b606082015260800190565b90815260200190565b93845260208401929092526040830152606082015260800190565b600082198211156106ae576106ae610709565b500190565b6000826106ce57634e487b7160e01b81526012600452602481fd5b500490565b60008160001904831182151516156106ed576106ed610709565b500290565b60008282101561070457610704610709565b500390565b634e487b7160e01b600052601160045260246000fdfea2646970667358221220c95f83be8fa657394176f6a2bba046d2991c3c282628b1836630ee29777e30b464736f6c63430008010033",
  "devdoc": {
    "kind": "dev",
    "methods": {
      "constructor": {
        "params": {
          "baseRatePerYear": "The approximate target base APR, as a mantissa (scaled by 1e18)",
          "blocksPerYear_": "the number of blocks on the chain per year",
          "borrowRateMaxMantissa_": "maximum borrow rate per second",
          "jumpMultiplierPerYear": "The multiplierPerBlock after hitting a specified utilization point",
          "kink_": "The utilization point at which the jump multiplier is applied",
          "multiplierPerYear": "The rate of increase in interest rate wrt utilization (scaled by 1e18)",
          "owner_": "The address of the owner, i.e. which has the ability to update parameters directly"
        }
      },
      "getBorrowRate(uint256,uint256,uint256)": {
        "params": {
          "borrows": "The amount of borrows in the market",
          "cash": "The amount of cash in the market",
          "reserves": "The amount of reserves in the market"
        },
        "returns": {
          "_0": "The borrow rate percentage per block as a mantissa (scaled by 1e18)"
        }
      },
      "getSupplyRate(uint256,uint256,uint256,uint256)": {
        "params": {
          "borrows": "The amount of borrows in the market",
          "cash": "The amount of cash in the market",
          "reserveFactorMantissa": "The current reserve factor for the market",
          "reserves": "The amount of reserves in the market"
        },
        "returns": {
          "_0": "The supply rate percentage per block as a mantissa (scaled by 1e18)"
        }
      },
      "updateJumpRateModel(uint256,uint256,uint256,uint256)": {
        "params": {
          "baseRatePerYear": "The approximate target base APR, as a mantissa (scaled by 1e18)",
          "jumpMultiplierPerYear": "The multiplierPerBlock after hitting a specified utilization point",
          "kink_": "The utilization point at which the jump multiplier is applied",
          "multiplierPerYear": "The rate of increase in interest rate wrt utilization (scaled by 1e18)"
        }
      },
      "utilizationRate(uint256,uint256,uint256)": {
        "params": {
          "borrows": "The amount of borrows in the market",
          "cash": "The amount of cash in the market",
          "reserves": "The amount of reserves in the market (currently unused)"
        },
        "returns": {
          "_0": "The utilization rate as a mantissa between [0, 1e18]"
        }
      }
    },
    "stateVariables": {
      "borrowRateMaxMantissa": {
        "details": "Maximum borrow rate that can ever be applied per second"
      }
    },
    "title": "JumpRateModelV2",
    "version": 1
  },
  "userdoc": {
    "kind": "user",
    "methods": {
      "baseRatePerBlock()": {
        "notice": "The base interest rate which is the y-intercept when utilization rate is 0"
      },
      "blocksPerYear()": {
        "notice": "The approximate number of blocks per year that is assumed by the interest rate model"
      },
      "constructor": {
        "notice": "Construct an interest rate model"
      },
      "getBorrowRate(uint256,uint256,uint256)": {
        "notice": "Calculates the current borrow rate per block"
      },
      "getSupplyRate(uint256,uint256,uint256,uint256)": {
        "notice": "Calculates the current supply rate per block"
      },
      "jumpMultiplierPerBlock()": {
        "notice": "The multiplierPerBlock after hitting a specified utilization point"
      },
      "kink()": {
        "notice": "The utilization point at which the jump multiplier is applied"
      },
      "multiplierPerBlock()": {
        "notice": "The multiplier of utilization rate that gives the slope of the interest rate"
      },
      "owner()": {
        "notice": "The address of the owner, i.e. the Timelock contract, which can update parameters directly"
      },
      "updateJumpRateModel(uint256,uint256,uint256,uint256)": {
        "notice": "Update the parameters of the interest rate model (only callable by owner, i.e. Timelock)"
      },
      "utilizationRate(uint256,uint256,uint256)": {
        "notice": "Calculates the utilization rate of the market: `borrows / (cash + borrows - reserves)`"
      }
    },
    "version": 1
  },
  "storageLayout": {
    "storage": [
      {
        "astId": 8346,
        "contract": "contracts/interest/JumpRateModelV2.sol:JumpRateModelV2",
        "label": "owner",
        "offset": 0,
        "slot": "0",
        "type": "t_address"
      },
      {
        "astId": 8352,
        "contract": "contracts/interest/JumpRateModelV2.sol:JumpRateModelV2",
        "label": "multiplierPerBlock",
        "offset": 0,
        "slot": "1",
        "type": "t_uint256"
      },
      {
        "astId": 8355,
        "contract": "contracts/interest/JumpRateModelV2.sol:JumpRateModelV2",
        "label": "baseRatePerBlock",
        "offset": 0,
        "slot": "2",
        "type": "t_uint256"
      },
      {
        "astId": 8358,
        "contract": "contracts/interest/JumpRateModelV2.sol:JumpRateModelV2",
        "label": "jumpMultiplierPerBlock",
        "offset": 0,
        "slot": "3",
        "type": "t_uint256"
      },
      {
        "astId": 8361,
        "contract": "contracts/interest/JumpRateModelV2.sol:JumpRateModelV2",
        "label": "kink",
        "offset": 0,
        "slot": "4",
        "type": "t_uint256"
      }
    ],
    "types": {
      "t_address": {
        "encoding": "inplace",
        "label": "address",
        "numberOfBytes": "20"
      },
      "t_uint256": {
        "encoding": "inplace",
        "label": "uint256",
        "numberOfBytes": "32"
      }
    }
  }
}