{
  "address": "0x8EBA2d656360267E466EE5f989Ec9d42bd4d2570",
  "abi": [
    {
      "inputs": [
        {
          "internalType": "contract IBSVault",
          "name": "_vault",
          "type": "address"
        },
        {
          "internalType": "contract IPriceOracleAggregator",
          "name": "_oracle",
          "type": "address"
        },
        {
          "internalType": "address",
          "name": "_feeWithdrawalAddr",
          "type": "address"
        },
        {
          "internalType": "uint256",
          "name": "_procotolLiquidationFeeShare",
          "type": "uint256"
        }
      ],
      "stateMutability": "nonpayable",
      "type": "constructor"
    },
    {
      "anonymous": false,
      "inputs": [
        {
          "indexed": false,
          "internalType": "uint8",
          "name": "action",
          "type": "uint8"
        },
        {
          "indexed": false,
          "internalType": "uint256",
          "name": "timestamp",
          "type": "uint256"
        }
      ],
      "name": "ActionPaused",
      "type": "event"
    },
    {
      "anonymous": false,
      "inputs": [
        {
          "indexed": false,
          "internalType": "uint8",
          "name": "action",
          "type": "uint8"
        },
        {
          "indexed": false,
          "internalType": "uint256",
          "name": "timestamp",
          "type": "uint256"
        }
      ],
      "name": "ActionUnPaused",
      "type": "event"
    },
    {
      "anonymous": false,
      "inputs": [
        {
          "indexed": true,
          "internalType": "address",
          "name": "borrower",
          "type": "address"
        },
        {
          "indexed": false,
          "internalType": "uint256",
          "name": "amount",
          "type": "uint256"
        }
      ],
      "name": "Borrow",
      "type": "event"
    },
    {
      "anonymous": false,
      "inputs": [
        {
          "indexed": true,
          "internalType": "address",
          "name": "pair",
          "type": "address"
        },
        {
          "indexed": true,
          "internalType": "address",
          "name": "asset",
          "type": "address"
        },
        {
          "indexed": true,
          "internalType": "address",
          "name": "tokenReceipeint",
          "type": "address"
        },
        {
          "indexed": false,
          "internalType": "address",
          "name": "user",
          "type": "address"
        },
        {
          "indexed": false,
          "internalType": "uint256",
          "name": "amount",
          "type": "uint256"
        },
        {
          "indexed": false,
          "internalType": "uint256",
          "name": "shareAmount",
          "type": "uint256"
        },
        {
          "indexed": false,
          "internalType": "uint256",
          "name": "amountOfWrappedMinted",
          "type": "uint256"
        }
      ],
      "name": "Deposit",
      "type": "event"
    },
    {
      "anonymous": false,
      "inputs": [
        {
          "indexed": true,
          "internalType": "address",
          "name": "target",
          "type": "address"
        },
        {
          "indexed": true,
          "internalType": "address",
          "name": "initiator",
          "type": "address"
        },
        {
          "indexed": true,
          "internalType": "address",
          "name": "asset",
          "type": "address"
        },
        {
          "indexed": false,
          "internalType": "uint256",
          "name": "amount",
          "type": "uint256"
        },
        {
          "indexed": false,
          "internalType": "uint256",
          "name": "premium",
          "type": "uint256"
        }
      ],
      "name": "FlashLoan",
      "type": "event"
    },
    {
      "anonymous": false,
      "inputs": [
        {
          "indexed": true,
          "internalType": "address",
          "name": "pair",
          "type": "address"
        },
        {
          "indexed": true,
          "internalType": "address",
          "name": "asset",
          "type": "address"
        },
        {
          "indexed": true,
          "internalType": "address",
          "name": "collateralAsset",
          "type": "address"
        },
        {
          "indexed": false,
          "internalType": "address",
          "name": "guardian",
          "type": "address"
        }
      ],
      "name": "Initialized",
      "type": "event"
    },
    {
      "anonymous": false,
      "inputs": [
        {
          "indexed": true,
          "internalType": "address",
          "name": "pair",
          "type": "address"
        },
        {
          "indexed": false,
          "internalType": "uint256",
          "name": "accrualBlockNumber",
          "type": "uint256"
        },
        {
          "indexed": false,
          "internalType": "uint256",
          "name": "borrowIndex",
          "type": "uint256"
        },
        {
          "indexed": false,
          "internalType": "uint256",
          "name": "totalBorrows",
          "type": "uint256"
        },
        {
          "indexed": false,
          "internalType": "uint256",
          "name": "totalReserves",
          "type": "uint256"
        }
      ],
      "name": "InterestAccrued",
      "type": "event"
    },
    {
      "anonymous": false,
      "inputs": [
        {
          "indexed": false,
          "internalType": "uint256",
          "name": "blockNumber",
          "type": "uint256"
        }
      ],
      "name": "InterestShortCircuit",
      "type": "event"
    },
    {
      "anonymous": false,
      "inputs": [
        {
          "indexed": true,
          "internalType": "address",
          "name": "pair",
          "type": "address"
        },
        {
          "indexed": true,
          "internalType": "address",
          "name": "asset",
          "type": "address"
        },
        {
          "indexed": true,
          "internalType": "address",
          "name": "user",
          "type": "address"
        },
        {
          "indexed": false,
          "internalType": "uint256",
          "name": "liquidatedCollateralAmount",
          "type": "uint256"
        },
        {
          "indexed": false,
          "internalType": "address",
          "name": "liquidator",
          "type": "address"
        }
      ],
      "name": "Liquidate",
      "type": "event"
    },
    {
      "anonymous": false,
      "inputs": [
        {
          "indexed": true,
          "internalType": "address",
          "name": "pair",
          "type": "address"
        },
        {
          "indexed": true,
          "internalType": "address",
          "name": "asset",
          "type": "address"
        },
        {
          "indexed": true,
          "internalType": "address",
          "name": "user",
          "type": "address"
        },
        {
          "indexed": false,
          "internalType": "address",
          "name": "to",
          "type": "address"
        },
        {
          "indexed": false,
          "internalType": "uint256",
          "name": "amount",
          "type": "uint256"
        },
        {
          "indexed": false,
          "internalType": "uint256",
          "name": "amountofWrappedBurned",
          "type": "uint256"
        }
      ],
      "name": "Redeem",
      "type": "event"
    },
    {
      "anonymous": false,
      "inputs": [
        {
          "indexed": true,
          "internalType": "address",
          "name": "pair",
          "type": "address"
        },
        {
          "indexed": true,
          "internalType": "address",
          "name": "asset",
          "type": "address"
        },
        {
          "indexed": true,
          "internalType": "address",
          "name": "beneficiary",
          "type": "address"
        },
        {
          "indexed": false,
          "internalType": "address",
          "name": "repayer",
          "type": "address"
        },
        {
          "indexed": false,
          "internalType": "uint256",
          "name": "amount",
          "type": "uint256"
        }
      ],
      "name": "Repay",
      "type": "event"
    },
    {
      "anonymous": false,
      "inputs": [
        {
          "indexed": false,
          "internalType": "address",
          "name": "user",
          "type": "address"
        },
        {
          "indexed": false,
          "internalType": "uint256",
          "name": "shares",
          "type": "uint256"
        }
      ],
      "name": "ReserveWithdraw",
      "type": "event"
    },
    {
      "anonymous": false,
      "inputs": [
        {
          "indexed": false,
          "internalType": "uint256",
          "name": "depositCollateralLimit",
          "type": "uint256"
        },
        {
          "indexed": false,
          "internalType": "uint256",
          "name": "depositBorrowLimit",
          "type": "uint256"
        },
        {
          "indexed": false,
          "internalType": "uint256",
          "name": "totalPairDebtLimit",
          "type": "uint256"
        },
        {
          "indexed": false,
          "internalType": "uint256",
          "name": "blockNumber",
          "type": "uint256"
        }
      ],
      "name": "UpdateRiskConfiguration",
      "type": "event"
    },
    {
      "anonymous": false,
      "inputs": [
        {
          "indexed": false,
          "internalType": "address",
          "name": "account",
          "type": "address"
        },
        {
          "indexed": false,
          "internalType": "uint256",
          "name": "amount",
          "type": "uint256"
        }
      ],
      "name": "WithdrawCollateral",
      "type": "event"
    },
    {
      "inputs": [],
      "name": "USE_RETURN_INPUT",
      "outputs": [
        {
          "internalType": "int256",
          "name": "",
          "type": "int256"
        }
      ],
      "stateMutability": "view",
      "type": "function"
    },
    {
      "inputs": [],
      "name": "VERSION",
      "outputs": [
        {
          "internalType": "uint256",
          "name": "",
          "type": "uint256"
        }
      ],
      "stateMutability": "view",
      "type": "function"
    },
    {
      "inputs": [
        {
          "internalType": "address",
          "name": "",
          "type": "address"
        }
      ],
      "name": "accountInterestIndex",
      "outputs": [
        {
          "internalType": "uint256",
          "name": "",
          "type": "uint256"
        }
      ],
      "stateMutability": "view",
      "type": "function"
    },
    {
      "inputs": [],
      "name": "accrueInterest",
      "outputs": [],
      "stateMutability": "nonpayable",
      "type": "function"
    },
    {
      "inputs": [],
      "name": "asset",
      "outputs": [
        {
          "internalType": "contract IERC20",
          "name": "",
          "type": "address"
        }
      ],
      "stateMutability": "view",
      "type": "function"
    },
    {
      "inputs": [
        {
          "internalType": "uint256",
          "name": "_amountToBorrow",
          "type": "uint256"
        },
        {
          "internalType": "address",
          "name": "_debtOwner",
          "type": "address"
        }
      ],
      "name": "borrow",
      "outputs": [],
      "stateMutability": "nonpayable",
      "type": "function"
    },
    {
      "inputs": [
        {
          "internalType": "address",
          "name": "_account",
          "type": "address"
        }
      ],
      "name": "borrowBalanceCurrent",
      "outputs": [
        {
          "internalType": "uint256",
          "name": "",
          "type": "uint256"
        }
      ],
      "stateMutability": "nonpayable",
      "type": "function"
    },
    {
      "inputs": [
        {
          "internalType": "address",
          "name": "_account",
          "type": "address"
        }
      ],
      "name": "borrowBalancePrior",
      "outputs": [
        {
          "internalType": "uint256",
          "name": "balance",
          "type": "uint256"
        }
      ],
      "stateMutability": "view",
      "type": "function"
    },
    {
      "inputs": [],
      "name": "borrowIndex",
      "outputs": [
        {
          "internalType": "uint256",
          "name": "",
          "type": "uint256"
        }
      ],
      "stateMutability": "view",
      "type": "function"
    },
    {
      "inputs": [],
      "name": "borrowRatePerBlock",
      "outputs": [
        {
          "internalType": "uint256",
          "name": "",
          "type": "uint256"
        }
      ],
      "stateMutability": "view",
      "type": "function"
    },
    {
      "inputs": [
        {
          "internalType": "uint256",
          "name": "_collateralValueInUSD",
          "type": "uint256"
        }
      ],
      "name": "calcBorrowLimit",
      "outputs": [
        {
          "internalType": "uint256",
          "name": "",
          "type": "uint256"
        }
      ],
      "stateMutability": "view",
      "type": "function"
    },
    {
      "inputs": [
        {
          "internalType": "uint256",
          "name": "_borrowAmount",
          "type": "uint256"
        }
      ],
      "name": "calcCollateralRequired",
      "outputs": [
        {
          "internalType": "uint256",
          "name": "",
          "type": "uint256"
        }
      ],
      "stateMutability": "view",
      "type": "function"
    },
    {
      "inputs": [
        {
          "internalType": "uint256",
          "name": "_amount",
          "type": "uint256"
        }
      ],
      "name": "calculateLiquidationFee",
      "outputs": [
        {
          "internalType": "uint256",
          "name": "fee",
          "type": "uint256"
        }
      ],
      "stateMutability": "view",
      "type": "function"
    },
    {
      "inputs": [],
      "name": "collateralAsset",
      "outputs": [
        {
          "internalType": "contract IERC20",
          "name": "",
          "type": "address"
        }
      ],
      "stateMutability": "view",
      "type": "function"
    },
    {
      "inputs": [],
      "name": "collateralFactor",
      "outputs": [
        {
          "internalType": "uint256",
          "name": "",
          "type": "uint256"
        }
      ],
      "stateMutability": "view",
      "type": "function"
    },
    {
      "inputs": [
        {
          "internalType": "address",
          "name": "_account",
          "type": "address"
        }
      ],
      "name": "collateralOfAccount",
      "outputs": [
        {
          "internalType": "uint256",
          "name": "",
          "type": "uint256"
        }
      ],
      "stateMutability": "view",
      "type": "function"
    },
    {
      "inputs": [],
      "name": "debtToken",
      "outputs": [
        {
          "internalType": "contract IDebtToken",
          "name": "",
          "type": "address"
        }
      ],
      "stateMutability": "view",
      "type": "function"
    },
    {
      "inputs": [
        {
          "internalType": "address",
          "name": "_tokenRecipient",
          "type": "address"
        },
        {
          "internalType": "uint256",
          "name": "_amount",
          "type": "uint256"
        }
      ],
      "name": "depositBorrowAsset",
      "outputs": [],
      "stateMutability": "nonpayable",
      "type": "function"
    },
    {
      "inputs": [
        {
          "internalType": "address",
          "name": "_tokenRecipient",
          "type": "address"
        },
        {
          "internalType": "uint256",
          "name": "_amount",
          "type": "uint256"
        }
      ],
      "name": "depositCollateral",
      "outputs": [],
      "stateMutability": "nonpayable",
      "type": "function"
    },
    {
      "inputs": [],
      "name": "exchangeRateCurrent",
      "outputs": [
        {
          "internalType": "uint256",
          "name": "",
          "type": "uint256"
        }
      ],
      "stateMutability": "nonpayable",
      "type": "function"
    },
    {
      "inputs": [],
      "name": "feeWithdrawalAddr",
      "outputs": [
        {
          "internalType": "address",
          "name": "",
          "type": "address"
        }
      ],
      "stateMutability": "view",
      "type": "function"
    },
    {
      "inputs": [
        {
          "internalType": "address",
          "name": "_account",
          "type": "address"
        }
      ],
      "name": "getBorrowLimit",
      "outputs": [
        {
          "internalType": "uint256",
          "name": "",
          "type": "uint256"
        }
      ],
      "stateMutability": "view",
      "type": "function"
    },
    {
      "inputs": [
        {
          "internalType": "address",
          "name": "_account",
          "type": "address"
        }
      ],
      "name": "getBorrowLimitInUSD",
      "outputs": [
        {
          "internalType": "uint256",
          "name": "",
          "type": "uint256"
        }
      ],
      "stateMutability": "view",
      "type": "function"
    },
    {
      "inputs": [],
      "name": "getCashPrior",
      "outputs": [
        {
          "internalType": "uint256",
          "name": "",
          "type": "uint256"
        }
      ],
      "stateMutability": "view",
      "type": "function"
    },
    {
      "inputs": [
        {
          "internalType": "address",
          "name": "_account",
          "type": "address"
        }
      ],
      "name": "getMaxWithdrawAllowed",
      "outputs": [
        {
          "internalType": "uint256",
          "name": "maxWithdrawAllowed",
          "type": "uint256"
        }
      ],
      "stateMutability": "nonpayable",
      "type": "function"
    },
    {
      "inputs": [],
      "name": "getPriceOfBorrowAsset",
      "outputs": [
        {
          "internalType": "uint256",
          "name": "",
          "type": "uint256"
        }
      ],
      "stateMutability": "view",
      "type": "function"
    },
    {
      "inputs": [],
      "name": "getPriceOfCollateral",
      "outputs": [
        {
          "internalType": "uint256",
          "name": "",
          "type": "uint256"
        }
      ],
      "stateMutability": "view",
      "type": "function"
    },
    {
      "inputs": [
        {
          "internalType": "contract IERC20",
          "name": "_token",
          "type": "address"
        },
        {
          "internalType": "uint256",
          "name": "_amount",
          "type": "uint256"
        }
      ],
      "name": "getPriceOfToken",
      "outputs": [
        {
          "internalType": "uint256",
          "name": "",
          "type": "uint256"
        }
      ],
      "stateMutability": "view",
      "type": "function"
    },
    {
      "inputs": [
        {
          "internalType": "address",
          "name": "_account",
          "type": "address"
        }
      ],
      "name": "getTotalAvailableCollateralValue",
      "outputs": [
        {
          "internalType": "uint256",
          "name": "",
          "type": "uint256"
        }
      ],
      "stateMutability": "view",
      "type": "function"
    },
    {
      "inputs": [
        {
          "internalType": "address",
          "name": "_account",
          "type": "address"
        }
      ],
      "name": "getTotalAvailableCollateralValueInUSD",
      "outputs": [
        {
          "internalType": "uint256",
          "name": "",
          "type": "uint256"
        }
      ],
      "stateMutability": "view",
      "type": "function"
    },
    {
      "inputs": [],
      "name": "guardian",
      "outputs": [
        {
          "internalType": "address",
          "name": "",
          "type": "address"
        }
      ],
      "stateMutability": "view",
      "type": "function"
    },
    {
      "inputs": [
        {
          "components": [
            {
              "internalType": "string",
              "name": "name",
              "type": "string"
            },
            {
              "internalType": "string",
              "name": "symbol",
              "type": "string"
            },
            {
              "internalType": "contract IERC20",
              "name": "asset",
              "type": "address"
            },
            {
              "internalType": "contract IERC20",
              "name": "collateralAsset",
              "type": "address"
            },
            {
              "internalType": "address",
              "name": "guardian",
              "type": "address"
            }
          ],
          "internalType": "struct DataTypes.LendingPairVars",
          "name": "pairVars",
          "type": "tuple"
        },
        {
          "components": [
            {
              "internalType": "uint256",
              "name": "initialExchangeRateMantissa",
              "type": "uint256"
            },
            {
              "internalType": "uint256",
              "name": "reserveFactorMantissa",
              "type": "uint256"
            },
            {
              "internalType": "uint256",
              "name": "collateralFactor",
              "type": "uint256"
            },
            {
              "internalType": "contract IBSWrapperToken",
              "name": "wrappedBorrowAsset",
              "type": "address"
            },
            {
              "internalType": "uint256",
              "name": "liquidationFee",
              "type": "uint256"
            },
            {
              "internalType": "contract IDebtToken",
              "name": "debtToken",
              "type": "address"
            }
          ],
          "internalType": "struct DataTypes.BorrowAssetConfig",
          "name": "borrowConfig",
          "type": "tuple"
        },
        {
          "internalType": "contract IBSWrapperToken",
          "name": "_wrappedCollateralAsset",
          "type": "address"
        },
        {
          "internalType": "contract IInterestRateModel",
          "name": "_interestRate",
          "type": "address"
        },
        {
          "components": [
            {
              "internalType": "uint256",
              "name": "depositCollateralLimit",
              "type": "uint256"
            },
            {
              "internalType": "uint256",
              "name": "depositBorrowLimit",
              "type": "uint256"
            },
            {
              "internalType": "uint256",
              "name": "totalPairDebtLimit",
              "type": "uint256"
            }
          ],
          "internalType": "struct DataTypes.RiskConfiguration",
          "name": "_riskConfig",
          "type": "tuple"
        }
      ],
      "name": "initialize",
      "outputs": [],
      "stateMutability": "nonpayable",
      "type": "function"
    },
    {
      "inputs": [],
      "name": "interestRate",
      "outputs": [
        {
          "internalType": "contract IInterestRateModel",
          "name": "",
          "type": "address"
        }
      ],
      "stateMutability": "view",
      "type": "function"
    },
    {
      "inputs": [
        {
          "internalType": "address",
          "name": "_borrower",
          "type": "address"
        }
      ],
      "name": "liquidate",
      "outputs": [],
      "stateMutability": "nonpayable",
      "type": "function"
    },
    {
      "inputs": [],
      "name": "liquidationFee",
      "outputs": [
        {
          "internalType": "uint256",
          "name": "",
          "type": "uint256"
        }
      ],
      "stateMutability": "view",
      "type": "function"
    },
    {
      "inputs": [],
      "name": "name",
      "outputs": [
        {
          "internalType": "string",
          "name": "",
          "type": "string"
        }
      ],
      "stateMutability": "view",
      "type": "function"
    },
    {
      "inputs": [],
      "name": "oracle",
      "outputs": [
        {
          "internalType": "contract IPriceOracleAggregator",
          "name": "",
          "type": "address"
        }
      ],
      "stateMutability": "view",
      "type": "function"
    },
    {
      "inputs": [
        {
          "internalType": "enum LendingPair.Actions",
          "name": "action",
          "type": "uint8"
        }
      ],
      "name": "pause",
      "outputs": [],
      "stateMutability": "nonpayable",
      "type": "function"
    },
    {
      "inputs": [
        {
          "internalType": "enum LendingPair.Actions",
          "name": "",
          "type": "uint8"
        }
      ],
      "name": "pauseStatus",
      "outputs": [
        {
          "internalType": "bool",
          "name": "",
          "type": "bool"
        }
      ],
      "stateMutability": "view",
      "type": "function"
    },
    {
      "inputs": [],
      "name": "protocolLiquidationFeeShare",
      "outputs": [
        {
          "internalType": "uint256",
          "name": "",
          "type": "uint256"
        }
      ],
      "stateMutability": "view",
      "type": "function"
    },
    {
      "inputs": [
        {
          "internalType": "address",
          "name": "_to",
          "type": "address"
        },
        {
          "internalType": "uint256",
          "name": "_amount",
          "type": "uint256"
        }
      ],
      "name": "redeem",
      "outputs": [
        {
          "internalType": "uint256",
          "name": "amountOfSharesToRedeem",
          "type": "uint256"
        }
      ],
      "stateMutability": "nonpayable",
      "type": "function"
    },
    {
      "inputs": [
        {
          "internalType": "uint256",
          "name": "_repayAmount",
          "type": "uint256"
        },
        {
          "internalType": "address",
          "name": "_beneficiary",
          "type": "address"
        }
      ],
      "name": "repay",
      "outputs": [],
      "stateMutability": "nonpayable",
      "type": "function"
    },
    {
      "inputs": [],
      "name": "riskConfig",
      "outputs": [
        {
          "internalType": "uint256",
          "name": "depositCollateralLimit",
          "type": "uint256"
        },
        {
          "internalType": "uint256",
          "name": "depositBorrowLimit",
          "type": "uint256"
        },
        {
          "internalType": "uint256",
          "name": "totalPairDebtLimit",
          "type": "uint256"
        }
      ],
      "stateMutability": "view",
      "type": "function"
    },
    {
      "inputs": [],
      "name": "supplyRatePerBlock",
      "outputs": [
        {
          "internalType": "uint256",
          "name": "",
          "type": "uint256"
        }
      ],
      "stateMutability": "view",
      "type": "function"
    },
    {
      "inputs": [],
      "name": "symbol",
      "outputs": [
        {
          "internalType": "string",
          "name": "",
          "type": "string"
        }
      ],
      "stateMutability": "view",
      "type": "function"
    },
    {
      "inputs": [],
      "name": "totalBorrows",
      "outputs": [
        {
          "internalType": "uint256",
          "name": "",
          "type": "uint256"
        }
      ],
      "stateMutability": "view",
      "type": "function"
    },
    {
      "inputs": [],
      "name": "totalReserves",
      "outputs": [
        {
          "internalType": "uint256",
          "name": "",
          "type": "uint256"
        }
      ],
      "stateMutability": "view",
      "type": "function"
    },
    {
      "inputs": [
        {
          "internalType": "enum LendingPair.Actions",
          "name": "action",
          "type": "uint8"
        }
      ],
      "name": "unpause",
      "outputs": [],
      "stateMutability": "nonpayable",
      "type": "function"
    },
    {
      "inputs": [
        {
          "components": [
            {
              "internalType": "uint256",
              "name": "depositCollateralLimit",
              "type": "uint256"
            },
            {
              "internalType": "uint256",
              "name": "depositBorrowLimit",
              "type": "uint256"
            },
            {
              "internalType": "uint256",
              "name": "totalPairDebtLimit",
              "type": "uint256"
            }
          ],
          "internalType": "struct DataTypes.RiskConfiguration",
          "name": "newConfig",
          "type": "tuple"
        }
      ],
      "name": "updateRiskConfig",
      "outputs": [],
      "stateMutability": "nonpayable",
      "type": "function"
    },
    {
      "inputs": [],
      "name": "vault",
      "outputs": [
        {
          "internalType": "contract IBSVault",
          "name": "",
          "type": "address"
        }
      ],
      "stateMutability": "view",
      "type": "function"
    },
    {
      "inputs": [
        {
          "internalType": "uint8[]",
          "name": "actions",
          "type": "uint8[]"
        },
        {
          "internalType": "bytes[]",
          "name": "data",
          "type": "bytes[]"
        }
      ],
      "name": "warp",
      "outputs": [
        {
          "internalType": "uint256",
          "name": "value",
          "type": "uint256"
        }
      ],
      "stateMutability": "nonpayable",
      "type": "function"
    },
    {
      "inputs": [
        {
          "internalType": "uint256",
          "name": "_amount",
          "type": "uint256"
        }
      ],
      "name": "withdrawCollateral",
      "outputs": [],
      "stateMutability": "nonpayable",
      "type": "function"
    },
    {
      "inputs": [
        {
          "internalType": "uint256",
          "name": "_toWithdraw",
          "type": "uint256"
        }
      ],
      "name": "withdrawFees",
      "outputs": [],
      "stateMutability": "nonpayable",
      "type": "function"
    },
    {
      "inputs": [],
      "name": "wrappedCollateralAsset",
      "outputs": [
        {
          "internalType": "contract IBSWrapperToken",
          "name": "",
          "type": "address"
        }
      ],
      "stateMutability": "view",
      "type": "function"
    },
    {
      "inputs": [],
      "name": "wrapperBorrowedAsset",
      "outputs": [
        {
          "internalType": "contract IBSWrapperToken",
          "name": "",
          "type": "address"
        }
      ],
      "stateMutability": "view",
      "type": "function"
    }
  ],
  "transactionHash": "0x181ea4fe3f756e1da5cf1f63a2b68faa69bb1a18083889c723d8024570e15e6e",
  "args": [
    "0x67EeB1E1dd79a4ec823256Dd6c5C6474025618f6",
    "0x9cAc2ec255Ce12b9171497FbeD97f5Fd9efF56F2",
    "0x583B4d6370d998f0AcDe24F651e10E97fc3bC708",
    "50000000000000000"
  ],
  "solcInputHash": "195f5b343e6204c511d7120296e1ddd4",
  "bytecode": "0x6101006040523480156200001257600080fd5b506040516200567d3803806200567d8339810160408190526200003591620000e3565b6001600160a01b038416620000675760405162461bcd60e51b81526004016200005e906200015a565b60405180910390fd5b6001600160a01b038316620000905760405162461bcd60e51b81526004016200005e906200015a565b6001600160a01b038216620000b95760405162461bcd60e51b81526004016200005e906200013c565b6001600160601b0319606094851b811660805292841b831660c052921b1660e05260a05262000190565b60008060008060808587031215620000f9578384fd5b8451620001068162000177565b6020860151909450620001198162000177565b60408601519093506200012c8162000177565b6060959095015193969295505050565b6020808252600490820152634956574160e01b604082015260600190565b60208082526003908201526204956360ec1b604082015260600190565b6001600160a01b03811681146200018d57600080fd5b50565b60805160601c60a05160c05160601c60e05160601c6153a7620002d660003960008181611e1901528181611e9801526138b80152600081816112fe015281816116c801528181611889015281816123ab015281816123d201526127570152600081816112810152611418015260008181610d1901528181610dc201528181610eeb0152818161108301528181611152015281816114fc015281816119ab01528181611af101528181611d4001528181611de701528181611f8d01528181612133015281816122e3015281816125680152818161260f01528181612a4801528181612af201528181612bb501528181612ebf015281816132a8015281816133b9015281816134c9015281816135c10152818161368901528181613736015281816139df01528181613d1501528181613f8f01528181614037015261421b01526153a76000f3fe608060405234801561001057600080fd5b506004361061036d5760003560e01c80637c3a00fd116101d3578063bd6d894d11610104578063edf07f15116100a2578063f8f9da281161007c578063f8f9da2814610676578063f919b4bf1461067e578063fbfa77cf14610691578063ffa1ad74146106995761036d565b8063edf07f1514610653578063f1ab8f7014610666578063f8d898981461066e5761036d565b8063dcec3124116100de578063dcec31241461061d578063dd5a612c14610630578063df011c4114610638578063ed6072f6146106405761036d565b8063bd6d894d146105ef578063cc9da5d6146105f7578063da4f7fb21461060a5761036d565b8063a5d5db0c11610171578063aa5af0fd1161014b578063aa5af0fd146105c4578063aabaecd6146105cc578063acb70815146105d4578063ae9d70b0146105e75761036d565b8063a5d5db0c146105a1578063a5f688ee146105b4578063a6afed95146105bc5761036d565b806388c342ea116101ad57806388c342ea146105765780638f840ddd1461058957806395d89b4114610591578063a36a3630146105995761036d565b80637c3a00fd1461054f5780637c90a6ca146105575780637dc0d1d01461056e5761036d565b8063452a9320116102ad57806362f256e71161024b5780637746efab116102255780637746efab146105035780637820f63b146105165780637af70ba6146105295780637c17d2371461053c5761036d565b806362f256e7146104ca57806364cc85f1146104dd5780636f427d82146104f05761036d565b8063510103a711610287578063510103a714610489578063588785401461049c5780635e318e07146104a45780636112fe2e146104b75761036d565b8063452a93201461046657806347bd37181461046e5780634b3fd148146104765761036d565b806324d873f71161031a578063301c7e5d116102f4578063301c7e5d1461042e578063360e303a1461044157806338d52e0f146104565780633bfc7be81461045e5761036d565b806324d873f7146103f35780632bca5f35146103fb5780632f8655681461041b5761036d565b806317bfdfbc1161034b57806317bfdfbc146103ba5780631e9a6950146103cd57806323b9db03146103e05761036d565b806306fdde031461037257806308f18a64146103905780631602179e146103a5575b600080fd5b61037a6106a1565b6040516103879190614b07565b60405180910390f35b6103a361039e3660046147ee565b61072f565b005b6103ad610bea565b6040516103879190614afe565b6103ad6103c83660046145d0565b610bf0565b6103ad6103db3660046146b9565b610c0b565b6103a36103ee3660046146b9565b610fb4565b6103ad61127f565b61040e61040936600461474d565b6112a3565b6040516103879190614a8c565b6103a36104293660046145d0565b6112b8565b6103a361043c36600461474d565b6115a4565b61044961168d565b60405161038791906149bb565b61044961169c565b6103ad6116ab565b610449611754565b6103ad611763565b6103a3610484366004614931565b6117a8565b6103a36104973660046148fe565b611bb1565b610449611ce1565b6103a36104b236600461476c565b611cf0565b6103a36104c536600461476c565b611ed2565b6103ad6104d836600461476c565b61203b565b6103ad6104eb3660046145d0565b61205e565b6103ad6104fe3660046145d0565b612070565b6103ad6105113660046145d0565b6121e3565b6103ad6105243660046145d0565b6122b5565b6103ad6105373660046145d0565b6122d3565b6103ad61054a3660046145d0565b612382565b61044961238e565b61055f61239d565b60405161038793929190615067565b6104496123a9565b6103ad6105843660046146b9565b6123cd565b6103ad61247f565b61037a612485565b6103ad612492565b6103a36105af3660046146b9565b612498565b6103ad61273a565b6103a361278d565b6103ad6129b2565b6104496129b8565b6103a36105e2366004614931565b6129c7565b6103ad612cf6565b6103ad612dbd565b6103ad6106053660046145d0565b612ea7565b6103ad61061836600461476c565b612f5b565b6103ad61062b3660046146e4565b612f74565b6103ad61366a565b6103ad6137c9565b6103ad61064e36600461476c565b6137cf565b6103a361066136600461474d565b6137e7565b6104496138b6565b6104496138da565b6103ad6138e9565b6103ad61068c3660046145d0565b6139ac565b6104496139dd565b6103ad613a01565b600480546106ae906152c9565b80601f01602080910402602001604051908101604052809291908181526020018280546106da906152c9565b80156107275780601f106106fc57610100808354040283529160200191610727565b820191906000526020600020905b81548152906001019060200180831161070a57829003601f168201915b505050505081565b600054610100900460ff16806107485750610748613a06565b80610756575060005460ff16155b61077b5760405162461bcd60e51b815260040161077290614d8d565b60405180910390fd5b600054610100900460ff161580156107a6576000805460ff1961ff0019909116610100171660011790555b60408601516001600160a01b0316158015906107ce575060608601516001600160a01b031615155b6107ea5760405162461bcd60e51b815260040161077290615033565b60808601516001600160a01b03166108145760405162461bcd60e51b815260040161077290614d70565b306001600160a01b0316846001600160a01b0316638da5cb5b6040518163ffffffff1660e01b815260040160206040518083038186803b15801561085757600080fd5b505afa15801561086b573d6000803e3d6000fd5b505050506040513d601f19601f8201168201806040525081019061088f91906145ec565b6001600160a01b0316146108b55760405162461bcd60e51b815260040161077290614bcc565b6001600160a01b0383166108db5760405162461bcd60e51b815260040161077290614d52565b60008560800135116108ff5760405162461bcd60e51b815260040161077290614f02565b6109183061091236889003880188614784565b90613a0c565b81516001556020808301516002556040830151600355865180516109409260049201906143f6565b5060208087015180516109579260059201906143f6565b50608086810151600e80546001600160a01b03199081166001600160a01b03938416179091556040808a0151600f805484169185169190911790556060808b01516010805485169186169190911790556006805490931693881693909317909155670de0b6b3a7640000600a5587356007556020880135600855870135600c559086018035600d556109ea9187016145d0565b601180546001600160a01b0319166001600160a01b0392909216919091179055610a1a60c0860160a087016145d0565b601380546001600160a01b03199081166001600160a01b039384161790915560128054909116868316179055600f546040805163313ce56760e01b81529051919092169163313ce567916004808301926020929190829003018186803b158015610a8357600080fd5b505afa158015610a97573d6000803e3d6000fd5b505050506040513d601f19601f82011682018060405250810190610abb919061499f565b600660146101000a81548160ff021916908360ff160217905550601060009054906101000a90046001600160a01b03166001600160a01b031663313ce5676040518163ffffffff1660e01b815260040160206040518083038186803b158015610b2357600080fd5b505afa158015610b37573d6000803e3d6000fd5b505050506040513d601f19601f82011682018060405250810190610b5b919061499f565b6006805460ff92909216600160a81b0260ff60a81b19909216919091179055601054600f54600e546040516001600160a01b03938416939283169230927f3514319b7a526ad5f1f42edf0c1df25fa0ea2ae054779987fbe636f164515e2f92610bc89291909116906149bb565b60405180910390a48015610be2576000805461ff00191690555b505050505050565b60011981565b6000610bfa61278d565b610c03826121e3565b90505b919050565b60006001600160a01b038316610c335760405162461bcd60e51b815260040161077290614e90565b610c3b614476565b610c43612dbd565b815282610cd4576011546040516370a0823160e01b81526001600160a01b03909116906370a0823190610c7a9033906004016149bb565b60206040518083038186803b158015610c9257600080fd5b505afa158015610ca6573d6000803e3d6000fd5b505050506040513d601f19601f82011682018060405250810190610cca9190614919565b6040820152610cdc565b604081018390525b604080516020810182528251815290820151610cf89190613c38565b60208201819052600f54604051636d289ce560e11b81526001600160a01b037f000000000000000000000000000000000000000000000000000000000000000081169363da5139ca93610d5393921691600090600401614adb565b60206040518083038186803b158015610d6b57600080fd5b505afa158015610d7f573d6000803e3d6000fd5b505050506040513d601f19601f82011682018060405250810190610da39190614919565b600f54604051633de222bb60e21b815291935083916001600160a01b037f000000000000000000000000000000000000000000000000000000000000000081169263f7888aec92610dfd9291909116903090600401614a97565b60206040518083038186803b158015610e1557600080fd5b505afa158015610e29573d6000803e3d6000fd5b505050506040513d601f19601f82011682018060405250810190610e4d9190614919565b1015610e6b5760405162461bcd60e51b815260040161077290614fe1565b6011546040808301519051632770a7eb60e21b81526001600160a01b0390921691639dc29fac91610ea191339190600401614a2c565b600060405180830381600087803b158015610ebb57600080fd5b505af1158015610ecf573d6000803e3d6000fd5b5050600f54604051633c6340f360e21b81526001600160a01b037f00000000000000000000000000000000000000000000000000000000000000008116945063f18d03cc9350610f29921690309089908890600401614ab1565b600060405180830381600087803b158015610f4357600080fd5b505af1158015610f57573d6000803e3d6000fd5b5050600f5460408481015190513394506001600160a01b03909216925030917f18fd144d7dbcbaa6f00fd47a84adc7dc3cc64a326ffa2dc7691a25e3837dba0391610fa5918a918991614a45565b60405180910390a45092915050565b600080805260156020527fa31547ce6245cdb9ecea19cf8c7eb9f5974025bb4075011409251ae855b30aed5460ff16156110005760405162461bcd60e51b815260040161077290614b75565b6001600160a01b0383166110265760405162461bcd60e51b815260040161077290614c75565b600254156110665760018001548261103e6002613c58565b6110489190615121565b11156110665760405162461bcd60e51b815260040161077290614c3e565b600f54604051636d289ce560e11b81526000916001600160a01b037f000000000000000000000000000000000000000000000000000000000000000081169263da5139ca926110bd92169087908690600401614adb565b60206040518083038186803b1580156110d557600080fd5b505afa1580156110e9573d6000803e3d6000fd5b505050506040513d601f19601f8201168201806040525081019061110d9190614919565b90506000611119612dbd565b9050600061113585604051806020016040528085815250613f11565b600f54604051633c6340f360e21b81529192506001600160a01b037f000000000000000000000000000000000000000000000000000000000000000081169263f18d03cc9261118e921690339030908990600401614ab1565b600060405180830381600087803b1580156111a857600080fd5b505af11580156111bc573d6000803e3d6000fd5b50506011546040516340c10f1960e01b81526001600160a01b0390911692506340c10f1991506111f29089908590600401614a2c565b600060405180830381600087803b15801561120c57600080fd5b505af1158015611220573d6000803e3d6000fd5b5050600f546040516001600160a01b038a81169450909116915030907fc1b57ce6b8a9044ecd63b204e4b7d92cb3c9bd8bd9eb74fb58d969f7002f45939061126f9033908b908a908990614a66565b60405180910390a4505050505050565b7f000000000000000000000000000000000000000000000000000000000000000081565b60156020526000908152604090205460ff1681565b336001600160a01b03821614156112e15760405162461bcd60e51b815260040161077290614ce4565b600f54604051630226614760e01b81526000916001600160a01b037f00000000000000000000000000000000000000000000000000000000000000008116926302266147926113349216906004016149bb565b60206040518083038186803b15801561134c57600080fd5b505afa158015611360573d6000803e3d6000fd5b505050506040513d601f19601f820116820180604052508101906113849190614919565b9050600061139061273a565b9050600061139d84610bf0565b90506000836113bb83600660149054906101000a900460ff16613f1e565b6113c59190615270565b90506000836113e86113d688612382565b600654600160a81b900460ff16613f1e565b6113f29190615270565b9050818111610be25760006114068461203b565b90506000670de0b6b3a764000061143d7f000000000000000000000000000000000000000000000000000000000000000084615270565b6114479190615139565b905061145e8833876114598582615121565b613f72565b6001600160a01b038816600090815260146020526040812055600b54611485908290615121565b600b5560006114948387615121565b61149e9089615270565b6006549091506000906114bb90600160a01b900460ff1689615270565b6006546114d290600160a81b900460ff1684615270565b6114dc9190615139565b601054604051636d289ce560e11b81529192506000916001600160a01b037f000000000000000000000000000000000000000000000000000000000000000081169263da5139ca9261153a9291909116908690600190600401614adb565b60206040518083038186803b15801561155257600080fd5b505afa158015611566573d6000803e3d6000fd5b505050506040513d601f19601f8201168201806040525081019061158a9190614919565b90506115978b3383614110565b5050505050505050505050565b600e546001600160a01b031633146115ce5760405162461bcd60e51b815260040161077290614eb0565b6000601560008360018111156115f457634e487b7160e01b600052602160045260246000fd5b600181111561161357634e487b7160e01b600052602160045260246000fd5b81526020810191909152604001600020805460ff19169115159190911790557fdfa820e666ed1059467a5c9faba2d85f0cb8a9bf8b871537a12766ff5f20107f81600181111561167357634e487b7160e01b600052602160045260246000fd5b42604051611682929190615098565b60405180910390a150565b6012546001600160a01b031681565b600f546001600160a01b031681565b600f54604051630226614760e01b81526000916001600160a01b037f00000000000000000000000000000000000000000000000000000000000000008116926302266147926116fe9216906004016149bb565b60206040518083038186803b15801561171657600080fd5b505afa15801561172a573d6000803e3d6000fd5b505050506040513d601f19601f8201168201806040525081019061174e9190614919565b90505b90565b600e546001600160a01b031681565b601354604080516318160ddd60e01b815290516000926001600160a01b0316916318160ddd916004808301926020929190829003018186803b15801561171657600080fd5b6001600081905260156020527f27739e4bb5e6f8b5e4b57a047dca8767cc9b982a011081e086cbb0dfa9de818d5460ff16156117f65760405162461bcd60e51b815260040161077290614b75565b60035415611837576001600201548361180f6003613c58565b6118199190615121565b11156118375760405162461bcd60e51b815260040161077290614cad565b6001600160a01b03821661185d5760405162461bcd60e51b815260040161077290614e59565b600654600f54600160a01b90910460ff16906001600160a01b0316600061188385610bf0565b905060007f00000000000000000000000000000000000000000000000000000000000000006001600160a01b03166302266147846040518263ffffffff1660e01b81526004016118d391906149bb565b60206040518083038186803b1580156118eb57600080fd5b505afa1580156118ff573d6000803e3d6000fd5b505050506040513d601f19601f820116820180604052508101906119239190614919565b90506000816119328487613f1e565b61193c9190615270565b9050600061194861273a565b6119546113d68a612382565b61195e9190615270565b9050600061196c838361528f565b905060008461197b8c8a613f1e565b6119859190615270565b9050808210156119a75760405162461bcd60e51b815260040161077290614f57565b60007f00000000000000000000000000000000000000000000000000000000000000006001600160a01b031663da5139ca898e60006040518463ffffffff1660e01b81526004016119fa93929190614adb565b60206040518083038186803b158015611a1257600080fd5b505afa158015611a26573d6000803e3d6000fd5b505050506040513d601f19601f82011682018060405250810190611a4a9190614919565b9050601360009054906101000a90046001600160a01b03166001600160a01b031663c6c3bbe68c338f6040518463ffffffff1660e01b8152600401611a9193929190614a08565b600060405180830381600087803b158015611aab57600080fd5b505af1158015611abf573d6000803e3d6000fd5b5050600a546001600160a01b03808f1660009081526014602052604090819020929092559051633c6340f360e21b81527f0000000000000000000000000000000000000000000000000000000000000000909116925063f18d03cc9150611b30908b90309033908790600401614ab1565b600060405180830381600087803b158015611b4a57600080fd5b505af1158015611b5e573d6000803e3d6000fd5b50505050336001600160a01b03167fcbc04eca7e9da35cb1393a6135a199ca52e450d5e9251cbd99f7847d33a367508d604051611b9b9190614afe565b60405180910390a2505050505050505050505050565b600e546001600160a01b03163314611bdb5760405162461bcd60e51b815260040161077290614eb0565b805160015414801590611bf857508051611bf56001613c58565b11155b611c145760405162461bcd60e51b815260040161077290614d1b565b602081015160025414801590611c3757508060200151611c346002613c58565b11155b611c535760405162461bcd60e51b815260040161077290614b95565b604081015160035414801590611c7657508060400151611c736003613c58565b11155b611c925760405162461bcd60e51b815260040161077290614d1b565b8051600181905560208201516002819055604080840151600381905590517fed81ba767830b2a1597ac44bd05fb331f833b8e92eeed5d3229d45d6e049b8ec936116829390929091439061507d565b6011546001600160a01b031681565b80600b541015611d125760405162461bcd60e51b815260040161077290614fe1565b80600b54611d20919061528f565b600b55600f54604051636d289ce560e11b81526000916001600160a01b037f000000000000000000000000000000000000000000000000000000000000000081169263da5139ca92611d7a92169086908690600401614adb565b60206040518083038186803b158015611d9257600080fd5b505afa158015611da6573d6000803e3d6000fd5b505050506040513d601f19601f82011682018060405250810190611dca9190614919565b600f54604051633c6340f360e21b81529192506001600160a01b037f000000000000000000000000000000000000000000000000000000000000000081169263f18d03cc92611e4392169030907f0000000000000000000000000000000000000000000000000000000000000000908790600401614ab1565b600060405180830381600087803b158015611e5d57600080fd5b505af1158015611e71573d6000803e3d6000fd5b505050507f0529afc4538720fe0b3eadc40486369ab962002d72fead1387b300c66073e7bf7f000000000000000000000000000000000000000000000000000000000000000083604051611ec6929190614a2c565b60405180910390a15050565b600080611ede33612070565b905082611eed57809150611ef1565b8291505b81811015611f115760405162461bcd60e51b815260040161077290614f20565b601254604051632770a7eb60e21b81526001600160a01b0390911690639dc29fac90611f439033908690600401614a2c565b600060405180830381600087803b158015611f5d57600080fd5b505af1158015611f71573d6000803e3d6000fd5b5050601054604051633c6340f360e21b81526001600160a01b037f00000000000000000000000000000000000000000000000000000000000000008116945063f18d03cc9350611fcb921690309033908890600401614ab1565b600060405180830381600087803b158015611fe557600080fd5b505af1158015611ff9573d6000803e3d6000fd5b505050507fa8e76b822fc682be77f3b1c822ea81f6bda5aed92ba82e6873bfd889f328d1d2338360405161202e929190614a2c565b60405180910390a1505050565b6000670de0b6b3a7640000600d54836120549190615270565b610c039190615139565b60146020526000908152604090205481565b600654600090600160a81b900460ff168161209f61208d85610bf0565b600654600160a01b900460ff16613f1e565b905060006120ab61273a565b600f549091506000906120c7906001600160a01b0316846123cd565b90506000826120de6120d8896122d3565b87613f1e565b6120e89190615270565b905060006120f583612f5b565b90508082101561210e5760009650505050505050610c06565b600061212361211d838561528f565b886142d2565b6010549091506001600160a01b037f000000000000000000000000000000000000000000000000000000000000000081169163da5139ca91166121668885615139565b60006040518463ffffffff1660e01b815260040161218693929190614adb565b60206040518083038186803b15801561219e57600080fd5b505afa1580156121b2573d6000803e3d6000fd5b505050506040513d601f19601f820116820180604052508101906121d69190614919565b9998505050505050505050565b6013546040516316707ceb60e11b8152600091829182916001600160a01b031690632ce0f9d6906122189087906004016149bb565b60206040518083038186803b15801561223057600080fd5b505afa158015612244573d6000803e3d6000fd5b505050506040513d601f19601f820116820180604052508101906122689190614919565b90508061227a57600092505050610c06565b6001600160a01b038416600090815260146020526040902054600a546122a09083615270565b92506122ac8184615139565b95945050505050565b6000806122c183612ea7565b90506122cc816137cf565b9392505050565b6010546000906001600160a01b037f0000000000000000000000000000000000000000000000000000000000000000811691635299493b9116612315856139ac565b6040518363ffffffff1660e01b8152600401612332929190614a2c565b60206040518083038186803b15801561234a57600080fd5b505afa15801561235e573d6000803e3d6000fd5b505050506040513d601f19601f82011682018060405250810190610c039190614919565b6000806122c1836122d3565b6006546001600160a01b031681565b60015460025460035483565b7f000000000000000000000000000000000000000000000000000000000000000081565b6000817f00000000000000000000000000000000000000000000000000000000000000006001600160a01b03166302266147856040518263ffffffff1660e01b815260040161241c91906149bb565b60206040518083038186803b15801561243457600080fd5b505afa158015612448573d6000803e3d6000fd5b505050506040513d601f19601f8201168201806040525081019061246c9190614919565b6124769190615270565b90505b92915050565b600b5481565b600580546106ae906152c9565b600d5481565b600080805260156020527fa31547ce6245cdb9ecea19cf8c7eb9f5974025bb4075011409251ae855b30aed5460ff16156124e45760405162461bcd60e51b815260040161077290614b75565b6001600160a01b03831661250a5760405162461bcd60e51b815260040161077290614c75565b6001541561254b57600160000154826125236001613c58565b61252d9190615121565b111561254b5760405162461bcd60e51b815260040161077290614ecd565b601054604051636d289ce560e11b81526000916001600160a01b037f000000000000000000000000000000000000000000000000000000000000000081169263da5139ca926125a292169087908690600401614adb565b60206040518083038186803b1580156125ba57600080fd5b505afa1580156125ce573d6000803e3d6000fd5b505050506040513d601f19601f820116820180604052508101906125f29190614919565b601054604051633c6340f360e21b81529192506001600160a01b037f000000000000000000000000000000000000000000000000000000000000000081169263f18d03cc9261264b921690339030908790600401614ab1565b600060405180830381600087803b15801561266557600080fd5b505af1158015612679573d6000803e3d6000fd5b50506012546040516340c10f1960e01b81526001600160a01b0390911692506340c10f1991506126af9087908590600401614a2c565b600060405180830381600087803b1580156126c957600080fd5b505af11580156126dd573d6000803e3d6000fd5b50506010546040516001600160a01b038881169450909116915030907fc1b57ce6b8a9044ecd63b204e4b7d92cb3c9bd8bd9eb74fb58d969f7002f45939061272c903390899088908190614a66565b60405180910390a450505050565b601054604051630226614760e01b81526000916001600160a01b037f00000000000000000000000000000000000000000000000000000000000000008116926302266147926116fe9216906004016149bb565b60006127976142f5565b600954909150808214156127e3577fe307fb74a265b8255fabc1154131917ce875f96118a807f88eda1e751722538d826040516127d49190614afe565b60405180910390a150506129b0565b60006127ed61366a565b905060006127f9611763565b600b54600a546006546040516315f2405360e01b8152939450919290916000916001600160a01b03909116906315f240539061283d90889088908890600401615067565b60206040518083038186803b15801561285557600080fd5b505afa158015612869573d6000803e3d6000fd5b505050506040513d601f19601f8201168201806040525081019061288d9190614919565b9050600061289b878961528f565b90506128a5614497565b60008060006128c2604051806020016040528088815250866142f9565b93506128ce848a613c38565b92506128eb6040518060200160405280600854815250848a614327565b91506128f8848889614327565b60098d9055600a81905560135460405163146fac4560e01b81529192506001600160a01b03169063146fac4590612933908690600401614afe565b600060405180830381600087803b15801561294d57600080fd5b505af1158015612961573d6000803e3d6000fd5b505050600b83905550600954600a5430917eaf397b333f747e35288f4f28a97dff5288f74200f7a94532e63e7bc9c2786d9161299d878e615121565b600b54604051611b9b949392919061507d565b565b600a5481565b6010546001600160a01b031681565b6001600160a01b0381166129ed5760405162461bcd60e51b815260040161077290614faa565b60006129f882610bf0565b905080831115612a1a5760405162461bcd60e51b815260040161077290614e22565b600083612a28575080612a2b565b50825b600f54604051636d289ce560e11b81526000916001600160a01b037f000000000000000000000000000000000000000000000000000000000000000081169263da5139ca92612a839216908690600190600401614adb565b60206040518083038186803b158015612a9b57600080fd5b505afa158015612aaf573d6000803e3d6000fd5b505050506040513d601f19601f82011682018060405250810190612ad39190614919565b600f54604051633de222bb60e21b815291925082916001600160a01b037f000000000000000000000000000000000000000000000000000000000000000081169263f7888aec92612b2d9291909116903390600401614a97565b60206040518083038186803b158015612b4557600080fd5b505afa158015612b59573d6000803e3d6000fd5b505050506040513d601f19601f82011682018060405250810190612b7d9190614919565b1015612b9b5760405162461bcd60e51b815260040161077290614fe1565b600f54604051633c6340f360e21b81526001600160a01b037f000000000000000000000000000000000000000000000000000000000000000081169263f18d03cc92612bf4929190911690339030908790600401614ab1565b600060405180830381600087803b158015612c0e57600080fd5b505af1158015612c22573d6000803e3d6000fd5b5050601354604051632770a7eb60e21b81526001600160a01b039091169250639dc29fac9150612c589087908690600401614a2c565b600060405180830381600087803b158015612c7257600080fd5b505af1158015612c86573d6000803e3d6000fd5b5050600a546001600160a01b038088166000818152601460205260409081902093909355600f5492519094509116915030907f15e061f85ae0cc955acf34c814a39567895400d498e2e52faa1fbe370bbe46f290612ce79033908890614a2c565b60405180910390a45050505050565b6006546000906001600160a01b031663b8168816612d1261366a565b601360009054906101000a90046001600160a01b03166001600160a01b03166318160ddd6040518163ffffffff1660e01b815260040160206040518083038186803b158015612d6057600080fd5b505afa158015612d74573d6000803e3d6000fd5b505050506040513d601f19601f82011682018060405250810190612d989190614919565b600b546008546040518563ffffffff1660e01b81526004016116fe949392919061507d565b6000612dc761278d565b601154604080516318160ddd60e01b815290516000926001600160a01b0316916318160ddd916004808301926020929190829003018186803b158015612e0c57600080fd5b505afa158015612e20573d6000803e3d6000fd5b505050506040513d601f19601f82011682018060405250810190612e449190614919565b905080612e55575050600754611751565b6000612e5f61366a565b90506000612e6b614497565b600b54612e76611763565b612e809085615121565b612e8a919061528f565b9150612e96828561434a565b5194506117519350505050565b5090565b601054600090610c03906001600160a01b03908116907f000000000000000000000000000000000000000000000000000000000000000016635299493b82612eee876139ac565b6040518363ffffffff1660e01b8152600401612f0b929190614a2c565b60206040518083038186803b158015612f2357600080fd5b505afa158015612f37573d6000803e3d6000fd5b505050506040513d601f19601f820116820180604052508101906105849190614919565b6000670de0b6b3a7640000600c54836120549190615270565b6000838214612f955760405162461bcd60e51b815260040161077290614e05565b60005b60ff811685111561366157600086868360ff16818110612fc857634e487b7160e01b600052603260045260246000fd5b9050602002016020810190612fdd9190614983565b905060ff8116600114156130495760008086868560ff1681811061301157634e487b7160e01b600052603260045260246000fd5b905060200281019061302391906150ab565b81019061303091906146b9565b91509150613042826103ee838861438b565b505061364e565b60ff8116600a14156130ac5760008086868560ff1681811061307b57634e487b7160e01b600052603260045260246000fd5b905060200281019061308d91906150ab565b81019061309a91906146b9565b91509150613042826105af838861438b565b60ff8116600214156131145760008086868560ff168181106130de57634e487b7160e01b600052603260045260246000fd5b90506020028101906130f091906150ab565b8101906130fd91906146b9565b9150915061304261310e828761438b565b836129c7565b60ff81166003141561317c5760008086868560ff1681811061314657634e487b7160e01b600052603260045260246000fd5b905060200281019061315891906150ab565b81019061316591906146b9565b91509150613042613176828761438b565b836117a8565b60ff8116600414156131e85760008086868560ff168181106131ae57634e487b7160e01b600052603260045260246000fd5b90506020028101906131c091906150ab565b8101906131cd91906146b9565b915091506131df826103db838861438b565b9450505061364e565b60ff81166005141561324d57600085858460ff1681811061321957634e487b7160e01b600052603260045260246000fd5b905060200281019061322b91906150ab565b810190613238919061476c565b90506132476104c5828661438b565b5061364e565b60ff8116600b141561335e57600080600087878660ff1681811061328157634e487b7160e01b600052603260045260246000fd5b905060200281019061329391906150ab565b8101906132a09190614679565b9250925092507f00000000000000000000000000000000000000000000000000000000000000006001600160a01b0316630284c3f58433856132e2868c61438b565b6040518563ffffffff1660e01b81526004016133019493929190614ab1565b6040805180830381600087803b15801561331a57600080fd5b505af115801561332e573d6000803e3d6000fd5b505050506040513d601f19601f820116820180604052508101906133529190614960565b50955061364e92505050565b60ff8116600c141561346e57600080600087878660ff1681811061339257634e487b7160e01b600052603260045260246000fd5b90506020028101906133a491906150ab565b8101906133b19190614679565b9250925092507f00000000000000000000000000000000000000000000000000000000000000006001600160a01b0316630b620b818433856133f3868c61438b565b6040518563ffffffff1660e01b81526004016134129493929190614ab1565b602060405180830381600087803b15801561342c57600080fd5b505af1158015613440573d6000803e3d6000fd5b505050506040513d601f19601f820116820180604052508101906134649190614919565b955050505061364e565b60ff8116600d141561355c57600080600087878660ff168181106134a257634e487b7160e01b600052603260045260246000fd5b90506020028101906134b491906150ab565b8101906134c19190614679565b9250925092507f00000000000000000000000000000000000000000000000000000000000000006001600160a01b031663f18d03cc843385613503868c61438b565b6040518563ffffffff1660e01b81526004016135229493929190614ab1565b600060405180830381600087803b15801561353c57600080fd5b505af1158015613550573d6000803e3d6000fd5b5050505050505061364e565b60ff8116600e141561364e576000806000806000808a8a8960ff1681811061359457634e487b7160e01b600052603260045260246000fd5b90506020028101906135a691906150ab565b8101906135b39190614608565b9550955095509550955095507f00000000000000000000000000000000000000000000000000000000000000006001600160a01b0316633f21c1b48787878787876040518763ffffffff1660e01b8152600401613615969594939291906149cf565b600060405180830381600087803b15801561362f57600080fd5b505af1158015613643573d6000803e3d6000fd5b505050505050505050505b5080613659816152fe565b915050612f98565b50949350505050565b600f54604051633de222bb60e21b815260009182916001600160a01b037f000000000000000000000000000000000000000000000000000000000000000081169263f7888aec926136c49291909116903090600401614a97565b60206040518083038186803b1580156136dc57600080fd5b505afa1580156136f0573d6000803e3d6000fd5b505050506040513d601f19601f820116820180604052508101906137149190614919565b9050801561174e57600f54604051635299493b60e01b81526001600160a01b037f0000000000000000000000000000000000000000000000000000000000000000811692635299493b926137719291909116908590600401614a2c565b60206040518083038186803b15801561378957600080fd5b505afa15801561379d573d6000803e3d6000fd5b505050506040513d601f19601f820116820180604052508101906137c19190614919565b915050611751565b600c5481565b600c54600090612054670de0b6b3a764000084615270565b600e546001600160a01b031633146138115760405162461bcd60e51b815260040161077290614eb0565b60016015600083600181111561383757634e487b7160e01b600052602160045260246000fd5b600181111561385657634e487b7160e01b600052602160045260246000fd5b81526020810191909152604001600020805460ff19169115159190911790557feee4857a800dd0d59a522983fa5935c3d0e584b1b60f3552c4941706e6af58ed81600181111561167357634e487b7160e01b600052602160045260246000fd5b7f000000000000000000000000000000000000000000000000000000000000000081565b6013546001600160a01b031681565b6006546000906001600160a01b03166315f2405361390561366a565b601360009054906101000a90046001600160a01b03166001600160a01b03166318160ddd6040518163ffffffff1660e01b815260040160206040518083038186803b15801561395357600080fd5b505afa158015613967573d6000803e3d6000fd5b505050506040513d601f19601f8201168201806040525081019061398b9190614919565b600b546040518463ffffffff1660e01b81526004016116fe93929190615067565b6012546040516370a0823160e01b81526000916001600160a01b0316906370a08231906123329085906004016149bb565b7f000000000000000000000000000000000000000000000000000000000000000081565b600181565b303b1590565b8151613a2a5760405162461bcd60e51b815260040161077290614c92565b6000826020015111613a4e5760405162461bcd60e51b815260040161077290615018565b6000826040015111613a725760405162461bcd60e51b815260040161077290614b5a565b6000826080015111613a965760405162461bcd60e51b815260040161077290614dea565b60608201516001600160a01b0316613ac05760405162461bcd60e51b815260040161077290614c23565b60a08201516001600160a01b0316613aea5760405162461bcd60e51b815260040161077290614bea565b806001600160a01b031682606001516001600160a01b0316638da5cb5b6040518163ffffffff1660e01b815260040160206040518083038186803b158015613b3157600080fd5b505afa158015613b45573d6000803e3d6000fd5b505050506040513d601f19601f82011682018060405250810190613b6991906145ec565b6001600160a01b031614613b8f5760405162461bcd60e51b815260040161077290614f8e565b806001600160a01b03168260a001516001600160a01b0316638da5cb5b6040518163ffffffff1660e01b815260040160206040518083038186803b158015613bd657600080fd5b505afa158015613bea573d6000803e3d6000fd5b505050506040513d601f19601f82011682018060405250810190613c0e91906145ec565b6001600160a01b031614613c345760405162461bcd60e51b815260040161077290614c06565b5050565b600080613c4584846142f9565b9050613c50816143b2565b949350505050565b60008160011415613e1757601260009054906101000a90046001600160a01b03166001600160a01b03166318160ddd6040518163ffffffff1660e01b815260040160206040518083038186803b158015613cb157600080fd5b505afa158015613cc5573d6000803e3d6000fd5b505050506040513d601f19601f82011682018060405250810190613ce99190614919565b613cf557506000613e12565b601054601254604080516318160ddd60e01b815290516001600160a01b037f0000000000000000000000000000000000000000000000000000000000000000811694635299493b94908216939116916318160ddd91600480820192602092909190829003018186803b158015613d6a57600080fd5b505afa158015613d7e573d6000803e3d6000fd5b505050506040513d601f19601f82011682018060405250810190613da29190614919565b6040518363ffffffff1660e01b8152600401613dbf929190614a2c565b60206040518083038186803b158015613dd757600080fd5b505afa158015613deb573d6000803e3d6000fd5b505050506040513d601f19601f82011682018060405250810190613e0f9190614919565b90505b610c06565b8160021415613eba57613e0f6040518060200160405280613e36612dbd565b9052601154604080516318160ddd60e01b815290516001600160a01b03909216916318160ddd91600480820192602092909190829003018186803b158015613e7d57600080fd5b505afa158015613e91573d6000803e3d6000fd5b505050506040513d601f19601f82011682018060405250810190613eb59190614919565b613c38565b8160031415610c0657601360009054906101000a90046001600160a01b03166001600160a01b03166318160ddd6040518163ffffffff1660e01b815260040160206040518083038186803b15801561234a57600080fd5b600080613c4584846143ca565b600060128260ff1610613f5257613f366012836152a6565b613f4190600a61519f565b613f4b9084615139565b9050612479565b613f5d8260126152a6565b613f6890600a61519f565b613f4b9084615270565b600f54604051636d289ce560e11b81526000916001600160a01b037f000000000000000000000000000000000000000000000000000000000000000081169263da5139ca92613fca9216908690600190600401614adb565b60206040518083038186803b158015613fe257600080fd5b505afa158015613ff6573d6000803e3d6000fd5b505050506040513d601f19601f8201168201806040525081019061401a9190614919565b600f54604051633c6340f360e21b81529192506001600160a01b037f000000000000000000000000000000000000000000000000000000000000000081169263f18d03cc92614073921690889030908790600401614ab1565b600060405180830381600087803b15801561408d57600080fd5b505af11580156140a1573d6000803e3d6000fd5b5050601354604051632770a7eb60e21b81526001600160a01b039091169250639dc29fac91506140d79088908790600401614a2c565b600060405180830381600087803b1580156140f157600080fd5b505af1158015614105573d6000803e3d6000fd5b505050505050505050565b6012546040516370a0823160e01b81526000916001600160a01b0316906370a08231906141419087906004016149bb565b60206040518083038186803b15801561415957600080fd5b505afa15801561416d573d6000803e3d6000fd5b505050506040513d601f19601f820116820180604052508101906141919190614919565b90508082111561419f578091505b601254604051632770a7eb60e21b81526001600160a01b0390911690639dc29fac906141d19087908690600401614a2c565b600060405180830381600087803b1580156141eb57600080fd5b505af11580156141ff573d6000803e3d6000fd5b5050601054604051633c6340f360e21b81526001600160a01b037f00000000000000000000000000000000000000000000000000000000000000008116945063f18d03cc9350614259921690309088908890600401614ab1565b600060405180830381600087803b15801561427357600080fd5b505af1158015614287573d6000803e3d6000fd5b50506010546040516001600160a01b038881169450909116915030907fcea6068021f706074af611c2a4b6b08820c5b8223a80149684c64c60ce7be3cc9061272c9087908990615050565b600060128260ff16106142ea57613f5d6012836152a6565b613f368260126152a6565b4390565b614301614497565b8251600090614311908490615270565b6040805160208101909152908152949350505050565b60008061433485856142f9565b905082614340826143b2565b6122ac9190615121565b614352614497565b6000614366670de0b6b3a764000085615270565b905060006143748483615139565b604080516020810190915290815295945050505050565b6000808312156143ab5760011983146143a457826143a6565b815b612476565b5090919050565b8051600090610c0390670de0b6b3a764000090615139565b6143d2614497565b60006143e684670de0b6b3a7640000615270565b9050613c5081846000015161434a565b828054614402906152c9565b90600052602060002090601f016020900481019282614424576000855561446a565b82601f1061443d57805160ff191683800117855561446a565b8280016001018555821561446a579182015b8281111561446a57825182559160200191906001019061444f565b50612ea39291506144aa565b60405180606001604052806000815260200160008152602001600081525090565b6040518060200160405280600081525090565b5b80821115612ea357600081556001016144ab565b8035610c068161534a565b60008083601f8401126144db578182fd5b50813567ffffffffffffffff8111156144f2578182fd5b602083019150836020808302850101111561450c57600080fd5b9250929050565b600082601f830112614523578081fd5b813567ffffffffffffffff81111561453d5761453d615334565b614550601f8201601f19166020016150f0565b818152846020838601011115614564578283fd5b816020850160208301379081016020019190915292915050565b600060c0828403121561458f578081fd5b50919050565b6000606082840312156145a6578081fd5b6145b060606150f0565b905081358152602082013560208201526040820135604082015292915050565b6000602082840312156145e1578081fd5b81356122cc8161534a565b6000602082840312156145fd578081fd5b81516122cc8161534a565b60008060008060008060c08789031215614620578182fd5b863561462b8161534a565b9550602087013561463b8161534a565b94506040870135801515811461464f578283fd5b9350606087013561465f81615362565b9598949750929560808101359460a0909101359350915050565b60008060006060848603121561468d578283fd5b83356146988161534a565b925060208401356146a88161534a565b929592945050506040919091013590565b600080604083850312156146cb578182fd5b82356146d68161534a565b946020939093013593505050565b600080600080604085870312156146f9578182fd5b843567ffffffffffffffff80821115614710578384fd5b61471c888389016144ca565b90965094506020870135915080821115614734578384fd5b50614741878288016144ca565b95989497509550505050565b60006020828403121561475e578081fd5b8135600281106122cc578182fd5b60006020828403121561477d578081fd5b5035919050565b600060c08284031215614795578081fd5b61479f60c06150f0565b82358152602083013560208201526040830135604082015260608301356147c58161534a565b60608201526080838101359082015260a08301356147e28161534a565b60a08201529392505050565b60008060008060006101808688031215614806578283fd5b853567ffffffffffffffff8082111561481d578485fd5b9087019060a0828a031215614830578485fd5b61483a60a06150f0565b823582811115614848578687fd5b6148548b828601614513565b825250602083013582811115614868578687fd5b6148748b828601614513565b6020830152506040830135915061488a8261534a565b81604082015261489c606084016144bf565b60608201526148ad608084016144bf565b60808201528097505050506148c5876020880161457e565b93506148d360e087016144bf565b92506148e261010087016144bf565b91506148f2876101208801614595565b90509295509295909350565b60006060828403121561490f578081fd5b6124768383614595565b60006020828403121561492a578081fd5b5051919050565b60008060408385031215614943578182fd5b8235915060208301356149558161534a565b809150509250929050565b60008060408385031215614972578182fd5b505080516020909101519092909150565b600060208284031215614994578081fd5b81356122cc81615362565b6000602082840312156149b0578081fd5b81516122cc81615362565b6001600160a01b0391909116815260200190565b6001600160a01b039687168152949095166020850152911515604084015260ff166060830152608082015260a081019190915260c00190565b6001600160a01b039384168152919092166020820152604081019190915260600190565b6001600160a01b03929092168252602082015260400190565b6001600160a01b039390931683526020830191909152604082015260600190565b6001600160a01b0394909416845260208401929092526040830152606082015260800190565b901515815260200190565b6001600160a01b0392831681529116602082015260400190565b6001600160a01b039485168152928416602084015292166040820152606081019190915260800190565b6001600160a01b0393909316835260208301919091521515604082015260600190565b90815260200190565b6000602080835283518082850152825b81811015614b3357858101830151858201604001528201614b17565b81811115614b445783604083870101525b50601f01601f1916929092016040019392505050565b6020808252600190820152604360f81b604082015260600190565b60208082526006908201526514105554d15160d21b604082015260600190565b60208082526013908201527f496e76616c696420626f72726f774c696d697400000000000000000000000000604082015260600190565b6020808252600490820152634956574360e01b604082015260600190565b60208082526002908201526124a160f11b604082015260600190565b60208082526003908201526249565760e81b604082015260600190565b6020808252600190820152602160f91b604082015260600190565b6020808252601c908201527f45786365656473204465706f73697420426f72726f77204c696d697400000000604082015260600190565b60208082526003908201526224a22160e91b604082015260600190565b6020808252600190820152604560f81b604082015260600190565b6020808252601d908201527f4578636565647320546f74616c20506169722044656274204c696d6974000000604082015260600190565b60208082526012908201527f4e4f545f4c49515549444154455f53454c460000000000000000000000000000604082015260600190565b60208082526015908201527f496e76616c696420636f6c6c617465724c696d69740000000000000000000000604082015260600190565b60208082526004908201526324ab24a960e11b604082015260600190565b60208082526003908201526204956560ec1b604082015260600190565b6020808252602e908201527f496e697469616c697a61626c653a20636f6e747261637420697320616c72656160408201527f647920696e697469616c697a6564000000000000000000000000000000000000606082015260800190565b6020808252600190820152601360fa1b604082015260600190565b60208082526003908201526224a72b60e91b604082015260600190565b6020808252600e908201527f4d4f52455f5448414e5f4f574544000000000000000000000000000000000000604082015260600190565b6020808252600e908201527f494e565f444542545f4f574e4552000000000000000000000000000000000000604082015260600190565b602080825260069082015265494e565f544f60d01b604082015260600190565b6020808252600390820152624f5f4760e81b604082015260600190565b6020808252818101527f45786365656473204465706f73697420436f6c6c61746572616c204c696d6974604082015260600190565b60208082526004908201526324a7262360e11b604082015260600190565b6020808252600f908201527f455843454544535f414c4c4f5745440000000000000000000000000000000000604082015260600190565b6020808252601b908201527f424f52524f57494e475f4d4f52455f5448414e5f414c4c4f5745440000000000604082015260600190565b602080825260029082015261495760f01b604082015260600190565b6020808252600f908201527f494e565f42454e45464943494152590000000000000000000000000000000000604082015260600190565b60208082526012908201527f4e4f545f454e4f5547485f42414c414e43450000000000000000000000000000604082015260600190565b6020808252600190820152602360f91b604082015260600190565b60208082526003908201526249414360e81b604082015260600190565b9182526001600160a01b0316602082015260400190565b9283526020830191909152604082015260600190565b93845260208401929092526040830152606082015260800190565b60ff929092168252602082015260400190565b6000808335601e198436030181126150c1578283fd5b83018035915067ffffffffffffffff8211156150db578283fd5b60200191503681900382131561450c57600080fd5b604051601f8201601f1916810167ffffffffffffffff8111828210171561511957615119615334565b604052919050565b600082198211156151345761513461531e565b500190565b60008261515457634e487b7160e01b81526012600452602481fd5b500490565b80825b600180861161516b5750615196565b81870482111561517d5761517d61531e565b8086161561518a57918102915b9490941c93800261515c565b94509492505050565b600061247660001960ff8516846000826151bb575060016122cc565b816151c8575060006122cc565b81600181146151de57600281146151e857615215565b60019150506122cc565b60ff8411156151f9576151f961531e565b6001841b91508482111561520f5761520f61531e565b506122cc565b5060208310610133831016604e8410600b8410161715615248575081810a838111156152435761524361531e565b6122cc565b6152558484846001615159565b8086048211156152675761526761531e565b02949350505050565b600081600019048311821515161561528a5761528a61531e565b500290565b6000828210156152a1576152a161531e565b500390565b600060ff821660ff8416808210156152c0576152c061531e565b90039392505050565b6002810460018216806152dd57607f821691505b6020821081141561458f57634e487b7160e01b600052602260045260246000fd5b600060ff821660ff8114156153155761531561531e565b60010192915050565b634e487b7160e01b600052601160045260246000fd5b634e487b7160e01b600052604160045260246000fd5b6001600160a01b038116811461535f57600080fd5b50565b60ff8116811461535f57600080fdfea2646970667358221220b53095d9f225229d326f914e08ed219a4621ebe5190e240efe17118059c323a364736f6c63430008010033",
  "devdoc": {
    "author": "@samparsky",
    "kind": "dev",
    "methods": {
      "accrueInterest()": {
        "details": "This calculates interest accrued from the last checkpointed block up to the current block and writes new checkpoint to storage."
      },
      "borrow(uint256,address)": {
        "details": "we use normalized amounts to calculate the",
        "params": {
          "_amountToBorrow": "is the amount of the borrow asset tokens the user wants to borrow",
          "_debtOwner": "this should be the msg.sender or address that delegates credit to the msg.sender"
        }
      },
      "borrowBalanceCurrent(address)": {
        "params": {
          "_account": "The address whose balance should be calculated after updating borrowIndex"
        },
        "returns": {
          "_0": "The calculated balance*"
        }
      },
      "borrowRatePerBlock()": {
        "returns": {
          "_0": "The borrow interest rate per block, scaled by 1e18"
        }
      },
      "calcBorrowLimit(uint256)": {
        "params": {
          "_collateralValueInUSD": "is the USD value of the users collateral"
        }
      },
      "calcCollateralRequired(uint256)": {
        "params": {
          "_borrowAmount": "is the input borrow amount"
        }
      },
      "calculateLiquidationFee(uint256)": {
        "params": {
          "_amount": "is a uint representing the full amount earned as interest"
        }
      },
      "collateralOfAccount(address)": {
        "params": {
          "_account": "is the address of the account being looked up"
        }
      },
      "depositBorrowAsset(address,uint256)": {
        "details": "the user should initially have deposited in the vault transfer appropriate amount of underlying from msg.sender to the LendingPair",
        "params": {
          "_amount": "is the amount of underlying borrow asset being deposited",
          "_tokenRecipient": "whom to credit the wrapped tokens"
        }
      },
      "depositCollateral(address,uint256)": {
        "params": {
          "_amount": "is the amount of underlying collateral asset being deposited",
          "_tokenRecipient": "address to credit the wrapped collateral shares"
        }
      },
      "exchangeRateCurrent()": {
        "returns": {
          "_0": "Calculated exchange rate scaled by 1e18"
        }
      },
      "getBorrowLimit(address)": {
        "details": "this calculation uses current values for calculations",
        "params": {
          "_account": "is the input account address"
        }
      },
      "getBorrowLimitInUSD(address)": {
        "details": "this calculation uses current values for calculations",
        "params": {
          "_account": "is the input account address"
        }
      },
      "getMaxWithdrawAllowed(address)": {
        "details": "this function runs calculations to accrue interest for an up to date amount",
        "params": {
          "_account": "is the account being checked"
        }
      },
      "getPriceOfBorrowAsset()": {
        "details": "returns price of collateral in usd"
      },
      "getPriceOfCollateral()": {
        "details": "returns price of collateral in usd"
      },
      "getPriceOfToken(address,uint256)": {
        "params": {
          "_amount": "this is the amount of tokens",
          "_token": "this is the price of the token"
        }
      },
      "getTotalAvailableCollateralValue(address)": {
        "details": "this function runs calculations to accrue interest for an up to date amount",
        "params": {
          "_account": "is the address whos collateral is being retreived"
        }
      },
      "getTotalAvailableCollateralValueInUSD(address)": {
        "details": "this function runs calculations to accrue interest for an up to date amount",
        "params": {
          "_account": "is the address whos collateral is being retreived"
        }
      },
      "initialize((string,string,address,address,address),(uint256,uint256,uint256,address,uint256,address),address,address,(uint256,uint256,uint256))": {
        "params": {
          "_wrappedCollateralAsset": "wrapped token minted when depositing collateral asset",
          "pairVars": "lendingPair vars including name, symbol, asset, collateralAsset, guardian"
        }
      },
      "pause(uint8)": {
        "details": "pause actions in the lending pair"
      },
      "redeem(address,uint256)": {
        "params": {
          "_amount": "of wrapper token to redeem",
          "_to": "Address to send the underlying tokens to"
        }
      },
      "repay(uint256,address)": {
        "params": {
          "_beneficiary": "address to repay loan position",
          "_repayAmount": "The amount of borrow asset to repay represented in underlying"
        }
      },
      "supplyRatePerBlock()": {
        "returns": {
          "_0": "The supply interest rate per block, scaled by 1e18"
        }
      },
      "unpause(uint8)": {
        "details": "unpause actions in lending pair"
      },
      "updateRiskConfig((uint256,uint256,uint256))": {
        "details": "update risk configuration"
      },
      "withdrawFees(uint256)": {
        "details": "this function can be called by anyone",
        "params": {
          "_toWithdraw": "is the amount of a reservers being withdrawn in tokens"
        }
      }
    },
    "stateVariables": {
      "PRECISION": {
        "details": "liquidation fee precision"
      },
      "USE_RETURN_INPUT": {
        "details": "return input"
      },
      "VERSION": {
        "details": "version"
      },
      "_borrowAssetUnderlyingDecimal": {
        "details": "borrow asset underlying decimal"
      },
      "_collateralAssetUnderlyingDecimal": {
        "details": "collateral asset underlying decimal"
      },
      "accrualBlockNumber": {
        "details": "Block number that interest was last accrued at"
      },
      "borrowIndex": {
        "details": "Accumulator of the total earned interest rate since the opening of the market"
      },
      "collateralFactor": {
        "details": "The amount of collateral required for a borrow position in 1e18"
      },
      "initialExchangeRateMantissa": {
        "details": "initialExchangeRateMantissa Initial exchange rate used when minting"
      },
      "name": {
        "details": "lending pair name"
      },
      "reserveFactorMantissa": {
        "details": "Fraction of interest currently set aside for reserves"
      },
      "riskConfig": {
        "details": "risk configuration for limit of deposit & debt"
      },
      "symbol": {
        "details": "lending pair symbol"
      }
    },
    "title": "LendingPair",
    "version": 1
  },
  "userdoc": {
    "events": {
      "Deposit(address,address,address,address,uint256,uint256,uint256)": {
        "notice": "Emitted on deposit"
      },
      "Liquidate(address,address,address,uint256,address)": {
        "notice": "Emitted on liquidation"
      },
      "Redeem(address,address,address,address,uint256,uint256)": {
        "notice": "Emitted on Redeem"
      },
      "Repay(address,address,address,address,uint256)": {
        "notice": "Emitted on repay"
      },
      "UpdateRiskConfiguration(uint256,uint256,uint256,uint256)": {
        "notice": "Emitted when update riskConfiguration"
      }
    },
    "kind": "user",
    "methods": {
      "accountInterestIndex(address)": {
        "notice": "Mapping of account addresses to their interest interest index"
      },
      "accrueInterest()": {
        "notice": "Applies accrued interest to total borrows and reserves"
      },
      "asset()": {
        "notice": "The pair borrow asset"
      },
      "borrowBalanceCurrent(address)": {
        "notice": "Accrue interest to updated borrowIndex and then calculate account's borrow balance  using the updated borrowIndex"
      },
      "borrowRatePerBlock()": {
        "notice": "Returns the current per-block borrow interest rate for this cToken"
      },
      "calcBorrowLimit(uint256)": {
        "notice": "calcBorrowLimit is used to calculate the borrow limit for an account based on the input value of their collateral"
      },
      "calcCollateralRequired(uint256)": {
        "notice": "calcCollateralRequired returns the amount of collateral needed for an input borrow value"
      },
      "calculateLiquidationFee(uint256)": {
        "notice": "calculateFee is used to calculate the fee earned"
      },
      "collateralAsset()": {
        "notice": "The pair collateral asset"
      },
      "collateralOfAccount(address)": {
        "notice": "collateralOfAccount is a view function to retreive an accounts collateral"
      },
      "debtToken()": {
        "notice": "The wrapper token for debt"
      },
      "depositCollateral(address,uint256)": {
        "notice": "depositCollateral allows a user to deposit underlying collateral from vault"
      },
      "exchangeRateCurrent()": {
        "notice": "Accrue interest then return the up-to-date exchange rate"
      },
      "feeWithdrawalAddr()": {
        "notice": "The address to withdraw fees to"
      },
      "getBorrowLimit(address)": {
        "notice": "getBorrowLimit returns the borrow limit for an account"
      },
      "getBorrowLimitInUSD(address)": {
        "notice": "getBorrowLimit returns the borrow limit for an account"
      },
      "getCashPrior()": {
        "notice": "getCashPrior is a view funcion that returns the balance of all held borrow asset"
      },
      "getMaxWithdrawAllowed(address)": {
        "notice": "Figures out how much of a given collateral an account is allowed to withdraw"
      },
      "getPriceOfToken(address,uint256)": {
        "notice": "getPriceOfToken returns price of token in usd"
      },
      "getTotalAvailableCollateralValue(address)": {
        "notice": "getTotalAvailableCollateralValue returns the total availible collaeral value for an account"
      },
      "getTotalAvailableCollateralValueInUSD(address)": {
        "notice": "getTotalAvailableCollateralValueInUSD returns the total availible collaeral value for an account in USD"
      },
      "guardian()": {
        "notice": "the address that can pause borrow & deposits of assets"
      },
      "initialize((string,string,address,address,address),(uint256,uint256,uint256,address,uint256,address),address,address,(uint256,uint256,uint256))": {
        "notice": "Initialize function"
      },
      "interestRate()": {
        "notice": "The interest rate model for the borrow asset"
      },
      "liquidationFee()": {
        "notice": "liquidation fee in 1e18"
      },
      "oracle()": {
        "notice": "The price oracle for the assets"
      },
      "pauseStatus(uint8)": {
        "notice": "Mapping of action to pause status"
      },
      "protocolLiquidationFeeShare()": {
        "notice": "protocol liquidation fee percent in 1e18"
      },
      "redeem(address,uint256)": {
        "notice": "Allows a user to redeem their Wrapper Token for the appropriate amount of underlying asset"
      },
      "repay(uint256,address)": {
        "notice": "Sender repays their own borrow"
      },
      "supplyRatePerBlock()": {
        "notice": "Returns the current per-block supply interest rate for this cToken"
      },
      "totalBorrows()": {
        "notice": "Total amount of outstanding borrows of the asset in this market"
      },
      "totalReserves()": {
        "notice": "Total amount of reserves of the underlying held in this market"
      },
      "vault()": {
        "notice": "where the tokens are stored"
      },
      "withdrawFees(uint256)": {
        "notice": "withdrawFees to the feeWithdrawalAddr"
      },
      "wrappedCollateralAsset()": {
        "notice": "The wrapper token for the collateral asset"
      },
      "wrapperBorrowedAsset()": {
        "notice": "The wrapper token for the borrow asset"
      }
    },
    "version": 1
  },
  "storageLayout": {
    "storage": [
      {
        "astId": 15252,
        "contract": "contracts/LendingPair.sol:LendingPair",
        "label": "_initialized",
        "offset": 0,
        "slot": "0",
        "type": "t_bool"
      },
      {
        "astId": 15255,
        "contract": "contracts/LendingPair.sol:LendingPair",
        "label": "_initializing",
        "offset": 1,
        "slot": "0",
        "type": "t_bool"
      },
      {
        "astId": 2942,
        "contract": "contracts/LendingPair.sol:LendingPair",
        "label": "riskConfig",
        "offset": 0,
        "slot": "1",
        "type": "t_struct(RiskConfiguration)2211_storage"
      },
      {
        "astId": 2945,
        "contract": "contracts/LendingPair.sol:LendingPair",
        "label": "name",
        "offset": 0,
        "slot": "4",
        "type": "t_string_storage"
      },
      {
        "astId": 2948,
        "contract": "contracts/LendingPair.sol:LendingPair",
        "label": "symbol",
        "offset": 0,
        "slot": "5",
        "type": "t_string_storage"
      },
      {
        "astId": 2968,
        "contract": "contracts/LendingPair.sol:LendingPair",
        "label": "interestRate",
        "offset": 0,
        "slot": "6",
        "type": "t_contract(IInterestRateModel)9865"
      },
      {
        "astId": 2979,
        "contract": "contracts/LendingPair.sol:LendingPair",
        "label": "_borrowAssetUnderlyingDecimal",
        "offset": 20,
        "slot": "6",
        "type": "t_uint8"
      },
      {
        "astId": 2982,
        "contract": "contracts/LendingPair.sol:LendingPair",
        "label": "_collateralAssetUnderlyingDecimal",
        "offset": 21,
        "slot": "6",
        "type": "t_uint8"
      },
      {
        "astId": 2985,
        "contract": "contracts/LendingPair.sol:LendingPair",
        "label": "initialExchangeRateMantissa",
        "offset": 0,
        "slot": "7",
        "type": "t_uint256"
      },
      {
        "astId": 2988,
        "contract": "contracts/LendingPair.sol:LendingPair",
        "label": "reserveFactorMantissa",
        "offset": 0,
        "slot": "8",
        "type": "t_uint256"
      },
      {
        "astId": 2991,
        "contract": "contracts/LendingPair.sol:LendingPair",
        "label": "accrualBlockNumber",
        "offset": 0,
        "slot": "9",
        "type": "t_uint256"
      },
      {
        "astId": 2995,
        "contract": "contracts/LendingPair.sol:LendingPair",
        "label": "borrowIndex",
        "offset": 0,
        "slot": "10",
        "type": "t_uint256"
      },
      {
        "astId": 2999,
        "contract": "contracts/LendingPair.sol:LendingPair",
        "label": "totalReserves",
        "offset": 0,
        "slot": "11",
        "type": "t_uint256"
      },
      {
        "astId": 3002,
        "contract": "contracts/LendingPair.sol:LendingPair",
        "label": "collateralFactor",
        "offset": 0,
        "slot": "12",
        "type": "t_uint256"
      },
      {
        "astId": 3005,
        "contract": "contracts/LendingPair.sol:LendingPair",
        "label": "liquidationFee",
        "offset": 0,
        "slot": "13",
        "type": "t_uint256"
      },
      {
        "astId": 3012,
        "contract": "contracts/LendingPair.sol:LendingPair",
        "label": "guardian",
        "offset": 0,
        "slot": "14",
        "type": "t_address"
      },
      {
        "astId": 3017,
        "contract": "contracts/LendingPair.sol:LendingPair",
        "label": "asset",
        "offset": 0,
        "slot": "15",
        "type": "t_contract(IERC20)959"
      },
      {
        "astId": 3022,
        "contract": "contracts/LendingPair.sol:LendingPair",
        "label": "collateralAsset",
        "offset": 0,
        "slot": "16",
        "type": "t_contract(IERC20)959"
      },
      {
        "astId": 3027,
        "contract": "contracts/LendingPair.sol:LendingPair",
        "label": "wrapperBorrowedAsset",
        "offset": 0,
        "slot": "17",
        "type": "t_contract(IBSWrapperToken)9682"
      },
      {
        "astId": 3032,
        "contract": "contracts/LendingPair.sol:LendingPair",
        "label": "wrappedCollateralAsset",
        "offset": 0,
        "slot": "18",
        "type": "t_contract(IBSWrapperToken)9682"
      },
      {
        "astId": 3037,
        "contract": "contracts/LendingPair.sol:LendingPair",
        "label": "debtToken",
        "offset": 0,
        "slot": "19",
        "type": "t_contract(IDebtToken)9780"
      },
      {
        "astId": 3043,
        "contract": "contracts/LendingPair.sol:LendingPair",
        "label": "accountInterestIndex",
        "offset": 0,
        "slot": "20",
        "type": "t_mapping(t_address,t_uint256)"
      },
      {
        "astId": 3049,
        "contract": "contracts/LendingPair.sol:LendingPair",
        "label": "pauseStatus",
        "offset": 0,
        "slot": "21",
        "type": "t_mapping(t_enum(Actions)2938,t_bool)"
      }
    ],
    "types": {
      "t_address": {
        "encoding": "inplace",
        "label": "address",
        "numberOfBytes": "20"
      },
      "t_bool": {
        "encoding": "inplace",
        "label": "bool",
        "numberOfBytes": "1"
      },
      "t_contract(IBSWrapperToken)9682": {
        "encoding": "inplace",
        "label": "contract IBSWrapperToken",
        "numberOfBytes": "20"
      },
      "t_contract(IDebtToken)9780": {
        "encoding": "inplace",
        "label": "contract IDebtToken",
        "numberOfBytes": "20"
      },
      "t_contract(IERC20)959": {
        "encoding": "inplace",
        "label": "contract IERC20",
        "numberOfBytes": "20"
      },
      "t_contract(IInterestRateModel)9865": {
        "encoding": "inplace",
        "label": "contract IInterestRateModel",
        "numberOfBytes": "20"
      },
      "t_enum(Actions)2938": {
        "encoding": "inplace",
        "label": "enum LendingPair.Actions",
        "numberOfBytes": "1"
      },
      "t_mapping(t_address,t_uint256)": {
        "encoding": "mapping",
        "key": "t_address",
        "label": "mapping(address => uint256)",
        "numberOfBytes": "32",
        "value": "t_uint256"
      },
      "t_mapping(t_enum(Actions)2938,t_bool)": {
        "encoding": "mapping",
        "key": "t_enum(Actions)2938",
        "label": "mapping(enum LendingPair.Actions => bool)",
        "numberOfBytes": "32",
        "value": "t_bool"
      },
      "t_string_storage": {
        "encoding": "bytes",
        "label": "string",
        "numberOfBytes": "32"
      },
      "t_struct(RiskConfiguration)2211_storage": {
        "encoding": "inplace",
        "label": "struct DataTypes.RiskConfiguration",
        "members": [
          {
            "astId": 2206,
            "contract": "contracts/LendingPair.sol:LendingPair",
            "label": "depositCollateralLimit",
            "offset": 0,
            "slot": "0",
            "type": "t_uint256"
          },
          {
            "astId": 2208,
            "contract": "contracts/LendingPair.sol:LendingPair",
            "label": "depositBorrowLimit",
            "offset": 0,
            "slot": "1",
            "type": "t_uint256"
          },
          {
            "astId": 2210,
            "contract": "contracts/LendingPair.sol:LendingPair",
            "label": "totalPairDebtLimit",
            "offset": 0,
            "slot": "2",
            "type": "t_uint256"
          }
        ],
        "numberOfBytes": "96"
      },
      "t_uint256": {
        "encoding": "inplace",
        "label": "uint256",
        "numberOfBytes": "32"
      },
      "t_uint8": {
        "encoding": "inplace",
        "label": "uint8",
        "numberOfBytes": "1"
      }
    }
  }
}