{
  "address": "0x50F8d9545D7b8396Fd70dA8D3AD8198d6aE4Ee42",
  "abi": [
    {
      "inputs": [
        {
          "internalType": "address",
          "name": "_owner",
          "type": "address"
        },
        {
          "internalType": "address",
          "name": "_pairLogic",
          "type": "address"
        },
        {
          "internalType": "address",
          "name": "_collateralWrapperLogic",
          "type": "address"
        },
        {
          "internalType": "address",
          "name": "_debtTokenLogic",
          "type": "address"
        },
        {
          "internalType": "address",
          "name": "_borrowAssetWrapperLogic",
          "type": "address"
        },
        {
          "internalType": "address",
          "name": "_rewardDistributionManager",
          "type": "address"
        }
      ],
      "stateMutability": "nonpayable",
      "type": "constructor"
    },
    {
      "anonymous": false,
      "inputs": [
        {
          "indexed": false,
          "internalType": "address",
          "name": "pairLogic",
          "type": "address"
        }
      ],
      "name": "LogicContractUpdated",
      "type": "event"
    },
    {
      "anonymous": false,
      "inputs": [
        {
          "indexed": false,
          "internalType": "address",
          "name": "ir",
          "type": "address"
        },
        {
          "indexed": false,
          "internalType": "uint256",
          "name": "timestamp",
          "type": "uint256"
        }
      ],
      "name": "NewInterestRateModel",
      "type": "event"
    },
    {
      "anonymous": false,
      "inputs": [
        {
          "indexed": false,
          "internalType": "address",
          "name": "pair",
          "type": "address"
        },
        {
          "indexed": false,
          "internalType": "uint256",
          "name": "created",
          "type": "uint256"
        }
      ],
      "name": "NewLendingPair",
      "type": "event"
    },
    {
      "anonymous": false,
      "inputs": [
        {
          "indexed": false,
          "internalType": "address",
          "name": "account",
          "type": "address"
        }
      ],
      "name": "Paused",
      "type": "event"
    },
    {
      "anonymous": false,
      "inputs": [
        {
          "indexed": false,
          "internalType": "address",
          "name": "account",
          "type": "address"
        }
      ],
      "name": "Unpaused",
      "type": "event"
    },
    {
      "inputs": [
        {
          "internalType": "uint256",
          "name": "",
          "type": "uint256"
        }
      ],
      "name": "allPairs",
      "outputs": [
        {
          "internalType": "address",
          "name": "",
          "type": "address"
        }
      ],
      "stateMutability": "view",
      "type": "function"
    },
    {
      "inputs": [],
      "name": "borrowAssetWrapperImplementation",
      "outputs": [
        {
          "internalType": "address",
          "name": "",
          "type": "address"
        }
      ],
      "stateMutability": "view",
      "type": "function"
    },
    {
      "inputs": [],
      "name": "collateralWrapperImplementation",
      "outputs": [
        {
          "internalType": "address",
          "name": "",
          "type": "address"
        }
      ],
      "stateMutability": "view",
      "type": "function"
    },
    {
      "inputs": [
        {
          "components": [
            {
              "internalType": "uint256",
              "name": "baseRatePerYear",
              "type": "uint256"
            },
            {
              "internalType": "uint256",
              "name": "multiplierPerYear",
              "type": "uint256"
            },
            {
              "internalType": "uint256",
              "name": "jumpMultiplierPerYear",
              "type": "uint256"
            },
            {
              "internalType": "uint256",
              "name": "optimal",
              "type": "uint256"
            },
            {
              "internalType": "uint256",
              "name": "borrowRateMaxMantissa",
              "type": "uint256"
            },
            {
              "internalType": "uint256",
              "name": "blocksPerYear",
              "type": "uint256"
            }
          ],
          "internalType": "struct LendingPairFactory.NewLendingVaultIRLocalVars",
          "name": "_interestRateVars",
          "type": "tuple"
        },
        {
          "internalType": "address",
          "name": "_team",
          "type": "address"
        }
      ],
      "name": "createIR",
      "outputs": [
        {
          "internalType": "address",
          "name": "ir",
          "type": "address"
        }
      ],
      "stateMutability": "nonpayable",
      "type": "function"
    },
    {
      "inputs": [
        {
          "components": [
            {
              "internalType": "string",
              "name": "name",
              "type": "string"
            },
            {
              "internalType": "string",
              "name": "symbol",
              "type": "string"
            },
            {
              "internalType": "contract IERC20",
              "name": "asset",
              "type": "address"
            },
            {
              "internalType": "contract IERC20",
              "name": "collateralAsset",
              "type": "address"
            },
            {
              "internalType": "address",
              "name": "guardian",
              "type": "address"
            }
          ],
          "internalType": "struct DataTypes.LendingPairVars",
          "name": "_pairVars",
          "type": "tuple"
        },
        {
          "components": [
            {
              "internalType": "uint256",
              "name": "depositCollateralLimit",
              "type": "uint256"
            },
            {
              "internalType": "uint256",
              "name": "depositBorrowLimit",
              "type": "uint256"
            },
            {
              "internalType": "uint256",
              "name": "totalPairDebtLimit",
              "type": "uint256"
            }
          ],
          "internalType": "struct DataTypes.RiskConfiguration",
          "name": "_riskConfig",
          "type": "tuple"
        },
        {
          "components": [
            {
              "internalType": "contract IERC20",
              "name": "borrowAsset",
              "type": "address"
            },
            {
              "internalType": "uint256",
              "name": "initialExchangeRateMantissa",
              "type": "uint256"
            },
            {
              "internalType": "uint256",
              "name": "reserveFactorMantissa",
              "type": "uint256"
            },
            {
              "internalType": "uint256",
              "name": "collateralFactor",
              "type": "uint256"
            },
            {
              "internalType": "uint256",
              "name": "liquidationFee",
              "type": "uint256"
            },
            {
              "internalType": "contract IInterestRateModel",
              "name": "interestRateModel",
              "type": "address"
            }
          ],
          "internalType": "struct LendingPairFactory.BorrowLocalVars",
          "name": "_borrowVars",
          "type": "tuple"
        }
      ],
      "name": "createLendingPairWithProxy",
      "outputs": [
        {
          "internalType": "address",
          "name": "newLendingPair",
          "type": "address"
        }
      ],
      "stateMutability": "nonpayable",
      "type": "function"
    },
    {
      "inputs": [],
      "name": "debtTokenImplementation",
      "outputs": [
        {
          "internalType": "address",
          "name": "",
          "type": "address"
        }
      ],
      "stateMutability": "view",
      "type": "function"
    },
    {
      "inputs": [
        {
          "internalType": "address",
          "name": "ir",
          "type": "address"
        }
      ],
      "name": "disableIR",
      "outputs": [],
      "stateMutability": "nonpayable",
      "type": "function"
    },
    {
      "inputs": [],
      "name": "lendingPairImplementation",
      "outputs": [
        {
          "internalType": "address",
          "name": "",
          "type": "address"
        }
      ],
      "stateMutability": "view",
      "type": "function"
    },
    {
      "inputs": [],
      "name": "owner",
      "outputs": [
        {
          "internalType": "address",
          "name": "",
          "type": "address"
        }
      ],
      "stateMutability": "view",
      "type": "function"
    },
    {
      "inputs": [],
      "name": "pause",
      "outputs": [],
      "stateMutability": "nonpayable",
      "type": "function"
    },
    {
      "inputs": [],
      "name": "paused",
      "outputs": [
        {
          "internalType": "bool",
          "name": "",
          "type": "bool"
        }
      ],
      "stateMutability": "view",
      "type": "function"
    },
    {
      "inputs": [],
      "name": "rewardDistributionManager",
      "outputs": [
        {
          "internalType": "address",
          "name": "",
          "type": "address"
        }
      ],
      "stateMutability": "view",
      "type": "function"
    },
    {
      "inputs": [],
      "name": "unpause",
      "outputs": [],
      "stateMutability": "nonpayable",
      "type": "function"
    },
    {
      "inputs": [
        {
          "internalType": "address",
          "name": "_newLogicContract",
          "type": "address"
        }
      ],
      "name": "updateBorrowAssetWrapperImpl",
      "outputs": [],
      "stateMutability": "nonpayable",
      "type": "function"
    },
    {
      "inputs": [
        {
          "internalType": "address",
          "name": "_newLogicContract",
          "type": "address"
        }
      ],
      "name": "updateCollateralWrapperImpl",
      "outputs": [],
      "stateMutability": "nonpayable",
      "type": "function"
    },
    {
      "inputs": [
        {
          "internalType": "address",
          "name": "_newLogicContract",
          "type": "address"
        }
      ],
      "name": "updateDebtTokenImpl",
      "outputs": [],
      "stateMutability": "nonpayable",
      "type": "function"
    },
    {
      "inputs": [
        {
          "internalType": "address",
          "name": "_newLogicContract",
          "type": "address"
        }
      ],
      "name": "updatePairImpl",
      "outputs": [],
      "stateMutability": "nonpayable",
      "type": "function"
    },
    {
      "inputs": [
        {
          "internalType": "address",
          "name": "_newManager",
          "type": "address"
        }
      ],
      "name": "updateRewardManager",
      "outputs": [],
      "stateMutability": "nonpayable",
      "type": "function"
    },
    {
      "inputs": [
        {
          "internalType": "address",
          "name": "",
          "type": "address"
        }
      ],
      "name": "validInterestRateModels",
      "outputs": [
        {
          "internalType": "bool",
          "name": "",
          "type": "bool"
        }
      ],
      "stateMutability": "view",
      "type": "function"
    }
  ],
  "transactionHash": "0x5c1d8335c6ee56171029e2b703c706f2084ea5e25cdcc968407dab3f43a42ea4",
  "args": [
    "0xF5B35b607377850696cAF2ac4841D61E7d825a3b",
    "0x8EBA2d656360267E466EE5f989Ec9d42bd4d2570",
    "0xfa0cd591e40520261745E633391715EdcBa1578A",
    "0x5874fE84A1A76F3bd5BcE81336E6120201c0481d",
    "0xCb34b5DF42C1aa4a3AA942006fa1833b3ef0531d",
    "0x1974b6f0bd084651e9a3437B7Aa7109C330fbD78"
  ],
  "solcInputHash": "195f5b343e6204c511d7120296e1ddd4",
  "bytecode": "0x60a06040523480156200001157600080fd5b5060405162002774380380620027748339810160408190526200003491620001da565b6000805460ff191690556001600160a01b038616620000705760405162461bcd60e51b8152600401620000679062000279565b60405180910390fd5b6001600160a01b038516620000995760405162461bcd60e51b815260040162000067906200025a565b6001600160a01b038416620000c25760405162461bcd60e51b8152600401620000679062000298565b6001600160a01b038316620000eb5760405162461bcd60e51b81526004016200006790620002b7565b6001600160a01b038216620001145760405162461bcd60e51b81526004016200006790620002f5565b6001600160a01b0381166200013d5760405162461bcd60e51b81526004016200006790620002d6565b60609590951b6001600160601b03191660805260008054610100600160a81b0319166101006001600160a01b0396871602179055600180546001600160a01b031990811694861694909417905560028054841692851692909217909155600380548316918416919091179055600480549091169190921617905562000314565b80516001600160a01b0381168114620001d557600080fd5b919050565b60008060008060008060c08789031215620001f3578182fd5b620001fe87620001bd565b95506200020e60208801620001bd565b94506200021e60408801620001bd565b93506200022e60608801620001bd565b92506200023e60808801620001bd565b91506200024e60a08801620001bd565b90509295509295509295565b6020808252600590820152641a5b9d97db60da1b604082015260600190565b602080825260059082015264696e765f6f60d81b604082015260600190565b602080825260059082015264696e765f6360d81b604082015260600190565b6020808252600590820152641a5b9d97d960da1b604082015260600190565b60208082526005908201526434b73b2fb960d91b604082015260600190565b60208082526005908201526434b73b2fb160d91b604082015260600190565b60805160601c61240262000372600039600081816102b5015281816107830152818161086f015281816108fc015281816109480152818161097501528181610a4501528181610b1801528181610bd90152610c8701526124026000f3fe60806040523480156200001157600080fd5b50600436106200013c5760003560e01c80637fe4964111620000bd57806397872467116200007b578063978724671462000237578063a01e047c146200024e578063b7e8774f1462000265578063dc1bde23146200027c578063f59c79dc1462000293576200013c565b80637fe4964114620001f85780638456cb5914620002025780638da5cb5b146200020c5780638f8547f0146200021657806396807c84146200022d576200013c565b80631e3dd18b116200010b5780631e3dd18b14620001aa5780633f4ba83a14620001c15780633f9daecc14620001cb5780635c975abb14620001d5578063775c751314620001ee576200013c565b8063050eb2eb14620001415780631c2a7d6f146200015a5780631d3b357414620001895780631e171b0c1462000193575b600080fd5b620001586200015236600462001180565b620002aa565b005b620001716200016b366004620011a6565b6200037f565b6040516200018091906200142f565b60405180910390f35b6200017162000764565b62000158620001a436600462001180565b62000778565b62000171620001bb366004620012e3565b62000839565b6200015862000864565b62000171620008bb565b620001df620008ca565b604051620001809190620014b3565b62000171620008d3565b62000171620008e2565b62000158620008f1565b6200017162000946565b620001586200022736600462001180565b6200096a565b6200017162000a2b565b620001586200024836600462001180565b62000a3a565b620001586200025f36600462001180565b62000b0d565b620001586200027636600462001180565b62000bce565b620001716200028d366004620012a7565b62000c7a565b620001df620002a436600462001180565b62000db5565b336001600160a01b037f00000000000000000000000000000000000000000000000000000000000000001614620002fe5760405162461bcd60e51b8152600401620002f5906200163f565b60405180910390fd5b6001600160a01b038116620003275760405162461bcd60e51b8152600401620002f59062001601565b600480546001600160a01b0319166001600160a01b0383161790556040517f8df748e91aa1ee28349ed8a7ff354a3717a778db8d9fbefd53bb60f5ac649e4f90620003749083906200142f565b60405180910390a150565b60006200038b620008ca565b15620003ab5760405162461bcd60e51b8152600401620002f59062001585565b60808401516001600160a01b0316620003d85760405162461bcd60e51b8152600401620002f59062001620565b60608401516001600160a01b0316620004055760405162461bcd60e51b8152600401620002f59062001601565b600062000416602084018462001180565b6001600160a01b03161415620004405760405162461bcd60e51b8152600401620002f5906200152f565b600660006200045660c0850160a0860162001180565b6001600160a01b0316815260208101919091526040016000205460ff161515600114620004975760405162461bcd60e51b8152600401620002f59062001663565b620004a162001078565b8451602080870151600554604051600094620004c2949093929101620014be565b60408051808303601f190181529190528051602090910120600054909150620004fa9061010090046001600160a01b03168262000dca565b60035490935062000541906001600160a01b0316846200051e602088018862001180565b89516040805180820190915260038152622127a960e91b60208201528662000e5a565b6001600160a01b0390811683526001546060880151885160408051808201909152600381526210d3d360ea1b602082015262000587949390931692879291908662000e5a565b6001600160a01b03908116602080850191909152600254620005d99216908590620005b59088018862001180565b89516040805180820190915260048152631111509560e21b60208201528662000e5a565b82604001906001600160a01b031690816001600160a01b03168152505060006040518060c0016040528086602001358152602001866040013581526020018660600135815260200184600001516001600160a01b031681526020018660800135815260200184604001516001600160a01b03168152509050836001600160a01b03166308f18a64888386602001518960a00160208101906200067c919062001180565b8b6040518663ffffffff1660e01b81526004016200069f95949392919062001682565b600060405180830381600087803b158015620006ba57600080fd5b505af1158015620006cf573d6000803e3d6000fd5b5050600580546001810182556000919091527f036b6384b5eca791c62761152d0c79bb0604c104a5fb6f4eb0703f3154bb3db00180546001600160a01b0319166001600160a01b03881617905550506040517f569465810a88162d0f22919f03f6666d504b840ebec118a2df6f23ab67638de0906200075290869042906200149a565b60405180910390a15050509392505050565b60005461010090046001600160a01b031681565b336001600160a01b037f00000000000000000000000000000000000000000000000000000000000000001614620007c35760405162461bcd60e51b8152600401620002f5906200163f565b6001600160a01b038116620007ec5760405162461bcd60e51b8152600401620002f59062001601565b600380546001600160a01b0319166001600160a01b0383161790556040517f8df748e91aa1ee28349ed8a7ff354a3717a778db8d9fbefd53bb60f5ac649e4f90620003749083906200142f565b600581815481106200084a57600080fd5b6000918252602090912001546001600160a01b0316905081565b336001600160a01b037f00000000000000000000000000000000000000000000000000000000000000001614620008af5760405162461bcd60e51b8152600401620002f5906200163f565b620008b962000e8c565b565b6001546001600160a01b031681565b60005460ff1690565b6003546001600160a01b031681565b6002546001600160a01b031681565b336001600160a01b037f000000000000000000000000000000000000000000000000000000000000000016146200093c5760405162461bcd60e51b8152600401620002f5906200163f565b620008b962000f03565b7f000000000000000000000000000000000000000000000000000000000000000081565b336001600160a01b037f00000000000000000000000000000000000000000000000000000000000000001614620009b55760405162461bcd60e51b8152600401620002f5906200163f565b6001600160a01b038116620009de5760405162461bcd60e51b8152600401620002f59062001601565b600180546001600160a01b0319166001600160a01b0383161790556040517f8df748e91aa1ee28349ed8a7ff354a3717a778db8d9fbefd53bb60f5ac649e4f90620003749083906200142f565b6004546001600160a01b031681565b336001600160a01b037f0000000000000000000000000000000000000000000000000000000000000000161462000a855760405162461bcd60e51b8152600401620002f5906200163f565b6001600160a01b03811662000aae5760405162461bcd60e51b8152600401620002f59062001601565b6000805474ffffffffffffffffffffffffffffffffffffffff0019166101006001600160a01b038416021790556040517f8df748e91aa1ee28349ed8a7ff354a3717a778db8d9fbefd53bb60f5ac649e4f90620003749083906200142f565b336001600160a01b037f0000000000000000000000000000000000000000000000000000000000000000161462000b585760405162461bcd60e51b8152600401620002f5906200163f565b6001600160a01b03811662000b815760405162461bcd60e51b8152600401620002f59062001601565b600280546001600160a01b0319166001600160a01b0383161790556040517f8df748e91aa1ee28349ed8a7ff354a3717a778db8d9fbefd53bb60f5ac649e4f90620003749083906200142f565b336001600160a01b037f0000000000000000000000000000000000000000000000000000000000000000161462000c195760405162461bcd60e51b8152600401620002f5906200163f565b6001600160a01b03811660009081526006602052604090205460ff16151560011462000c595760405162461bcd60e51b8152600401620002f590620015db565b6001600160a01b03166000908152600660205260409020805460ff19169055565b6000336001600160a01b037f0000000000000000000000000000000000000000000000000000000000000000161462000cc75760405162461bcd60e51b8152600401620002f5906200163f565b6001600160a01b03821662000cf05760405162461bcd60e51b8152600401620002f590620015bc565b82600001358360200135846040013585606001358587608001358860a0013560405162000d1d9062001098565b62000d2f979695949392919062001736565b604051809103906000f08015801562000d4c573d6000803e3d6000fd5b506001600160a01b03811660009081526006602052604090819020805460ff19166001179055519091507f918897fd1bc2f5f93459d04688d69fa9309915b7aef0f702c7c8080621aeaaf79062000da790839042906200149a565b60405180910390a192915050565b60066020526000908152604090205460ff1681565b60006040517f3d602d80600a3d3981f3363d3d373d3d3d363d7300000000000000000000000081528360601b60148201527f5af43d82803e903d91602b57fd5bf300000000000000000000000000000000006028820152826037826000f59150506001600160a01b03811662000e545760405162461bcd60e51b8152600401620002f5906200154e565b92915050565b600062000e716001600160a01b0388168362000dca565b905062000e82868287878762000f65565b9695505050505050565b62000e96620008ca565b62000eb55760405162461bcd60e51b8152600401620002f590620014f8565b6000805460ff191690557f5db9ee0a495bf2e6ff9c91a7834c1ba4fdd244a5e8aa4e537bd38aeae4b073aa62000eea62001074565b60405162000ef991906200142f565b60405180910390a1565b62000f0d620008ca565b1562000f2d5760405162461bcd60e51b8152600401620002f59062001585565b6000805460ff191660011790557f62e78cea01bee320cd4e420270b5ea74000d11b0c9f74754ebdbfc544b05a25862000eea62001074565b60008260405160200162000f7a919062001411565b6040516020818303038152906040529050808260405160200162000fa0929190620013cc565b604051602081830303815290604052905060008360405160200162000fc6919062001411565b6040516020818303038152906040529050818360405160200162000fec92919062001399565b60408051601f198184030181529082905260048054631b1492e160e11b84529193506001600160a01b03808a169363362925c29362001037938d938c938a938a939216910162001443565b600060405180830381600087803b1580156200105257600080fd5b505af115801562001067573d6000803e3d6000fd5b5050505050505050505050565b3390565b604080516060810182526000808252602082018190529181019190915290565b610bc7806200180683390190565b8035620010b381620017ec565b919050565b600082601f830112620010c9578081fd5b813567ffffffffffffffff811115620010e657620010e6620017d6565b620010fb601f8201601f19166020016200176f565b81815284602083860101111562001110578283fd5b816020850160208301379081016020019190915292915050565b600060c082840312156200113c578081fd5b50919050565b60006060828403121562001154578081fd5b6200116060606200176f565b905081358152602082013560208201526040820135604082015292915050565b60006020828403121562001192578081fd5b81356200119f81620017ec565b9392505050565b60008060006101408486031215620011bc578182fd5b833567ffffffffffffffff80821115620011d4578384fd5b9085019060a08288031215620011e8578384fd5b620011f460a06200176f565b82358281111562001203578586fd5b6200121189828601620010b8565b82525060208301358281111562001226578586fd5b6200123489828601620010b8565b602083015250604083013591506200124c82620017ec565b8160408201526200126060608401620010a6565b60608201526200127360808401620010a6565b60808201528095505050506200128d856020860162001142565b91506200129e85608086016200112a565b90509250925092565b60008060e08385031215620012ba578182fd5b620012c684846200112a565b915060c0830135620012d881620017ec565b809150509250929050565b600060208284031215620012f5578081fd5b5035919050565b6001600160a01b03169052565b6000815180845262001323816020860160208601620017a3565b601f01601f19169290920160200192915050565b80518252602081015160208301526040810151604083015260608101516001600160a01b038082166060850152608083015160808501528060a08401511660a085015250505050565b8051825260208082015190830152604090810151910152565b60008351620013ad818460208801620017a3565b835190830190620013c3818360208801620017a3565b01949350505050565b60008351620013e0818460208801620017a3565b652d504149522d60d01b908301908152835162001405816006840160208801620017a3565b01600601949350505050565b6000825162001425818460208701620017a3565b9190910192915050565b6001600160a01b0391909116815260200190565b60006001600160a01b038088168352808716602084015260a060408401526200147060a084018762001309565b838103606085015262001484818762001309565b9250508084166080840152509695505050505050565b6001600160a01b03929092168252602082015260400190565b901515815260200190565b600060608252620014d3606083018662001309565b8281036020840152620014e7818662001309565b915050826040830152949350505050565b60208082526014908201527f5061757361626c653a206e6f7420706175736564000000000000000000000000604082015260600190565b60208082526005908201526424a72b2fa160d91b604082015260600190565b60208082526017908201527f455243313136373a2063726561746532206661696c6564000000000000000000604082015260600190565b60208082526010908201527f5061757361626c653a2070617573656400000000000000000000000000000000604082015260600190565b6020808252600590820152641a5b9d97dd60da1b604082015260600190565b6020808252600c908201526b125497d393d517d1561254d560a21b604082015260600190565b602080825260059082015264494e565f4360d81b604082015260600190565b602080825260059082015264494e565f4760d81b604082015260600190565b6020808252600a908201526927a7262cafa7aba722a960b11b604082015260600190565b602080825260059082015264494e565f4960d81b604082015260600190565b6000610180808352875160a082850152620016a261022085018262001309565b915050602088015161017f19848303016101a0850152620016c4828262001309565b60408a01516001600160a01b039081166101c087015260608b015181166101e087015260808b015116610200860152925062001707915050602083018762001337565b6200171660e0830186620012fc565b62001726610100830185620012fc565b62000e8261012083018462001380565b9687526020870195909552604086019390935260608501919091526001600160a01b0316608084015260a083015260c082015260e00190565b604051601f8201601f1916810167ffffffffffffffff811182821017156200179b576200179b620017d6565b604052919050565b60005b83811015620017c0578181015183820152602001620017a6565b83811115620017d0576000848401525b50505050565b634e487b7160e01b600052604160045260246000fd5b6001600160a01b03811681146200180257600080fd5b5056fe60c06040523480156200001157600080fd5b5060405162000bc738038062000bc7833981016040819052620000349162000216565b60008711620000605760405162461bcd60e51b81526004016200005790620003ab565b60405180910390fd5b60008611620000835760405162461bcd60e51b81526004016200005790620002aa565b60008511620000a65760405162461bcd60e51b815260040162000057906200033f565b60008411620000c95760405162461bcd60e51b8152600401620000579062000284565b6001600160a01b038316620000f25760405162461bcd60e51b8152600401620000579062000318565b60008211620001155760405162461bcd60e51b8152600401620000579062000374565b60008111620001385760405162461bcd60e51b81526004016200005790620002e1565b600080546001600160a01b0319166001600160a01b03851617905560a082905260808190526200016c878787878562000179565b505050505050506200043e565b620001858186620003f1565b60025562000194828262000412565b620001a885670de0b6b3a764000062000412565b620001b49190620003f1565b600155620001c38184620003f1565b600381905560048390556002546001546040517f6960ab234c7ef4b0c9197100f5393cfcde7c453ac910a27bd2000aa1dd4c068d93620002079392918790620003d6565b60405180910390a15050505050565b600080600080600080600060e0888a03121562000231578283fd5b8751602089015160408a015160608b015160808c0151939a50919850965094506001600160a01b038116811462000266578384fd5b8093505060a0880151915060c0880151905092959891949750929550565b6020808252600c908201526b696e76616c6964206b696e6b60a01b604082015260600190565b6020808252601b908201527f696e76616c6964206d756c7469706c6965722070657220796561720000000000604082015260600190565b60208082526017908201527f696e76616c696420626c6f636b73207065722079656172000000000000000000604082015260600190565b6020808252600d908201526c34b73b30b634b21037bbb732b960991b604082015260600190565b6020808252818101527f696e76616c6964206a756d70206d756c7469706c696572207065722079656172604082015260600190565b60208082526017908201527f696e76616c696420626f72726f772072617465206d6178000000000000000000604082015260600190565b602080825260119082015270696e76616c69642062617365207261746560781b604082015260600190565b93845260208401929092526040830152606082015260800190565b6000826200040d57634e487b7160e01b81526012600452602481fd5b500490565b60008160001904831182151516156200043957634e487b7160e01b81526011600452602481fd5b500290565b60805160a0516107556200047260003960008181610156015261017e01526000818161026b01526102ec01526107556000f3fe608060405234801561001057600080fd5b506004361061009e5760003560e01c8063a385fb9611610066578063a385fb9614610111578063b816881614610119578063b9f9850a1461012c578063f14039de14610134578063fd2da3391461013c5761009e565b806315f24053146100a35780632037f3e7146100cc5780636e71e2d8146100e15780638726bb89146100f45780638da5cb5b146100fc575b600080fd5b6100b66100b13660046104f8565b610144565b6040516100c39190610677565b60405180910390f35b6100df6100da366004610523565b6101af565b005b6100b66100ef3660046104f8565b610295565b6100b66102d5565b6101046102db565b6040516100c39190610554565b6100b66102ea565b6100b6610127366004610523565b61030e565b6100b661038a565b6100b6610390565b6100b6610396565b60008061015285858561039c565b90507f00000000000000000000000000000000000000000000000000000000000000008111156101a5577f00000000000000000000000000000000000000000000000000000000000000009150506101a8565b90505b9392505050565b6000546001600160a01b031633146101e25760405162461bcd60e51b81526004016101d990610631565b60405180910390fd5b600084116102025760405162461bcd60e51b81526004016101d9906105fa565b600083116102225760405162461bcd60e51b81526004016101d99061058e565b600082116102425760405162461bcd60e51b81526004016101d9906105c5565b600081116102625760405162461bcd60e51b81526004016101d990610568565b61028f848484847f0000000000000000000000000000000000000000000000000000000000000000610467565b50505050565b6000826102a4575060006101a8565b816102af848661069b565b6102b991906106f2565b6102cb84670de0b6b3a76400006106d3565b6101a591906106b3565b60015481565b6000546001600160a01b031681565b7f000000000000000000000000000000000000000000000000000000000000000081565b60008061032383670de0b6b3a76400006106f2565b9050600061033287878761039c565b90506000670de0b6b3a764000061034984846106d3565b61035391906106b3565b9050670de0b6b3a76400008161036a8a8a8a610295565b61037491906106d3565b61037e91906106b3565b98975050505050505050565b60035481565b60025481565b60045481565b6000806103aa858585610295565b905060045481116103eb57600254670de0b6b3a7640000600154836103cf91906106d3565b6103d991906106b3565b6103e3919061069b565b9150506101a8565b6000600254670de0b6b3a764000060015460045461040991906106d3565b61041391906106b3565b61041d919061069b565b905060006004548361042f91906106f2565b905081670de0b6b3a76400006003548361044991906106d3565b61045391906106b3565b61045d919061069b565b93505050506101a8565b61047181866106b3565b60025561047e82826106d3565b61049085670de0b6b3a76400006106d3565b61049a91906106b3565b6001556104a781846106b3565b600381905560048390556002546001546040517f6960ab234c7ef4b0c9197100f5393cfcde7c453ac910a27bd2000aa1dd4c068d936104e99392918790610680565b60405180910390a15050505050565b60008060006060848603121561050c578283fd5b505081359360208301359350604090920135919050565b60008060008060808587031215610538578081fd5b5050823594602084013594506040840135936060013592509050565b6001600160a01b0391909116815260200190565b6020808252600c908201526b696e76616c6964206b696e6b60a01b604082015260600190565b6020808252601b908201527f696e76616c6964206d756c7469706c6965722070657220796561720000000000604082015260600190565b6020808252818101527f696e76616c6964206a756d70206d756c7469706c696572207065722079656172604082015260600190565b60208082526011908201527f696e76616c696420626173652072617465000000000000000000000000000000604082015260600190565b60208082526026908201527f6f6e6c7920746865206f776e6572206d61792063616c6c20746869732066756e60408201526531ba34b7b71760d11b606082015260800190565b90815260200190565b93845260208401929092526040830152606082015260800190565b600082198211156106ae576106ae610709565b500190565b6000826106ce57634e487b7160e01b81526012600452602481fd5b500490565b60008160001904831182151516156106ed576106ed610709565b500290565b60008282101561070457610704610709565b500390565b634e487b7160e01b600052601160045260246000fdfea2646970667358221220c95f83be8fa657394176f6a2bba046d2991c3c282628b1836630ee29777e30b464736f6c63430008010033a264697066735822122057a75c884545498bbf89efe36055f7d083e6429aa0277eba0e51c898537af67f64736f6c63430008010033",
  "devdoc": {
    "kind": "dev",
    "methods": {
      "createIR((uint256,uint256,uint256,uint256,uint256,uint256),address)": {
        "details": "create interest rate model"
      },
      "createLendingPairWithProxy((string,string,address,address,address),(uint256,uint256,uint256),(address,uint256,uint256,uint256,uint256,address))": {
        "details": "create lending pair with clones"
      },
      "disableIR(address)": {
        "details": "disable interest rate model"
      },
      "paused()": {
        "details": "Returns true if the contract is paused, and false otherwise."
      }
    },
    "version": 1
  },
  "userdoc": {
    "kind": "user",
    "methods": {
      "pause()": {
        "notice": "pause"
      },
      "unpause()": {
        "notice": "unpause"
      }
    },
    "version": 1
  },
  "storageLayout": {
    "storage": [
      {
        "astId": 306,
        "contract": "contracts/LendingPairFactory.sol:LendingPairFactory",
        "label": "_paused",
        "offset": 0,
        "slot": "0",
        "type": "t_bool"
      },
      {
        "astId": 5614,
        "contract": "contracts/LendingPairFactory.sol:LendingPairFactory",
        "label": "lendingPairImplementation",
        "offset": 1,
        "slot": "0",
        "type": "t_address"
      },
      {
        "astId": 5616,
        "contract": "contracts/LendingPairFactory.sol:LendingPairFactory",
        "label": "collateralWrapperImplementation",
        "offset": 0,
        "slot": "1",
        "type": "t_address"
      },
      {
        "astId": 5618,
        "contract": "contracts/LendingPairFactory.sol:LendingPairFactory",
        "label": "debtTokenImplementation",
        "offset": 0,
        "slot": "2",
        "type": "t_address"
      },
      {
        "astId": 5620,
        "contract": "contracts/LendingPairFactory.sol:LendingPairFactory",
        "label": "borrowAssetWrapperImplementation",
        "offset": 0,
        "slot": "3",
        "type": "t_address"
      },
      {
        "astId": 5622,
        "contract": "contracts/LendingPairFactory.sol:LendingPairFactory",
        "label": "rewardDistributionManager",
        "offset": 0,
        "slot": "4",
        "type": "t_address"
      },
      {
        "astId": 5625,
        "contract": "contracts/LendingPairFactory.sol:LendingPairFactory",
        "label": "allPairs",
        "offset": 0,
        "slot": "5",
        "type": "t_array(t_address)dyn_storage"
      },
      {
        "astId": 5629,
        "contract": "contracts/LendingPairFactory.sol:LendingPairFactory",
        "label": "validInterestRateModels",
        "offset": 0,
        "slot": "6",
        "type": "t_mapping(t_address,t_bool)"
      }
    ],
    "types": {
      "t_address": {
        "encoding": "inplace",
        "label": "address",
        "numberOfBytes": "20"
      },
      "t_array(t_address)dyn_storage": {
        "base": "t_address",
        "encoding": "dynamic_array",
        "label": "address[]",
        "numberOfBytes": "32"
      },
      "t_bool": {
        "encoding": "inplace",
        "label": "bool",
        "numberOfBytes": "1"
      },
      "t_mapping(t_address,t_bool)": {
        "encoding": "mapping",
        "key": "t_address",
        "label": "mapping(address => bool)",
        "numberOfBytes": "32",
        "value": "t_bool"
      }
    }
  }
}