{
  "address": "0x2F423E89805836d157Fa3B3293605C82Bc59a62b",
  "abi": [
    {
      "inputs": [
        {
          "internalType": "contract IBSVault",
          "name": "_vault",
          "type": "address"
        },
        {
          "internalType": "contract IPriceOracleAggregator",
          "name": "_oracle",
          "type": "address"
        },
        {
          "internalType": "address",
          "name": "_feeWithdrawalAddr",
          "type": "address"
        },
        {
          "internalType": "uint256",
          "name": "_procotolLiquidationFeeShare",
          "type": "uint256"
        }
      ],
      "stateMutability": "nonpayable",
      "type": "constructor"
    },
    {
      "anonymous": false,
      "inputs": [
        {
          "indexed": false,
          "internalType": "uint8",
          "name": "action",
          "type": "uint8"
        },
        {
          "indexed": false,
          "internalType": "uint256",
          "name": "timestamp",
          "type": "uint256"
        }
      ],
      "name": "ActionPaused",
      "type": "event"
    },
    {
      "anonymous": false,
      "inputs": [
        {
          "indexed": false,
          "internalType": "uint8",
          "name": "action",
          "type": "uint8"
        },
        {
          "indexed": false,
          "internalType": "uint256",
          "name": "timestamp",
          "type": "uint256"
        }
      ],
      "name": "ActionUnPaused",
      "type": "event"
    },
    {
      "anonymous": false,
      "inputs": [
        {
          "indexed": true,
          "internalType": "address",
          "name": "borrower",
          "type": "address"
        },
        {
          "indexed": false,
          "internalType": "uint256",
          "name": "amount",
          "type": "uint256"
        }
      ],
      "name": "Borrow",
      "type": "event"
    },
    {
      "anonymous": false,
      "inputs": [
        {
          "indexed": true,
          "internalType": "address",
          "name": "pair",
          "type": "address"
        },
        {
          "indexed": true,
          "internalType": "address",
          "name": "asset",
          "type": "address"
        },
        {
          "indexed": true,
          "internalType": "address",
          "name": "tokenReceipeint",
          "type": "address"
        },
        {
          "indexed": false,
          "internalType": "address",
          "name": "user",
          "type": "address"
        },
        {
          "indexed": false,
          "internalType": "uint256",
          "name": "amount",
          "type": "uint256"
        }
      ],
      "name": "Deposit",
      "type": "event"
    },
    {
      "anonymous": false,
      "inputs": [
        {
          "indexed": true,
          "internalType": "address",
          "name": "target",
          "type": "address"
        },
        {
          "indexed": true,
          "internalType": "address",
          "name": "initiator",
          "type": "address"
        },
        {
          "indexed": true,
          "internalType": "address",
          "name": "asset",
          "type": "address"
        },
        {
          "indexed": false,
          "internalType": "uint256",
          "name": "amount",
          "type": "uint256"
        },
        {
          "indexed": false,
          "internalType": "uint256",
          "name": "premium",
          "type": "uint256"
        }
      ],
      "name": "FlashLoan",
      "type": "event"
    },
    {
      "anonymous": false,
      "inputs": [
        {
          "indexed": true,
          "internalType": "address",
          "name": "pair",
          "type": "address"
        },
        {
          "indexed": true,
          "internalType": "address",
          "name": "asset",
          "type": "address"
        },
        {
          "indexed": true,
          "internalType": "address",
          "name": "collateralAsset",
          "type": "address"
        },
        {
          "indexed": false,
          "internalType": "address",
          "name": "pauseGuardian",
          "type": "address"
        }
      ],
      "name": "Initialized",
      "type": "event"
    },
    {
      "anonymous": false,
      "inputs": [
        {
          "indexed": true,
          "internalType": "address",
          "name": "pair",
          "type": "address"
        },
        {
          "indexed": false,
          "internalType": "uint256",
          "name": "accrualBlockNumber",
          "type": "uint256"
        },
        {
          "indexed": false,
          "internalType": "uint256",
          "name": "borrowIndex",
          "type": "uint256"
        },
        {
          "indexed": false,
          "internalType": "uint256",
          "name": "totalBorrows",
          "type": "uint256"
        },
        {
          "indexed": false,
          "internalType": "uint256",
          "name": "totalReserves",
          "type": "uint256"
        }
      ],
      "name": "InterestAccrued",
      "type": "event"
    },
    {
      "anonymous": false,
      "inputs": [
        {
          "indexed": false,
          "internalType": "uint256",
          "name": "blockNumber",
          "type": "uint256"
        }
      ],
      "name": "InterestShortCircuit",
      "type": "event"
    },
    {
      "anonymous": false,
      "inputs": [
        {
          "indexed": true,
          "internalType": "address",
          "name": "pair",
          "type": "address"
        },
        {
          "indexed": true,
          "internalType": "address",
          "name": "asset",
          "type": "address"
        },
        {
          "indexed": true,
          "internalType": "address",
          "name": "user",
          "type": "address"
        },
        {
          "indexed": false,
          "internalType": "uint256",
          "name": "liquidatedCollateralAmount",
          "type": "uint256"
        },
        {
          "indexed": false,
          "internalType": "address",
          "name": "liquidator",
          "type": "address"
        }
      ],
      "name": "Liquidate",
      "type": "event"
    },
    {
      "anonymous": false,
      "inputs": [
        {
          "indexed": true,
          "internalType": "address",
          "name": "pair",
          "type": "address"
        },
        {
          "indexed": true,
          "internalType": "address",
          "name": "asset",
          "type": "address"
        },
        {
          "indexed": true,
          "internalType": "address",
          "name": "user",
          "type": "address"
        },
        {
          "indexed": false,
          "internalType": "address",
          "name": "to",
          "type": "address"
        },
        {
          "indexed": false,
          "internalType": "uint256",
          "name": "amount",
          "type": "uint256"
        },
        {
          "indexed": false,
          "internalType": "uint256",
          "name": "amountofWrappedBurned",
          "type": "uint256"
        }
      ],
      "name": "Redeem",
      "type": "event"
    },
    {
      "anonymous": false,
      "inputs": [
        {
          "indexed": true,
          "internalType": "address",
          "name": "pair",
          "type": "address"
        },
        {
          "indexed": true,
          "internalType": "address",
          "name": "asset",
          "type": "address"
        },
        {
          "indexed": true,
          "internalType": "address",
          "name": "beneficiary",
          "type": "address"
        },
        {
          "indexed": false,
          "internalType": "address",
          "name": "repayer",
          "type": "address"
        },
        {
          "indexed": false,
          "internalType": "uint256",
          "name": "amount",
          "type": "uint256"
        }
      ],
      "name": "Repay",
      "type": "event"
    },
    {
      "anonymous": false,
      "inputs": [
        {
          "indexed": false,
          "internalType": "address",
          "name": "user",
          "type": "address"
        },
        {
          "indexed": false,
          "internalType": "uint256",
          "name": "shares",
          "type": "uint256"
        }
      ],
      "name": "ReserveWithdraw",
      "type": "event"
    },
    {
      "anonymous": false,
      "inputs": [
        {
          "indexed": false,
          "internalType": "address",
          "name": "account",
          "type": "address"
        },
        {
          "indexed": false,
          "internalType": "uint256",
          "name": "amount",
          "type": "uint256"
        }
      ],
      "name": "WithdrawCollateral",
      "type": "event"
    },
    {
      "inputs": [],
      "name": "VERSION",
      "outputs": [
        {
          "internalType": "uint256",
          "name": "",
          "type": "uint256"
        }
      ],
      "stateMutability": "view",
      "type": "function"
    },
    {
      "inputs": [
        {
          "internalType": "address",
          "name": "",
          "type": "address"
        }
      ],
      "name": "accountInterestIndex",
      "outputs": [
        {
          "internalType": "uint256",
          "name": "",
          "type": "uint256"
        }
      ],
      "stateMutability": "view",
      "type": "function"
    },
    {
      "inputs": [],
      "name": "accrueInterest",
      "outputs": [],
      "stateMutability": "nonpayable",
      "type": "function"
    },
    {
      "inputs": [],
      "name": "asset",
      "outputs": [
        {
          "internalType": "contract IERC20",
          "name": "",
          "type": "address"
        }
      ],
      "stateMutability": "view",
      "type": "function"
    },
    {
      "inputs": [
        {
          "internalType": "uint256",
          "name": "_amountToBorrow",
          "type": "uint256"
        },
        {
          "internalType": "address",
          "name": "_debtOwner",
          "type": "address"
        }
      ],
      "name": "borrow",
      "outputs": [],
      "stateMutability": "nonpayable",
      "type": "function"
    },
    {
      "inputs": [
        {
          "internalType": "address",
          "name": "_account",
          "type": "address"
        }
      ],
      "name": "borrowBalanceCurrent",
      "outputs": [
        {
          "internalType": "uint256",
          "name": "",
          "type": "uint256"
        }
      ],
      "stateMutability": "nonpayable",
      "type": "function"
    },
    {
      "inputs": [
        {
          "internalType": "address",
          "name": "_account",
          "type": "address"
        }
      ],
      "name": "borrowBalancePrior",
      "outputs": [
        {
          "internalType": "uint256",
          "name": "balance",
          "type": "uint256"
        }
      ],
      "stateMutability": "view",
      "type": "function"
    },
    {
      "inputs": [],
      "name": "borrowIndex",
      "outputs": [
        {
          "internalType": "uint256",
          "name": "",
          "type": "uint256"
        }
      ],
      "stateMutability": "view",
      "type": "function"
    },
    {
      "inputs": [],
      "name": "borrowRatePerBlock",
      "outputs": [
        {
          "internalType": "uint256",
          "name": "",
          "type": "uint256"
        }
      ],
      "stateMutability": "view",
      "type": "function"
    },
    {
      "inputs": [
        {
          "internalType": "uint256",
          "name": "_collateralValueInUSD",
          "type": "uint256"
        }
      ],
      "name": "calcBorrowLimit",
      "outputs": [
        {
          "internalType": "uint256",
          "name": "",
          "type": "uint256"
        }
      ],
      "stateMutability": "view",
      "type": "function"
    },
    {
      "inputs": [
        {
          "internalType": "uint256",
          "name": "_borrowAmount",
          "type": "uint256"
        }
      ],
      "name": "calcCollateralRequired",
      "outputs": [
        {
          "internalType": "uint256",
          "name": "",
          "type": "uint256"
        }
      ],
      "stateMutability": "view",
      "type": "function"
    },
    {
      "inputs": [
        {
          "internalType": "uint256",
          "name": "_amount",
          "type": "uint256"
        }
      ],
      "name": "calculateLiquidationFee",
      "outputs": [
        {
          "internalType": "uint256",
          "name": "fee",
          "type": "uint256"
        }
      ],
      "stateMutability": "view",
      "type": "function"
    },
    {
      "inputs": [],
      "name": "collateralAsset",
      "outputs": [
        {
          "internalType": "contract IERC20",
          "name": "",
          "type": "address"
        }
      ],
      "stateMutability": "view",
      "type": "function"
    },
    {
      "inputs": [],
      "name": "collateralFactor",
      "outputs": [
        {
          "internalType": "uint256",
          "name": "",
          "type": "uint256"
        }
      ],
      "stateMutability": "view",
      "type": "function"
    },
    {
      "inputs": [
        {
          "internalType": "address",
          "name": "_account",
          "type": "address"
        }
      ],
      "name": "collateralOfAccount",
      "outputs": [
        {
          "internalType": "uint256",
          "name": "",
          "type": "uint256"
        }
      ],
      "stateMutability": "view",
      "type": "function"
    },
    {
      "inputs": [],
      "name": "debtToken",
      "outputs": [
        {
          "internalType": "contract IDebtToken",
          "name": "",
          "type": "address"
        }
      ],
      "stateMutability": "view",
      "type": "function"
    },
    {
      "inputs": [
        {
          "internalType": "address",
          "name": "_tokenRecipient",
          "type": "address"
        },
        {
          "internalType": "uint256",
          "name": "_amount",
          "type": "uint256"
        }
      ],
      "name": "depositBorrowAsset",
      "outputs": [],
      "stateMutability": "nonpayable",
      "type": "function"
    },
    {
      "inputs": [
        {
          "internalType": "address",
          "name": "_tokenRecipient",
          "type": "address"
        },
        {
          "internalType": "uint256",
          "name": "_amount",
          "type": "uint256"
        }
      ],
      "name": "depositCollateral",
      "outputs": [],
      "stateMutability": "nonpayable",
      "type": "function"
    },
    {
      "inputs": [],
      "name": "exchangeRateCurrent",
      "outputs": [
        {
          "internalType": "uint256",
          "name": "",
          "type": "uint256"
        }
      ],
      "stateMutability": "nonpayable",
      "type": "function"
    },
    {
      "inputs": [],
      "name": "feeWithdrawalAddr",
      "outputs": [
        {
          "internalType": "address",
          "name": "",
          "type": "address"
        }
      ],
      "stateMutability": "view",
      "type": "function"
    },
    {
      "inputs": [
        {
          "internalType": "address",
          "name": "_account",
          "type": "address"
        }
      ],
      "name": "getBorrowLimit",
      "outputs": [
        {
          "internalType": "uint256",
          "name": "",
          "type": "uint256"
        }
      ],
      "stateMutability": "view",
      "type": "function"
    },
    {
      "inputs": [
        {
          "internalType": "address",
          "name": "_account",
          "type": "address"
        }
      ],
      "name": "getBorrowLimitInUSD",
      "outputs": [
        {
          "internalType": "uint256",
          "name": "",
          "type": "uint256"
        }
      ],
      "stateMutability": "view",
      "type": "function"
    },
    {
      "inputs": [],
      "name": "getCashPrior",
      "outputs": [
        {
          "internalType": "uint256",
          "name": "",
          "type": "uint256"
        }
      ],
      "stateMutability": "view",
      "type": "function"
    },
    {
      "inputs": [
        {
          "internalType": "address",
          "name": "_account",
          "type": "address"
        }
      ],
      "name": "getMaxWithdrawAllowed",
      "outputs": [
        {
          "internalType": "uint256",
          "name": "maxWithdrawAllowed",
          "type": "uint256"
        }
      ],
      "stateMutability": "nonpayable",
      "type": "function"
    },
    {
      "inputs": [],
      "name": "getPriceOfBorrowAsset",
      "outputs": [
        {
          "internalType": "uint256",
          "name": "",
          "type": "uint256"
        }
      ],
      "stateMutability": "view",
      "type": "function"
    },
    {
      "inputs": [],
      "name": "getPriceOfCollateral",
      "outputs": [
        {
          "internalType": "uint256",
          "name": "",
          "type": "uint256"
        }
      ],
      "stateMutability": "view",
      "type": "function"
    },
    {
      "inputs": [
        {
          "internalType": "contract IERC20",
          "name": "_token",
          "type": "address"
        },
        {
          "internalType": "uint256",
          "name": "_amount",
          "type": "uint256"
        }
      ],
      "name": "getPriceOfToken",
      "outputs": [
        {
          "internalType": "uint256",
          "name": "",
          "type": "uint256"
        }
      ],
      "stateMutability": "view",
      "type": "function"
    },
    {
      "inputs": [
        {
          "internalType": "address",
          "name": "_account",
          "type": "address"
        }
      ],
      "name": "getTotalAvailableCollateralValue",
      "outputs": [
        {
          "internalType": "uint256",
          "name": "",
          "type": "uint256"
        }
      ],
      "stateMutability": "view",
      "type": "function"
    },
    {
      "inputs": [
        {
          "internalType": "address",
          "name": "_account",
          "type": "address"
        }
      ],
      "name": "getTotalAvailableCollateralValueInUSD",
      "outputs": [
        {
          "internalType": "uint256",
          "name": "",
          "type": "uint256"
        }
      ],
      "stateMutability": "view",
      "type": "function"
    },
    {
      "inputs": [
        {
          "internalType": "string",
          "name": "_name",
          "type": "string"
        },
        {
          "internalType": "string",
          "name": "_symbol",
          "type": "string"
        },
        {
          "internalType": "contract IERC20",
          "name": "_asset",
          "type": "address"
        },
        {
          "internalType": "contract IERC20",
          "name": "_collateralAsset",
          "type": "address"
        },
        {
          "components": [
            {
              "internalType": "uint256",
              "name": "initialExchangeRateMantissa",
              "type": "uint256"
            },
            {
              "internalType": "uint256",
              "name": "reserveFactorMantissa",
              "type": "uint256"
            },
            {
              "internalType": "uint256",
              "name": "collateralFactor",
              "type": "uint256"
            },
            {
              "internalType": "contract IBSWrapperToken",
              "name": "wrappedBorrowAsset",
              "type": "address"
            },
            {
              "internalType": "uint256",
              "name": "liquidationFee",
              "type": "uint256"
            },
            {
              "internalType": "contract IDebtToken",
              "name": "debtToken",
              "type": "address"
            }
          ],
          "internalType": "struct DataTypes.BorrowAssetConfig",
          "name": "borrowConfig",
          "type": "tuple"
        },
        {
          "internalType": "contract IBSWrapperToken",
          "name": "_wrappedCollateralAsset",
          "type": "address"
        },
        {
          "internalType": "contract IInterestRateModel",
          "name": "_interestRate",
          "type": "address"
        },
        {
          "internalType": "address",
          "name": "_pauseGuardian",
          "type": "address"
        }
      ],
      "name": "initialize",
      "outputs": [],
      "stateMutability": "nonpayable",
      "type": "function"
    },
    {
      "inputs": [],
      "name": "interestRate",
      "outputs": [
        {
          "internalType": "contract IInterestRateModel",
          "name": "",
          "type": "address"
        }
      ],
      "stateMutability": "view",
      "type": "function"
    },
    {
      "inputs": [
        {
          "internalType": "address",
          "name": "_borrower",
          "type": "address"
        }
      ],
      "name": "liquidate",
      "outputs": [],
      "stateMutability": "nonpayable",
      "type": "function"
    },
    {
      "inputs": [],
      "name": "liquidationFee",
      "outputs": [
        {
          "internalType": "uint256",
          "name": "",
          "type": "uint256"
        }
      ],
      "stateMutability": "view",
      "type": "function"
    },
    {
      "inputs": [],
      "name": "name",
      "outputs": [
        {
          "internalType": "string",
          "name": "",
          "type": "string"
        }
      ],
      "stateMutability": "view",
      "type": "function"
    },
    {
      "inputs": [],
      "name": "oracle",
      "outputs": [
        {
          "internalType": "contract IPriceOracleAggregator",
          "name": "",
          "type": "address"
        }
      ],
      "stateMutability": "view",
      "type": "function"
    },
    {
      "inputs": [
        {
          "internalType": "enum LendingPair.Actions",
          "name": "action",
          "type": "uint8"
        }
      ],
      "name": "pause",
      "outputs": [],
      "stateMutability": "nonpayable",
      "type": "function"
    },
    {
      "inputs": [],
      "name": "pauseGuardian",
      "outputs": [
        {
          "internalType": "address",
          "name": "",
          "type": "address"
        }
      ],
      "stateMutability": "view",
      "type": "function"
    },
    {
      "inputs": [
        {
          "internalType": "enum LendingPair.Actions",
          "name": "",
          "type": "uint8"
        }
      ],
      "name": "pauseStatus",
      "outputs": [
        {
          "internalType": "bool",
          "name": "",
          "type": "bool"
        }
      ],
      "stateMutability": "view",
      "type": "function"
    },
    {
      "inputs": [],
      "name": "protocolLiquidationFeeShare",
      "outputs": [
        {
          "internalType": "uint256",
          "name": "",
          "type": "uint256"
        }
      ],
      "stateMutability": "view",
      "type": "function"
    },
    {
      "inputs": [
        {
          "internalType": "address",
          "name": "_to",
          "type": "address"
        },
        {
          "internalType": "uint256",
          "name": "_amount",
          "type": "uint256"
        }
      ],
      "name": "redeem",
      "outputs": [],
      "stateMutability": "nonpayable",
      "type": "function"
    },
    {
      "inputs": [
        {
          "internalType": "uint256",
          "name": "_repayAmount",
          "type": "uint256"
        },
        {
          "internalType": "address",
          "name": "_beneficiary",
          "type": "address"
        }
      ],
      "name": "repay",
      "outputs": [],
      "stateMutability": "nonpayable",
      "type": "function"
    },
    {
      "inputs": [],
      "name": "supplyRatePerBlock",
      "outputs": [
        {
          "internalType": "uint256",
          "name": "",
          "type": "uint256"
        }
      ],
      "stateMutability": "view",
      "type": "function"
    },
    {
      "inputs": [],
      "name": "symbol",
      "outputs": [
        {
          "internalType": "string",
          "name": "",
          "type": "string"
        }
      ],
      "stateMutability": "view",
      "type": "function"
    },
    {
      "inputs": [],
      "name": "totalBorrows",
      "outputs": [
        {
          "internalType": "uint256",
          "name": "",
          "type": "uint256"
        }
      ],
      "stateMutability": "view",
      "type": "function"
    },
    {
      "inputs": [],
      "name": "totalReserves",
      "outputs": [
        {
          "internalType": "uint256",
          "name": "",
          "type": "uint256"
        }
      ],
      "stateMutability": "view",
      "type": "function"
    },
    {
      "inputs": [
        {
          "internalType": "enum LendingPair.Actions",
          "name": "action",
          "type": "uint8"
        }
      ],
      "name": "unpause",
      "outputs": [],
      "stateMutability": "nonpayable",
      "type": "function"
    },
    {
      "inputs": [],
      "name": "vault",
      "outputs": [
        {
          "internalType": "contract IBSVault",
          "name": "",
          "type": "address"
        }
      ],
      "stateMutability": "view",
      "type": "function"
    },
    {
      "inputs": [
        {
          "internalType": "uint8[]",
          "name": "actions",
          "type": "uint8[]"
        },
        {
          "internalType": "bytes[]",
          "name": "data",
          "type": "bytes[]"
        }
      ],
      "name": "warp",
      "outputs": [],
      "stateMutability": "nonpayable",
      "type": "function"
    },
    {
      "inputs": [
        {
          "internalType": "uint256",
          "name": "_amount",
          "type": "uint256"
        }
      ],
      "name": "withdrawCollateral",
      "outputs": [],
      "stateMutability": "nonpayable",
      "type": "function"
    },
    {
      "inputs": [
        {
          "internalType": "uint256",
          "name": "_toWithdraw",
          "type": "uint256"
        }
      ],
      "name": "withdrawFees",
      "outputs": [],
      "stateMutability": "nonpayable",
      "type": "function"
    },
    {
      "inputs": [],
      "name": "wrappedCollateralAsset",
      "outputs": [
        {
          "internalType": "contract IBSWrapperToken",
          "name": "",
          "type": "address"
        }
      ],
      "stateMutability": "view",
      "type": "function"
    },
    {
      "inputs": [],
      "name": "wrapperBorrowedAsset",
      "outputs": [
        {
          "internalType": "contract IBSWrapperToken",
          "name": "",
          "type": "address"
        }
      ],
      "stateMutability": "view",
      "type": "function"
    }
  ],
  "transactionHash": "0x32a888b759a2e73fd3df11e7541ab54f96c8c6d7fcfb0f7b8219aa44bb6014a5",
  "args": [
    "0xed8c28A3De713D829883bd5c9D1F8b671C0776b6",
    "0x0dB7f23cAC620730f639D28b251aED91e9c4caB4",
    "0x8C83F2eb7299a0A1abeeaA500C2BdBAB732aa9ff",
    "50000000000000000"
  ],
  "solcInputHash": "d8f710d108043478052b140f0bad2611",
  "bytecode": "0x6101006040523480156200001257600080fd5b5060405162004e4038038062004e408339810160408190526200003591620000e3565b6001600160a01b038416620000675760405162461bcd60e51b81526004016200005e906200015a565b60405180910390fd5b6001600160a01b038316620000905760405162461bcd60e51b81526004016200005e906200015a565b6001600160a01b038216620000b95760405162461bcd60e51b81526004016200005e906200013c565b6001600160601b0319606094851b811660805292841b831660c052921b1660e05260a05262000190565b60008060008060808587031215620000f9578384fd5b8451620001068162000177565b6020860151909450620001198162000177565b60408601519093506200012c8162000177565b6060959095015193969295505050565b6020808252600490820152634956574160e01b604082015260600190565b60208082526003908201526204956360ec1b604082015260600190565b6001600160a01b03811681146200018d57600080fd5b50565b60805160601c60a05160c05160601c60e05160601c614b71620002cf60003960008181611766015281816117e50152613560015260008181610dca0152818161119501528181611306015281816121660152818161218d01526124a7015260008181610d4d0152610ee4015260008181610810015281816108bb015281816109e901528181610b4401528181610c1301528181610fc8015281816114280152818161156e0152818161168d01528181611734015281816118da01528181611efa015281816120aa015281816122bc0152818161236301528181612798015281816128420152818161290501528181612c0f01528181612fcb015281816130d10152818161317c0152818161326b01528181613331015281816133de015281816136870152818161374c015281816137f401526139cd0152614b716000f3fe608060405234801561001057600080fd5b506004361061034c5760003560e01c80637dc0d1d0116101bd578063cc9da5d6116100f9578063edf07f15116100a2578063f8f9da281161007c578063f8f9da2814610623578063f919b4bf1461062b578063fbfa77cf1461063e578063ffa1ad74146106465761034c565b8063edf07f1514610600578063f1ab8f7014610613578063f8d898981461061b5761034c565b8063dd5a612c116100d3578063dd5a612c146105dd578063df011c41146105e5578063ed6072f6146105ed5761034c565b8063cc9da5d6146105a4578063da4f7fb2146105b7578063dcec3124146105ca5761034c565b8063a5f688ee11610166578063aabaecd611610140578063aabaecd614610579578063acb7081514610581578063ae9d70b014610594578063bd6d894d1461059c5761034c565b8063a5f688ee14610561578063a6afed9514610569578063aa5af0fd146105715761034c565b806395d89b411161019757806395d89b411461053e578063a36a363014610546578063a5d5db0c1461054e5761034c565b80637dc0d1d01461051b57806388c342ea146105235780638f840ddd146105365761034c565b80634b3fd1481161028c57806364cc85f1116102355780637820f63b1161020f5780637820f63b146104da5780637af70ba6146104ed5780637c17d237146105005780637c3a00fd146105135761034c565b806364cc85f1146104a15780636f427d82146104b45780637746efab146104c75761034c565b80636112fe2e116102665780636112fe2e1461046857806362546c401461047b57806362f256e71461048e5761034c565b80634b3fd1481461043a578063588785401461044d5780635e318e07146104555761034c565b80632bca5f35116102f9578063360e303a116102d3578063360e303a1461041a57806338d52e0f146104225780633bfc7be81461042a57806347bd3718146104325761034c565b80632bca5f35146103d45780632f865568146103f4578063301c7e5d146104075761034c565b806323b9db031161032a57806323b9db03146103a457806324a3d622146103b757806324d873f7146103cc5761034c565b806306fdde031461035157806317bfdfbc1461036f5780631e9a69501461038f575b600080fd5b61035961064e565b60405161036691906143d3565b60405180910390f35b61038261037d366004613f42565b6106dc565b604051610366919061480b565b6103a261039d36600461402b565b6106f7565b005b6103a26103b236600461402b565b610ab5565b6103bf610d3c565b60405161036691906142b6565b610382610d4b565b6103e76103e23660046140bf565b610d6f565b6040516103669190614361565b6103a2610402366004613f42565b610d84565b6103a26104153660046140bf565b611071565b6103bf61115a565b6103bf611169565b610382611178565b610382611221565b6103a261044836600461424f565b611266565b6103bf61162e565b6103a261046336600461421f565b61163d565b6103a261047636600461421f565b61181f565b6103a26104893660046140de565b611988565b61038261049c36600461421f565b611e02565b6103826104af366004613f42565b611e25565b6103826104c2366004613f42565b611e37565b6103826104d5366004613f42565b611faa565b6103826104e8366004613f42565b61207c565b6103826104fb366004613f42565b61209a565b61038261050e366004613f42565b612149565b6103bf612155565b6103bf612164565b61038261053136600461402b565b612188565b61038261223a565b610359612240565b61038261224d565b6103a261055c36600461402b565b612253565b61038261248a565b6103a26124dd565b610382612702565b6103bf612708565b6103a261058f36600461424f565b612717565b610382612a46565b610382612b0d565b6103826105b2366004613f42565b612bf7565b6103826105c536600461421f565b612cab565b6103a26105d8366004614056565b612cc4565b610382613312565b610382613471565b6103826105fb36600461421f565b613477565b6103a261060e3660046140bf565b61348f565b6103bf61355e565b6103bf613582565b610382613591565b610382610639366004613f42565b613654565b6103bf613685565b6103826136a9565b6001805461065b90614a8d565b80601f016020809104026020016040519081016040528092919081815260200182805461068790614a8d565b80156106d45780601f106106a9576101008083540402835291602001916106d4565b820191906000526020600020905b8154815290600101906020018083116106b757829003601f168201915b505050505081565b60006106e66124dd565b6106ef82611faa565b90505b919050565b6001600160a01b0382166107265760405162461bcd60e51b815260040161071d90614680565b60405180910390fd5b61072e613db3565b610736612b0d565b8152816107c757600e546040516370a0823160e01b81526001600160a01b03909116906370a082319061076d9033906004016142b6565b60206040518083038186803b15801561078557600080fd5b505afa158015610799573d6000803e3d6000fd5b505050506040513d601f19601f820116820180604052508101906107bd9190614237565b60608201526107cf565b606081018290525b6107ef6040518060200160405280836000015181525082606001516136ae565b60208201819052600c54604051636d289ce560e11b81526001600160a01b037f000000000000000000000000000000000000000000000000000000000000000081169363da5139ca9361084a939216916000906004016143b0565b60206040518083038186803b15801561086257600080fd5b505afa158015610876573d6000803e3d6000fd5b505050506040513d601f19601f8201168201806040525081019061089a9190614237565b6040808301829052600c549051633de222bb60e21b81526001600160a01b037f000000000000000000000000000000000000000000000000000000000000000081169263f7888aec926108f6929190911690309060040161436c565b60206040518083038186803b15801561090e57600080fd5b505afa158015610922573d6000803e3d6000fd5b505050506040513d601f19601f820116820180604052508101906109469190614237565b10156109645760405162461bcd60e51b815260040161071d9061479c565b600e546060820151604051632770a7eb60e21b81526001600160a01b0390921691639dc29fac9161099a91339190600401614327565b600060405180830381600087803b1580156109b457600080fd5b505af11580156109c8573d6000803e3d6000fd5b5050600c546040808501519051633c6340f360e21b81526001600160a01b037f00000000000000000000000000000000000000000000000000000000000000008116955063f18d03cc9450610a269316913091899190600401614386565b600060405180830381600087803b158015610a4057600080fd5b505af1158015610a54573d6000803e3d6000fd5b5050600c54604084810151606086015191513395506001600160a01b03909316935030927f18fd144d7dbcbaa6f00fd47a84adc7dc3cc64a326ffa2dc7691a25e3837dba0392610aa8928a92909190614340565b60405180910390a4505050565b600080805260126020527f7e7fa33969761a458e04f477e039a608702b4f924981d6653935a8319a08ad7b5460ff1615610b015760405162461bcd60e51b815260040161071d90614441565b6001600160a01b038316610b275760405162461bcd60e51b815260040161071d906144d3565b600c54604051636d289ce560e11b81526000916001600160a01b037f000000000000000000000000000000000000000000000000000000000000000081169263da5139ca92610b7e921690879086906004016143b0565b60206040518083038186803b158015610b9657600080fd5b505afa158015610baa573d6000803e3d6000fd5b505050506040513d601f19601f82011682018060405250810190610bce9190614237565b90506000610bda612b0d565b90506000610bf6856040518060200160405280858152506136ce565b600c54604051633c6340f360e21b81529192506001600160a01b037f000000000000000000000000000000000000000000000000000000000000000081169263f18d03cc92610c4f921690339030908990600401614386565b600060405180830381600087803b158015610c6957600080fd5b505af1158015610c7d573d6000803e3d6000fd5b5050600e546040516340c10f1960e01b81526001600160a01b0390911692506340c10f199150610cb39089908590600401614327565b600060405180830381600087803b158015610ccd57600080fd5b505af1158015610ce1573d6000803e3d6000fd5b5050600c546040516001600160a01b038a81169450909116915030907fa856e8f098813135735b4d4f52d96083d1dbb35fd5603ff424661413f59c281090610d2c9033908990614327565b60405180910390a4505050505050565b600b546001600160a01b031681565b7f000000000000000000000000000000000000000000000000000000000000000081565b60126020526000908152604090205460ff1681565b336001600160a01b0382161415610dad5760405162461bcd60e51b815260040161071d9061450b565b600c54604051630226614760e01b81526000916001600160a01b037f0000000000000000000000000000000000000000000000000000000000000000811692630226614792610e009216906004016142b6565b60206040518083038186803b158015610e1857600080fd5b505afa158015610e2c573d6000803e3d6000fd5b505050506040513d601f19601f82011682018060405250810190610e509190614237565b90506000610e5c61248a565b90506000610e69846106dc565b9050600083610e8783600360149054906101000a900460ff166136db565b610e919190614a34565b9050600083610eb4610ea288612149565b600354600160a81b900460ff166136db565b610ebe9190614a34565b9050818111611069576000610ed284611e02565b90506000670de0b6b3a7640000610f097f000000000000000000000000000000000000000000000000000000000000000084614a34565b610f1391906148fd565b9050610f2a883387610f2585826148e5565b61372f565b6001600160a01b038816600090815260116020526040812055600854610f519082906148e5565b6008556000610f6083876148e5565b610f6a9089614a34565b600354909150600090610f8790600160a01b900460ff1689614a34565b600354610f9e90600160a81b900460ff1684614a34565b610fa891906148fd565b600d54604051636d289ce560e11b81529192506000916001600160a01b037f000000000000000000000000000000000000000000000000000000000000000081169263da5139ca9261100692919091169086906001906004016143b0565b60206040518083038186803b15801561101e57600080fd5b505afa158015611032573d6000803e3d6000fd5b505050506040513d601f19601f820116820180604052508101906110569190614237565b90506110638b33836138c2565b50505050505b505050505050565b600b546001600160a01b0316331461109b5760405162461bcd60e51b815260040161071d906146a0565b6000601260008360018111156110c157634e487b7160e01b600052602160045260246000fd5b60018111156110e057634e487b7160e01b600052602160045260246000fd5b81526020810191909152604001600020805460ff19169115159190911790557fdfa820e666ed1059467a5c9faba2d85f0cb8a9bf8b871537a12766ff5f20107f81600181111561114057634e487b7160e01b600052602160045260246000fd5b4260405161114f92919061485c565b60405180910390a150565b600f546001600160a01b031681565b600c546001600160a01b031681565b600c54604051630226614760e01b81526000916001600160a01b037f00000000000000000000000000000000000000000000000000000000000000008116926302266147926111cb9216906004016142b6565b60206040518083038186803b1580156111e357600080fd5b505afa1580156111f7573d6000803e3d6000fd5b505050506040513d601f19601f8201168201806040525081019061121b9190614237565b90505b90565b601054604080516318160ddd60e01b815290516000926001600160a01b0316916318160ddd916004808301926020929190829003018186803b1580156111e357600080fd5b6001600081905260126020527f71a67924699a20698523213e55fe499d539379d7769cd5567e2c45d583f815a35460ff16156112b45760405162461bcd60e51b815260040161071d90614441565b6001600160a01b0382166112da5760405162461bcd60e51b815260040161071d90614649565b600354600c54600160a01b90910460ff16906001600160a01b03166000611300856106dc565b905060007f00000000000000000000000000000000000000000000000000000000000000006001600160a01b03166302266147846040518263ffffffff1660e01b815260040161135091906142b6565b60206040518083038186803b15801561136857600080fd5b505afa15801561137c573d6000803e3d6000fd5b505050506040513d601f19601f820116820180604052508101906113a09190614237565b90506000816113af84876136db565b6113b99190614a34565b905060006113c561248a565b6113d1610ea28a612149565b6113db9190614a34565b905060006113e98383614a53565b90506000846113f88c8a6136db565b6114029190614a34565b9050808210156114245760405162461bcd60e51b815260040161071d90614712565b60007f00000000000000000000000000000000000000000000000000000000000000006001600160a01b031663da5139ca898e60006040518463ffffffff1660e01b8152600401611477939291906143b0565b60206040518083038186803b15801561148f57600080fd5b505afa1580156114a3573d6000803e3d6000fd5b505050506040513d601f19601f820116820180604052508101906114c79190614237565b9050601060009054906101000a90046001600160a01b03166001600160a01b031663c6c3bbe68c338f6040518463ffffffff1660e01b815260040161150e93929190614303565b600060405180830381600087803b15801561152857600080fd5b505af115801561153c573d6000803e3d6000fd5b50506007546001600160a01b03808f1660009081526011602052604090819020929092559051633c6340f360e21b81527f0000000000000000000000000000000000000000000000000000000000000000909116925063f18d03cc91506115ad908b90309033908790600401614386565b600060405180830381600087803b1580156115c757600080fd5b505af11580156115db573d6000803e3d6000fd5b50505050336001600160a01b03167fcbc04eca7e9da35cb1393a6135a199ca52e450d5e9251cbd99f7847d33a367508d604051611618919061480b565b60405180910390a2505050505050505050505050565b600e546001600160a01b031681565b80600854101561165f5760405162461bcd60e51b815260040161071d9061479c565b8060085461166d9190614a53565b600855600c54604051636d289ce560e11b81526000916001600160a01b037f000000000000000000000000000000000000000000000000000000000000000081169263da5139ca926116c7921690869086906004016143b0565b60206040518083038186803b1580156116df57600080fd5b505afa1580156116f3573d6000803e3d6000fd5b505050506040513d601f19601f820116820180604052508101906117179190614237565b600c54604051633c6340f360e21b81529192506001600160a01b037f000000000000000000000000000000000000000000000000000000000000000081169263f18d03cc9261179092169030907f0000000000000000000000000000000000000000000000000000000000000000908790600401614386565b600060405180830381600087803b1580156117aa57600080fd5b505af11580156117be573d6000803e3d6000fd5b505050507f0529afc4538720fe0b3eadc40486369ab962002d72fead1387b300c66073e7bf7f000000000000000000000000000000000000000000000000000000000000000083604051611813929190614327565b60405180910390a15050565b60008061182b33611e37565b90508261183a5780915061183e565b8291505b8181101561185e5760405162461bcd60e51b815260040161071d906146db565b600f54604051632770a7eb60e21b81526001600160a01b0390911690639dc29fac906118909033908690600401614327565b600060405180830381600087803b1580156118aa57600080fd5b505af11580156118be573d6000803e3d6000fd5b5050600d54604051633c6340f360e21b81526001600160a01b037f00000000000000000000000000000000000000000000000000000000000000008116945063f18d03cc9350611918921690309033908890600401614386565b600060405180830381600087803b15801561193257600080fd5b505af1158015611946573d6000803e3d6000fd5b505050507fa8e76b822fc682be77f3b1c822ea81f6bda5aed92ba82e6873bfd889f328d1d2338360405161197b929190614327565b60405180910390a1505050565b600054610100900460ff16806119a157506119a1613a84565b806119af575060005460ff16155b6119cb5760405162461bcd60e51b815260040161071d9061457d565b600054610100900460ff161580156119f6576000805460ff1961ff0019909116610100171660011790555b6001600160a01b03871615801590611a1657506001600160a01b03861615155b611a325760405162461bcd60e51b815260040161071d906147ee565b6001600160a01b038216611a585760405162461bcd60e51b815260040161071d90614560565b306001600160a01b0316846001600160a01b0316638da5cb5b6040518163ffffffff1660e01b815260040160206040518083038186803b158015611a9b57600080fd5b505afa158015611aaf573d6000803e3d6000fd5b505050506040513d601f19601f82011682018060405250810190611ad39190613f5e565b6001600160a01b031614611af95760405162461bcd60e51b815260040161071d90614461565b6001600160a01b038316611b1f5760405162461bcd60e51b815260040161071d90614542565b6000856080013511611b435760405162461bcd60e51b815260040161071d906146bd565b611b5c30611b56368890038801886141b5565b90613a8a565b8851611b6f9060019060208c0190613ddb565b508751611b839060029060208b0190613ddb565b50600b80546001600160a01b038085166001600160a01b031992831617909255600c80548a8416908316179055600d80548984169083161790556003805492861692909116919091179055670de0b6b3a7640000600755843560045560208501356005556040850135600955608085018035600a55611c059060608701613f42565b600e80546001600160a01b0319166001600160a01b0392909216919091179055611c3560c0860160a08701613f42565b601080546001600160a01b03199081166001600160a01b0393841617909155600f8054909116868316179055600c546040805163313ce56760e01b81529051919092169163313ce567916004808301926020929190829003018186803b158015611c9e57600080fd5b505afa158015611cb2573d6000803e3d6000fd5b505050506040513d601f19601f82011682018060405250810190611cd6919061429a565b600360146101000a81548160ff021916908360ff160217905550600d60009054906101000a90046001600160a01b03166001600160a01b031663313ce5676040518163ffffffff1660e01b815260040160206040518083038186803b158015611d3e57600080fd5b505afa158015611d52573d6000803e3d6000fd5b505050506040513d601f19601f82011682018060405250810190611d76919061429a565b600360156101000a81548160ff021916908360ff160217905550856001600160a01b0316876001600160a01b0316306001600160a01b03167f3514319b7a526ad5f1f42edf0c1df25fa0ea2ae054779987fbe636f164515e2f85604051611ddd91906142b6565b60405180910390a48015611df7576000805461ff00191690555b505050505050505050565b6000670de0b6b3a7640000600a5483611e1b9190614a34565b6106ef91906148fd565b60116020526000908152604090205481565b600354600090600160a81b900460ff1681611e66611e54856106dc565b600354600160a01b900460ff166136db565b90506000611e7261248a565b600c54909150600090611e8e906001600160a01b031684612188565b9050600082611ea5611e9f8961209a565b876136db565b611eaf9190614a34565b90506000611ebc83612cab565b905080821015611ed557600096505050505050506106f2565b6000611eea611ee48385614a53565b88613cb6565b600d549091506001600160a01b037f000000000000000000000000000000000000000000000000000000000000000081169163da5139ca9116611f2d88856148fd565b60006040518463ffffffff1660e01b8152600401611f4d939291906143b0565b60206040518083038186803b158015611f6557600080fd5b505afa158015611f79573d6000803e3d6000fd5b505050506040513d601f19601f82011682018060405250810190611f9d9190614237565b9998505050505050505050565b6010546040516316707ceb60e11b8152600091829182916001600160a01b031690632ce0f9d690611fdf9087906004016142b6565b60206040518083038186803b158015611ff757600080fd5b505afa15801561200b573d6000803e3d6000fd5b505050506040513d601f19601f8201168201806040525081019061202f9190614237565b905080612041576000925050506106f2565b6001600160a01b0384166000908152601160205260409020546007546120679083614a34565b925061207381846148fd565b95945050505050565b60008061208883612bf7565b905061209381613477565b9392505050565b600d546000906001600160a01b037f0000000000000000000000000000000000000000000000000000000000000000811691635299493b91166120dc85613654565b6040518363ffffffff1660e01b81526004016120f9929190614327565b60206040518083038186803b15801561211157600080fd5b505afa158015612125573d6000803e3d6000fd5b505050506040513d601f19601f820116820180604052508101906106ef9190614237565b6000806120888361209a565b6003546001600160a01b031681565b7f000000000000000000000000000000000000000000000000000000000000000081565b6000817f00000000000000000000000000000000000000000000000000000000000000006001600160a01b03166302266147856040518263ffffffff1660e01b81526004016121d791906142b6565b60206040518083038186803b1580156121ef57600080fd5b505afa158015612203573d6000803e3d6000fd5b505050506040513d601f19601f820116820180604052508101906122279190614237565b6122319190614a34565b90505b92915050565b60085481565b6002805461065b90614a8d565b600a5481565b600080805260126020527f7e7fa33969761a458e04f477e039a608702b4f924981d6653935a8319a08ad7b5460ff161561229f5760405162461bcd60e51b815260040161071d90614441565b600d54604051636d289ce560e11b81526000916001600160a01b037f000000000000000000000000000000000000000000000000000000000000000081169263da5139ca926122f6921690879086906004016143b0565b60206040518083038186803b15801561230e57600080fd5b505afa158015612322573d6000803e3d6000fd5b505050506040513d601f19601f820116820180604052508101906123469190614237565b600d54604051633c6340f360e21b81529192506001600160a01b037f000000000000000000000000000000000000000000000000000000000000000081169263f18d03cc9261239f921690339030908790600401614386565b600060405180830381600087803b1580156123b957600080fd5b505af11580156123cd573d6000803e3d6000fd5b5050600f546040516340c10f1960e01b81526001600160a01b0390911692506340c10f1991506124039087908590600401614327565b600060405180830381600087803b15801561241d57600080fd5b505af1158015612431573d6000803e3d6000fd5b5050600d546040516001600160a01b038881169450909116915030907fa856e8f098813135735b4d4f52d96083d1dbb35fd5603ff424661413f59c28109061247c9033908790614327565b60405180910390a450505050565b600d54604051630226614760e01b81526000916001600160a01b037f00000000000000000000000000000000000000000000000000000000000000008116926302266147926111cb9216906004016142b6565b60006124e7613cd9565b60065490915080821415612533577fe307fb74a265b8255fabc1154131917ce875f96118a807f88eda1e751722538d82604051612524919061480b565b60405180910390a15050612700565b600061253d613312565b90506000612549611221565b6008546007546003546040516315f2405360e01b8152939450919290916000916001600160a01b03909116906315f240539061258d9088908890889060040161482b565b60206040518083038186803b1580156125a557600080fd5b505afa1580156125b9573d6000803e3d6000fd5b505050506040513d601f19601f820116820180604052508101906125dd9190614237565b905060006125eb8789614a53565b90506125f5613e5b565b600080600061261260405180602001604052808881525086613cdd565b935061261e848a6136ae565b925061263b6040518060200160405280600554815250848a613d0b565b9150612648848889613d0b565b60068d9055600781905560105460405163146fac4560e01b81529192506001600160a01b03169063146fac459061268390869060040161480b565b600060405180830381600087803b15801561269d57600080fd5b505af11580156126b1573d6000803e3d6000fd5b50505060088390555060065460075430917eaf397b333f747e35288f4f28a97dff5288f74200f7a94532e63e7bc9c2786d916126ed878e6148e5565b6008546040516116189493929190614841565b565b60075481565b600d546001600160a01b031681565b6001600160a01b03811661273d5760405162461bcd60e51b815260040161071d90614765565b6000612748826106dc565b90508083111561276a5760405162461bcd60e51b815260040161071d90614612565b60008361277857508061277b565b50825b600c54604051636d289ce560e11b81526000916001600160a01b037f000000000000000000000000000000000000000000000000000000000000000081169263da5139ca926127d392169086906001906004016143b0565b60206040518083038186803b1580156127eb57600080fd5b505afa1580156127ff573d6000803e3d6000fd5b505050506040513d601f19601f820116820180604052508101906128239190614237565b600c54604051633de222bb60e21b815291925082916001600160a01b037f000000000000000000000000000000000000000000000000000000000000000081169263f7888aec9261287d929190911690339060040161436c565b60206040518083038186803b15801561289557600080fd5b505afa1580156128a9573d6000803e3d6000fd5b505050506040513d601f19601f820116820180604052508101906128cd9190614237565b10156128eb5760405162461bcd60e51b815260040161071d9061479c565b600c54604051633c6340f360e21b81526001600160a01b037f000000000000000000000000000000000000000000000000000000000000000081169263f18d03cc92612944929190911690339030908790600401614386565b600060405180830381600087803b15801561295e57600080fd5b505af1158015612972573d6000803e3d6000fd5b5050601054604051632770a7eb60e21b81526001600160a01b039091169250639dc29fac91506129a89087908690600401614327565b600060405180830381600087803b1580156129c257600080fd5b505af11580156129d6573d6000803e3d6000fd5b50506007546001600160a01b038088166000818152601160205260409081902093909355600c5492519094509116915030907f15e061f85ae0cc955acf34c814a39567895400d498e2e52faa1fbe370bbe46f290612a379033908890614327565b60405180910390a45050505050565b6003546000906001600160a01b031663b8168816612a62613312565b601060009054906101000a90046001600160a01b03166001600160a01b03166318160ddd6040518163ffffffff1660e01b815260040160206040518083038186803b158015612ab057600080fd5b505afa158015612ac4573d6000803e3d6000fd5b505050506040513d601f19601f82011682018060405250810190612ae89190614237565b6008546005546040518563ffffffff1660e01b81526004016111cb9493929190614841565b6000612b176124dd565b600e54604080516318160ddd60e01b815290516000926001600160a01b0316916318160ddd916004808301926020929190829003018186803b158015612b5c57600080fd5b505afa158015612b70573d6000803e3d6000fd5b505050506040513d601f19601f82011682018060405250810190612b949190614237565b905080612ba557505060045461121e565b6000612baf613312565b90506000612bbb613e5b565b600854612bc6611221565b612bd090856148e5565b612bda9190614a53565b9150612be68285613d2e565b51945061121e9350505050565b5090565b600d546000906106ef906001600160a01b03908116907f000000000000000000000000000000000000000000000000000000000000000016635299493b82612c3e87613654565b6040518363ffffffff1660e01b8152600401612c5b929190614327565b60206040518083038186803b158015612c7357600080fd5b505afa158015612c87573d6000803e3d6000fd5b505050506040513d601f19601f820116820180604052508101906105319190614237565b6000670de0b6b3a764000060095483611e1b9190614a34565b828114612ce35760405162461bcd60e51b815260040161071d906145f5565b60005b60ff811684111561330b57600085858360ff16818110612d1657634e487b7160e01b600052603260045260246000fd5b9050602002016020810190612d2b919061427e565b905060ff811660011415612d935760008085858560ff16818110612d5f57634e487b7160e01b600052603260045260246000fd5b9050602002810190612d71919061486f565b810190612d7e919061402b565b91509150612d8c8282610ab5565b50506132f8565b60ff8116600a1415612df25760008085858560ff16818110612dc557634e487b7160e01b600052603260045260246000fd5b9050602002810190612dd7919061486f565b810190612de4919061402b565b91509150612d8c8282612253565b60ff811660021415612e515760008085858560ff16818110612e2457634e487b7160e01b600052603260045260246000fd5b9050602002810190612e36919061486f565b810190612e43919061424f565b91509150612d8c8282612717565b60ff811660031415612eb05760008085858560ff16818110612e8357634e487b7160e01b600052603260045260246000fd5b9050602002810190612e95919061486f565b810190612ea2919061402b565b91509150612d8c8183611266565b60ff811660041415612f0f5760008085858560ff16818110612ee257634e487b7160e01b600052603260045260246000fd5b9050602002810190612ef4919061486f565b810190612f01919061402b565b91509150612d8c82826106f7565b60ff811660051415612f7057600084848460ff16818110612f4057634e487b7160e01b600052603260045260246000fd5b9050602002810190612f52919061486f565b810190612f5f919061421f565b9050612f6a8161181f565b506132f8565b60ff8116600b141561307657600080600086868660ff16818110612fa457634e487b7160e01b600052603260045260246000fd5b9050602002810190612fb6919061486f565b810190612fc39190613feb565b9250925092507f00000000000000000000000000000000000000000000000000000000000000006001600160a01b0316630284c3f5843385856040518563ffffffff1660e01b815260040161301b9493929190614386565b602060405180830381600087803b15801561303557600080fd5b505af1158015613049573d6000803e3d6000fd5b505050506040513d601f19601f8201168201806040525081019061306d9190614237565b505050506132f8565b60ff8116600c141561312157600080600086868660ff168181106130aa57634e487b7160e01b600052603260045260246000fd5b90506020028101906130bc919061486f565b8101906130c99190613feb565b9250925092507f00000000000000000000000000000000000000000000000000000000000000006001600160a01b0316630b620b81843385856040518563ffffffff1660e01b815260040161301b9493929190614386565b60ff8116600d141561320657600080600086868660ff1681811061315557634e487b7160e01b600052603260045260246000fd5b9050602002810190613167919061486f565b8101906131749190613feb565b9250925092507f00000000000000000000000000000000000000000000000000000000000000006001600160a01b031663f18d03cc843385856040518563ffffffff1660e01b81526004016131cc9493929190614386565b600060405180830381600087803b1580156131e657600080fd5b505af11580156131fa573d6000803e3d6000fd5b505050505050506132f8565b60ff8116600e14156132f85760008060008060008089898960ff1681811061323e57634e487b7160e01b600052603260045260246000fd5b9050602002810190613250919061486f565b81019061325d9190613f7a565b9550955095509550955095507f00000000000000000000000000000000000000000000000000000000000000006001600160a01b0316633f21c1b48787878787876040518763ffffffff1660e01b81526004016132bf969594939291906142ca565b600060405180830381600087803b1580156132d957600080fd5b505af11580156132ed573d6000803e3d6000fd5b505050505050505050505b508061330381614ac8565b915050612ce6565b5050505050565b600c54604051633de222bb60e21b815260009182916001600160a01b037f000000000000000000000000000000000000000000000000000000000000000081169263f7888aec9261336c929190911690309060040161436c565b60206040518083038186803b15801561338457600080fd5b505afa158015613398573d6000803e3d6000fd5b505050506040513d601f19601f820116820180604052508101906133bc9190614237565b9050801561121b57600c54604051635299493b60e01b81526001600160a01b037f0000000000000000000000000000000000000000000000000000000000000000811692635299493b926134199291909116908590600401614327565b60206040518083038186803b15801561343157600080fd5b505afa158015613445573d6000803e3d6000fd5b505050506040513d601f19601f820116820180604052508101906134699190614237565b91505061121e565b60095481565b600954600090611e1b670de0b6b3a764000084614a34565b600b546001600160a01b031633146134b95760405162461bcd60e51b815260040161071d906146a0565b6001601260008360018111156134df57634e487b7160e01b600052602160045260246000fd5b60018111156134fe57634e487b7160e01b600052602160045260246000fd5b81526020810191909152604001600020805460ff19169115159190911790557feee4857a800dd0d59a522983fa5935c3d0e584b1b60f3552c4941706e6af58ed81600181111561114057634e487b7160e01b600052602160045260246000fd5b7f000000000000000000000000000000000000000000000000000000000000000081565b6010546001600160a01b031681565b6003546000906001600160a01b03166315f240536135ad613312565b601060009054906101000a90046001600160a01b03166001600160a01b03166318160ddd6040518163ffffffff1660e01b815260040160206040518083038186803b1580156135fb57600080fd5b505afa15801561360f573d6000803e3d6000fd5b505050506040513d601f19601f820116820180604052508101906136339190614237565b6008546040518463ffffffff1660e01b81526004016111cb9392919061482b565b600f546040516370a0823160e01b81526000916001600160a01b0316906370a08231906120f99085906004016142b6565b7f000000000000000000000000000000000000000000000000000000000000000081565b600181565b6000806136bb8484613cdd565b90506136c681613d6f565b949350505050565b6000806136bb8484613d87565b600060128260ff161061370f576136f3601283614a6a565b6136fe90600a614963565b61370890846148fd565b9050612234565b61371a826012614a6a565b61372590600a614963565b6137089084614a34565b600c54604051636d289ce560e11b81526000916001600160a01b037f000000000000000000000000000000000000000000000000000000000000000081169263da5139ca9261378792169086906001906004016143b0565b60206040518083038186803b15801561379f57600080fd5b505afa1580156137b3573d6000803e3d6000fd5b505050506040513d601f19601f820116820180604052508101906137d79190614237565b600c54604051633c6340f360e21b81529192506001600160a01b037f000000000000000000000000000000000000000000000000000000000000000081169263f18d03cc92613830921690889030908790600401614386565b600060405180830381600087803b15801561384a57600080fd5b505af115801561385e573d6000803e3d6000fd5b5050601054604051632770a7eb60e21b81526001600160a01b039091169250639dc29fac91506138949088908790600401614327565b600060405180830381600087803b1580156138ae57600080fd5b505af1158015611df7573d6000803e3d6000fd5b600f546040516370a0823160e01b81526000916001600160a01b0316906370a08231906138f39087906004016142b6565b60206040518083038186803b15801561390b57600080fd5b505afa15801561391f573d6000803e3d6000fd5b505050506040513d601f19601f820116820180604052508101906139439190614237565b905080821115613951578091505b600f54604051632770a7eb60e21b81526001600160a01b0390911690639dc29fac906139839087908690600401614327565b600060405180830381600087803b15801561399d57600080fd5b505af11580156139b1573d6000803e3d6000fd5b5050600d54604051633c6340f360e21b81526001600160a01b037f00000000000000000000000000000000000000000000000000000000000000008116945063f18d03cc9350613a0b921690309088908890600401614386565b600060405180830381600087803b158015613a2557600080fd5b505af1158015613a39573d6000803e3d6000fd5b5050600d546040516001600160a01b038881169450909116915030907fcea6068021f706074af611c2a4b6b08820c5b8223a80149684c64c60ce7be3cc9061247c9087908990614814565b303b1590565b8151613aa85760405162461bcd60e51b815260040161071d906144f0565b6000826020015111613acc5760405162461bcd60e51b815260040161071d906147d3565b6000826040015111613af05760405162461bcd60e51b815260040161071d90614426565b6000826080015111613b145760405162461bcd60e51b815260040161071d906145da565b60608201516001600160a01b0316613b3e5760405162461bcd60e51b815260040161071d906144b8565b60a08201516001600160a01b0316613b685760405162461bcd60e51b815260040161071d9061447f565b806001600160a01b031682606001516001600160a01b0316638da5cb5b6040518163ffffffff1660e01b815260040160206040518083038186803b158015613baf57600080fd5b505afa158015613bc3573d6000803e3d6000fd5b505050506040513d601f19601f82011682018060405250810190613be79190613f5e565b6001600160a01b031614613c0d5760405162461bcd60e51b815260040161071d90614749565b806001600160a01b03168260a001516001600160a01b0316638da5cb5b6040518163ffffffff1660e01b815260040160206040518083038186803b158015613c5457600080fd5b505afa158015613c68573d6000803e3d6000fd5b505050506040513d601f19601f82011682018060405250810190613c8c9190613f5e565b6001600160a01b031614613cb25760405162461bcd60e51b815260040161071d9061449b565b5050565b600060128260ff1610613cce5761371a601283614a6a565b6136f3826012614a6a565b4390565b613ce5613e5b565b8251600090613cf5908490614a34565b6040805160208101909152908152949350505050565b600080613d188585613cdd565b905082613d2482613d6f565b61207391906148e5565b613d36613e5b565b6000613d4a670de0b6b3a764000085614a34565b90506000613d5884836148fd565b604080516020810190915290815295945050505050565b80516000906106ef90670de0b6b3a7640000906148fd565b613d8f613e5b565b6000613da384670de0b6b3a7640000614a34565b90506136c6818460000151613d2e565b6040518060800160405280600081526020016000815260200160008152602001600081525090565b828054613de790614a8d565b90600052602060002090601f016020900481019282613e095760008555613e4f565b82601f10613e2257805160ff1916838001178555613e4f565b82800160010185558215613e4f579182015b82811115613e4f578251825591602001919060010190613e34565b50612bf3929150613e6e565b6040518060200160405280600081525090565b5b80821115612bf35760008155600101613e6f565b80356106f281614b14565b60008083601f840112613e9f578182fd5b50813567ffffffffffffffff811115613eb6578182fd5b6020830191508360208083028501011115613ed057600080fd5b9250929050565b600082601f830112613ee7578081fd5b813567ffffffffffffffff811115613f0157613f01614afe565b613f14601f8201601f19166020016148b4565b818152846020838601011115613f28578283fd5b816020850160208301379081016020019190915292915050565b600060208284031215613f53578081fd5b813561209381614b14565b600060208284031215613f6f578081fd5b815161209381614b14565b60008060008060008060c08789031215613f92578182fd5b8635613f9d81614b14565b95506020870135613fad81614b14565b945060408701358015158114613fc1578283fd5b93506060870135613fd181614b2c565b9598949750929560808101359460a0909101359350915050565b600080600060608486031215613fff578283fd5b833561400a81614b14565b9250602084013561401a81614b14565b929592945050506040919091013590565b6000806040838503121561403d578182fd5b823561404881614b14565b946020939093013593505050565b6000806000806040858703121561406b578182fd5b843567ffffffffffffffff80821115614082578384fd5b61408e88838901613e8e565b909650945060208701359150808211156140a6578384fd5b506140b387828801613e8e565b95989497509550505050565b6000602082840312156140d0578081fd5b813560028110612093578182fd5b600080600080600080600080888a036101a08112156140fb578687fd5b893567ffffffffffffffff80821115614112578889fd5b61411e8d838e01613ed7565b9a5060208c0135915080821115614133578889fd5b506141408c828d01613ed7565b98505060408a013561415181614b14565b965060608a013561416181614b14565b955060c0607f1982011215614174578283fd5b506080890193506141886101408a01613e83565b92506141976101608a01613e83565b91506141a66101808a01613e83565b90509295985092959890939650565b600060c082840312156141c6578081fd5b6141d060c06148b4565b82358152602083013560208201526040830135604082015260608301356141f681614b14565b60608201526080838101359082015260a083013561421381614b14565b60a08201529392505050565b600060208284031215614230578081fd5b5035919050565b600060208284031215614248578081fd5b5051919050565b60008060408385031215614261578182fd5b82359150602083013561427381614b14565b809150509250929050565b60006020828403121561428f578081fd5b813561209381614b2c565b6000602082840312156142ab578081fd5b815161209381614b2c565b6001600160a01b0391909116815260200190565b6001600160a01b039687168152949095166020850152911515604084015260ff166060830152608082015260a081019190915260c00190565b6001600160a01b039384168152919092166020820152604081019190915260600190565b6001600160a01b03929092168252602082015260400190565b6001600160a01b039390931683526020830191909152604082015260600190565b901515815260200190565b6001600160a01b0392831681529116602082015260400190565b6001600160a01b039485168152928416602084015292166040820152606081019190915260800190565b6001600160a01b0393909316835260208301919091521515604082015260600190565b6000602080835283518082850152825b818110156143ff578581018301518582016040015282016143e3565b818111156144105783604083870101525b50601f01601f1916929092016040019392505050565b6020808252600190820152604360f81b604082015260600190565b60208082526006908201526514105554d15160d21b604082015260600190565b6020808252600490820152634956574360e01b604082015260600190565b60208082526002908201526124a160f11b604082015260600190565b60208082526003908201526249565760e81b604082015260600190565b6020808252600190820152602160f91b604082015260600190565b60208082526003908201526224a22160e91b604082015260600190565b6020808252600190820152604560f81b604082015260600190565b60208082526012908201527f4e4f545f4c49515549444154455f53454c460000000000000000000000000000604082015260600190565b60208082526004908201526324ab24a960e11b604082015260600190565b60208082526003908201526204956560ec1b604082015260600190565b6020808252602e908201527f496e697469616c697a61626c653a20636f6e747261637420697320616c72656160408201527f647920696e697469616c697a6564000000000000000000000000000000000000606082015260800190565b6020808252600190820152601360fa1b604082015260600190565b60208082526003908201526224a72b60e91b604082015260600190565b6020808252600e908201527f4d4f52455f5448414e5f4f574544000000000000000000000000000000000000604082015260600190565b6020808252600e908201527f494e565f444542545f4f574e4552000000000000000000000000000000000000604082015260600190565b602080825260069082015265494e565f544f60d01b604082015260600190565b6020808252600390820152624f5f4760e81b604082015260600190565b60208082526004908201526324a7262360e11b604082015260600190565b6020808252600f908201527f455843454544535f414c4c4f5745440000000000000000000000000000000000604082015260600190565b6020808252601b908201527f424f52524f57494e475f4d4f52455f5448414e5f414c4c4f5745440000000000604082015260600190565b602080825260029082015261495760f01b604082015260600190565b6020808252600f908201527f494e565f42454e45464943494152590000000000000000000000000000000000604082015260600190565b60208082526012908201527f4e4f545f454e4f5547485f42414c414e43450000000000000000000000000000604082015260600190565b6020808252600190820152602360f91b604082015260600190565b60208082526003908201526249414360e81b604082015260600190565b90815260200190565b9182526001600160a01b0316602082015260400190565b9283526020830191909152604082015260600190565b93845260208401929092526040830152606082015260800190565b60ff929092168252602082015260400190565b6000808335601e19843603018112614885578283fd5b83018035915067ffffffffffffffff82111561489f578283fd5b602001915036819003821315613ed057600080fd5b604051601f8201601f1916810167ffffffffffffffff811182821017156148dd576148dd614afe565b604052919050565b600082198211156148f8576148f8614ae8565b500190565b60008261491857634e487b7160e01b81526012600452602481fd5b500490565b80825b600180861161492f575061495a565b81870482111561494157614941614ae8565b8086161561494e57918102915b9490941c938002614920565b94509492505050565b600061223160001960ff85168460008261497f57506001612093565b8161498c57506000612093565b81600181146149a257600281146149ac576149d9565b6001915050612093565b60ff8411156149bd576149bd614ae8565b6001841b9150848211156149d3576149d3614ae8565b50612093565b5060208310610133831016604e8410600b8410161715614a0c575081810a83811115614a0757614a07614ae8565b612093565b614a19848484600161491d565b808604821115614a2b57614a2b614ae8565b02949350505050565b6000816000190483118215151615614a4e57614a4e614ae8565b500290565b600082821015614a6557614a65614ae8565b500390565b600060ff821660ff841680821015614a8457614a84614ae8565b90039392505050565b600281046001821680614aa157607f821691505b60208210811415614ac257634e487b7160e01b600052602260045260246000fd5b50919050565b600060ff821660ff811415614adf57614adf614ae8565b60010192915050565b634e487b7160e01b600052601160045260246000fd5b634e487b7160e01b600052604160045260246000fd5b6001600160a01b0381168114614b2957600080fd5b50565b60ff81168114614b2957600080fdfea2646970667358221220909501f1c861031df36a2adcfa564967bee20a6f59941d3c8bb595b6aa169f7564736f6c63430008010033",
  "devdoc": {
    "author": "@samparsky",
    "kind": "dev",
    "methods": {
      "accrueInterest()": {
        "details": "This calculates interest accrued from the last checkpointed block up to the current block and writes new checkpoint to storage."
      },
      "borrow(uint256,address)": {
        "details": "we use normalized amounts to calculate the",
        "params": {
          "_amountToBorrow": "is the amount of the borrow asset vault shares the user wants to borrow",
          "_debtOwner": "this should be the msg.sender or address that delegates credit to the msg.sender"
        }
      },
      "borrowBalanceCurrent(address)": {
        "params": {
          "_account": "The address whose balance should be calculated after updating borrowIndex"
        },
        "returns": {
          "_0": "The calculated balance*"
        }
      },
      "borrowRatePerBlock()": {
        "returns": {
          "_0": "The borrow interest rate per block, scaled by 1e18"
        }
      },
      "calcBorrowLimit(uint256)": {
        "params": {
          "_collateralValueInUSD": "is the USD value of the users collateral"
        }
      },
      "calcCollateralRequired(uint256)": {
        "params": {
          "_borrowAmount": "is the input borrow amount"
        }
      },
      "calculateLiquidationFee(uint256)": {
        "params": {
          "_amount": "is a uint representing the full amount earned as interest"
        }
      },
      "collateralOfAccount(address)": {
        "params": {
          "_account": "is the address of the account being looked up"
        }
      },
      "depositBorrowAsset(address,uint256)": {
        "details": "the user should initially have deposited in the vault transfer appropriate amount of underlying from msg.sender to the LendingPair",
        "params": {
          "_amount": "is the amount of underlying borrow asset being deposited",
          "_tokenRecipient": "whom to credit the wrapped tokens"
        }
      },
      "depositCollateral(address,uint256)": {
        "params": {
          "_amount": "is the amount of underlying collateral asset being deposited",
          "_tokenRecipient": "address to credit the wrapped collateral shares"
        }
      },
      "exchangeRateCurrent()": {
        "returns": {
          "_0": "Calculated exchange rate scaled by 1e18"
        }
      },
      "getBorrowLimit(address)": {
        "details": "this calculation uses current values for calculations",
        "params": {
          "_account": "is the input account address"
        }
      },
      "getBorrowLimitInUSD(address)": {
        "details": "this calculation uses current values for calculations",
        "params": {
          "_account": "is the input account address"
        }
      },
      "getMaxWithdrawAllowed(address)": {
        "details": "this function runs calculations to accrue interest for an up to date amount",
        "params": {
          "_account": "is the account being checked"
        }
      },
      "getPriceOfBorrowAsset()": {
        "details": "returns price of collateral in usd"
      },
      "getPriceOfCollateral()": {
        "details": "returns price of collateral in usd"
      },
      "getPriceOfToken(address,uint256)": {
        "params": {
          "_amount": "this is the amount of tokens",
          "_token": "this is the price of the token"
        }
      },
      "getTotalAvailableCollateralValue(address)": {
        "details": "this function runs calculations to accrue interest for an up to date amount",
        "params": {
          "_account": "is the address whos collateral is being retreived"
        }
      },
      "getTotalAvailableCollateralValueInUSD(address)": {
        "details": "this function runs calculations to accrue interest for an up to date amount",
        "params": {
          "_account": "is the address whos collateral is being retreived"
        }
      },
      "initialize(string,string,address,address,(uint256,uint256,uint256,address,uint256,address),address,address,address)": {
        "params": {
          "_asset": "borrow asset  ",
          "_collateralAsset": "pair collateral",
          "_name": "for lending pair",
          "_pauseGuardian": "pause guardian address",
          "_symbol": "for lending pair",
          "_wrappedCollateralAsset": "wrapped token minted when depositing collateral asset"
        }
      },
      "pause(uint8)": {
        "details": "pause actions in the lending pair"
      },
      "redeem(address,uint256)": {
        "params": {
          "_amount": "of wrapper token to redeem",
          "_to": "Address to send the underlying tokens to"
        }
      },
      "repay(uint256,address)": {
        "params": {
          "_beneficiary": "address to repay loan position",
          "_repayAmount": "The amount of borrow asset to repay represented in underlying"
        }
      },
      "supplyRatePerBlock()": {
        "returns": {
          "_0": "The supply interest rate per block, scaled by 1e18"
        }
      },
      "unpause(uint8)": {
        "details": "unpause actions in lending pair"
      },
      "withdrawFees(uint256)": {
        "details": "this function can be called by anyone",
        "params": {
          "_toWithdraw": "is the amount of a reservers being withdrawn in tokens"
        }
      }
    },
    "stateVariables": {
      "PRECISION": {
        "details": "liquidation fee precision"
      },
      "VERSION": {
        "details": "version"
      },
      "_borrowAssetUnderlyingDecimal": {
        "details": "borrow asset underlying decimal"
      },
      "_collateralAssetUnderlyingDecimal": {
        "details": "collateral asset underlying decimal"
      },
      "accrualBlockNumber": {
        "details": "Block number that interest was last accrued at"
      },
      "borrowIndex": {
        "details": "Accumulator of the total earned interest rate since the opening of the market"
      },
      "collateralFactor": {
        "details": "The amount of collateral required for a borrow position in 1e18"
      },
      "initialExchangeRateMantissa": {
        "details": "initialExchangeRateMantissa Initial exchange rate used when minting"
      },
      "name": {
        "details": "lending pair name"
      },
      "reserveFactorMantissa": {
        "details": "Fraction of interest currently set aside for reserves"
      },
      "symbol": {
        "details": "lending pair symbol"
      }
    },
    "title": "LendingPair",
    "version": 1
  },
  "userdoc": {
    "events": {
      "Deposit(address,address,address,address,uint256)": {
        "notice": "Emitted on deposit"
      },
      "Liquidate(address,address,address,uint256,address)": {
        "notice": "Emitted on liquidation"
      },
      "Redeem(address,address,address,address,uint256,uint256)": {
        "notice": "Emitted on Redeem"
      },
      "Repay(address,address,address,address,uint256)": {
        "notice": "Emitted on repay"
      }
    },
    "kind": "user",
    "methods": {
      "accountInterestIndex(address)": {
        "notice": "Mapping of account addresses to their interest interest index"
      },
      "accrueInterest()": {
        "notice": "Applies accrued interest to total borrows and reserves"
      },
      "asset()": {
        "notice": "The pair borrow asset"
      },
      "borrowBalanceCurrent(address)": {
        "notice": "Accrue interest to updated borrowIndex and then calculate account's borrow balance  using the updated borrowIndex"
      },
      "borrowRatePerBlock()": {
        "notice": "Returns the current per-block borrow interest rate for this cToken"
      },
      "calcBorrowLimit(uint256)": {
        "notice": "calcBorrowLimit is used to calculate the borrow limit for an account  based on the input value of their collateral"
      },
      "calcCollateralRequired(uint256)": {
        "notice": "calcCollateralRequired returns the amount of collateral needed for an input borrow value"
      },
      "calculateLiquidationFee(uint256)": {
        "notice": "calculateFee is used to calculate the fee earned"
      },
      "collateralAsset()": {
        "notice": "The pair collateral asset"
      },
      "collateralOfAccount(address)": {
        "notice": "collateralOfAccount is a view function to retreive an accounts collateral"
      },
      "debtToken()": {
        "notice": "The wrapper token for debt"
      },
      "depositCollateral(address,uint256)": {
        "notice": "deposit allows a user to deposit underlying collateral from vault"
      },
      "exchangeRateCurrent()": {
        "notice": "Accrue interest then return the up-to-date exchange rate"
      },
      "feeWithdrawalAddr()": {
        "notice": "The address to withdraw fees to"
      },
      "getBorrowLimit(address)": {
        "notice": "getBorrowLimit returns the borrow limit for an account"
      },
      "getBorrowLimitInUSD(address)": {
        "notice": "getBorrowLimit returns the borrow limit for an account"
      },
      "getCashPrior()": {
        "notice": "getCashPrior is a view funcion that returns the balance of all held borrow asset"
      },
      "getMaxWithdrawAllowed(address)": {
        "notice": "Figures out how much of a given collateral an account is allowed to withdraw"
      },
      "getPriceOfToken(address,uint256)": {
        "notice": "getPriceOfToken returns price of token in usd"
      },
      "getTotalAvailableCollateralValue(address)": {
        "notice": "getTotalAvailableCollateralValue returns the total availible collaeral value for an account"
      },
      "getTotalAvailableCollateralValueInUSD(address)": {
        "notice": "getTotalAvailableCollateralValueInUSD returns the total availible collaeral value for an account in USD"
      },
      "initialize(string,string,address,address,(uint256,uint256,uint256,address,uint256,address),address,address,address)": {
        "notice": "Initialize function"
      },
      "interestRate()": {
        "notice": "The interest rate model for the borrow asset"
      },
      "liquidationFee()": {
        "notice": "liquidation fee in 1e18"
      },
      "oracle()": {
        "notice": "The price oracle for the assets"
      },
      "pauseGuardian()": {
        "notice": "the address that can pause borrow & deposits of assets"
      },
      "pauseStatus(uint8)": {
        "notice": "Mapping of action to pause status"
      },
      "protocolLiquidationFeeShare()": {
        "notice": "protocol liquidation fee percent in 1e18"
      },
      "redeem(address,uint256)": {
        "notice": "Allows a user to redeem their Wrapper Token for the appropriate amount of underlying asset"
      },
      "repay(uint256,address)": {
        "notice": "Sender repays their own borrow"
      },
      "supplyRatePerBlock()": {
        "notice": "Returns the current per-block supply interest rate for this cToken"
      },
      "totalBorrows()": {
        "notice": "Total amount of outstanding borrows of the asset in this market"
      },
      "totalReserves()": {
        "notice": "Total amount of reserves of the underlying held in this market"
      },
      "vault()": {
        "notice": "where the tokens are stored"
      },
      "withdrawFees(uint256)": {
        "notice": "withdrawFees to the feeWithdrawalAddr"
      },
      "wrappedCollateralAsset()": {
        "notice": "The wrapper token for the collateral asset"
      },
      "wrapperBorrowedAsset()": {
        "notice": "The wrapper token for the borrow asset"
      }
    },
    "version": 1
  },
  "storageLayout": {
    "storage": [
      {
        "astId": 13471,
        "contract": "contracts/LendingPair.sol:LendingPair",
        "label": "_initialized",
        "offset": 0,
        "slot": "0",
        "type": "t_bool"
      },
      {
        "astId": 13474,
        "contract": "contracts/LendingPair.sol:LendingPair",
        "label": "_initializing",
        "offset": 1,
        "slot": "0",
        "type": "t_bool"
      },
      {
        "astId": 2811,
        "contract": "contracts/LendingPair.sol:LendingPair",
        "label": "name",
        "offset": 0,
        "slot": "1",
        "type": "t_string_storage"
      },
      {
        "astId": 2814,
        "contract": "contracts/LendingPair.sol:LendingPair",
        "label": "symbol",
        "offset": 0,
        "slot": "2",
        "type": "t_string_storage"
      },
      {
        "astId": 2829,
        "contract": "contracts/LendingPair.sol:LendingPair",
        "label": "interestRate",
        "offset": 0,
        "slot": "3",
        "type": "t_contract(IInterestRateModel)9381"
      },
      {
        "astId": 2840,
        "contract": "contracts/LendingPair.sol:LendingPair",
        "label": "_borrowAssetUnderlyingDecimal",
        "offset": 20,
        "slot": "3",
        "type": "t_uint8"
      },
      {
        "astId": 2843,
        "contract": "contracts/LendingPair.sol:LendingPair",
        "label": "_collateralAssetUnderlyingDecimal",
        "offset": 21,
        "slot": "3",
        "type": "t_uint8"
      },
      {
        "astId": 2846,
        "contract": "contracts/LendingPair.sol:LendingPair",
        "label": "initialExchangeRateMantissa",
        "offset": 0,
        "slot": "4",
        "type": "t_uint256"
      },
      {
        "astId": 2849,
        "contract": "contracts/LendingPair.sol:LendingPair",
        "label": "reserveFactorMantissa",
        "offset": 0,
        "slot": "5",
        "type": "t_uint256"
      },
      {
        "astId": 2852,
        "contract": "contracts/LendingPair.sol:LendingPair",
        "label": "accrualBlockNumber",
        "offset": 0,
        "slot": "6",
        "type": "t_uint256"
      },
      {
        "astId": 2856,
        "contract": "contracts/LendingPair.sol:LendingPair",
        "label": "borrowIndex",
        "offset": 0,
        "slot": "7",
        "type": "t_uint256"
      },
      {
        "astId": 2860,
        "contract": "contracts/LendingPair.sol:LendingPair",
        "label": "totalReserves",
        "offset": 0,
        "slot": "8",
        "type": "t_uint256"
      },
      {
        "astId": 2863,
        "contract": "contracts/LendingPair.sol:LendingPair",
        "label": "collateralFactor",
        "offset": 0,
        "slot": "9",
        "type": "t_uint256"
      },
      {
        "astId": 2866,
        "contract": "contracts/LendingPair.sol:LendingPair",
        "label": "liquidationFee",
        "offset": 0,
        "slot": "10",
        "type": "t_uint256"
      },
      {
        "astId": 2873,
        "contract": "contracts/LendingPair.sol:LendingPair",
        "label": "pauseGuardian",
        "offset": 0,
        "slot": "11",
        "type": "t_address"
      },
      {
        "astId": 2878,
        "contract": "contracts/LendingPair.sol:LendingPair",
        "label": "asset",
        "offset": 0,
        "slot": "12",
        "type": "t_contract(IERC20)849"
      },
      {
        "astId": 2883,
        "contract": "contracts/LendingPair.sol:LendingPair",
        "label": "collateralAsset",
        "offset": 0,
        "slot": "13",
        "type": "t_contract(IERC20)849"
      },
      {
        "astId": 2888,
        "contract": "contracts/LendingPair.sol:LendingPair",
        "label": "wrapperBorrowedAsset",
        "offset": 0,
        "slot": "14",
        "type": "t_contract(IBSWrapperToken)9242"
      },
      {
        "astId": 2893,
        "contract": "contracts/LendingPair.sol:LendingPair",
        "label": "wrappedCollateralAsset",
        "offset": 0,
        "slot": "15",
        "type": "t_contract(IBSWrapperToken)9242"
      },
      {
        "astId": 2898,
        "contract": "contracts/LendingPair.sol:LendingPair",
        "label": "debtToken",
        "offset": 0,
        "slot": "16",
        "type": "t_contract(IDebtToken)9296"
      },
      {
        "astId": 2904,
        "contract": "contracts/LendingPair.sol:LendingPair",
        "label": "accountInterestIndex",
        "offset": 0,
        "slot": "17",
        "type": "t_mapping(t_address,t_uint256)"
      },
      {
        "astId": 2910,
        "contract": "contracts/LendingPair.sol:LendingPair",
        "label": "pauseStatus",
        "offset": 0,
        "slot": "18",
        "type": "t_mapping(t_enum(Actions)2808,t_bool)"
      }
    ],
    "types": {
      "t_address": {
        "encoding": "inplace",
        "label": "address",
        "numberOfBytes": "20"
      },
      "t_bool": {
        "encoding": "inplace",
        "label": "bool",
        "numberOfBytes": "1"
      },
      "t_contract(IBSWrapperToken)9242": {
        "encoding": "inplace",
        "label": "contract IBSWrapperToken",
        "numberOfBytes": "20"
      },
      "t_contract(IDebtToken)9296": {
        "encoding": "inplace",
        "label": "contract IDebtToken",
        "numberOfBytes": "20"
      },
      "t_contract(IERC20)849": {
        "encoding": "inplace",
        "label": "contract IERC20",
        "numberOfBytes": "20"
      },
      "t_contract(IInterestRateModel)9381": {
        "encoding": "inplace",
        "label": "contract IInterestRateModel",
        "numberOfBytes": "20"
      },
      "t_enum(Actions)2808": {
        "encoding": "inplace",
        "label": "enum LendingPair.Actions",
        "numberOfBytes": "1"
      },
      "t_mapping(t_address,t_uint256)": {
        "encoding": "mapping",
        "key": "t_address",
        "label": "mapping(address => uint256)",
        "numberOfBytes": "32",
        "value": "t_uint256"
      },
      "t_mapping(t_enum(Actions)2808,t_bool)": {
        "encoding": "mapping",
        "key": "t_enum(Actions)2808",
        "label": "mapping(enum LendingPair.Actions => bool)",
        "numberOfBytes": "32",
        "value": "t_bool"
      },
      "t_string_storage": {
        "encoding": "bytes",
        "label": "string",
        "numberOfBytes": "32"
      },
      "t_uint256": {
        "encoding": "inplace",
        "label": "uint256",
        "numberOfBytes": "32"
      },
      "t_uint8": {
        "encoding": "inplace",
        "label": "uint8",
        "numberOfBytes": "1"
      }
    }
  }
}