{
  "address": "0x46323361190FE8356cDc28D5Ce235f0D8E2E5858",
  "abi": [
    {
      "inputs": [
        {
          "internalType": "address",
          "name": "_aaveAddressProvider",
          "type": "address"
        },
        {
          "internalType": "contract IBalancerVaultV2",
          "name": "_balancerVault",
          "type": "address"
        },
        {
          "internalType": "contract IBSVault",
          "name": "_warpVault",
          "type": "address"
        }
      ],
      "stateMutability": "nonpayable",
      "type": "constructor"
    },
    {
      "anonymous": false,
      "inputs": [
        {
          "indexed": true,
          "internalType": "address",
          "name": "to",
          "type": "address"
        },
        {
          "indexed": true,
          "internalType": "address",
          "name": "asset",
          "type": "address"
        },
        {
          "indexed": false,
          "internalType": "uint256",
          "name": "amount",
          "type": "uint256"
        },
        {
          "indexed": false,
          "internalType": "uint256",
          "name": "timestamp",
          "type": "uint256"
        }
      ],
      "name": "LogWithdraw",
      "type": "event"
    },
    {
      "anonymous": false,
      "inputs": [
        {
          "indexed": true,
          "internalType": "address",
          "name": "previousOwner",
          "type": "address"
        },
        {
          "indexed": true,
          "internalType": "address",
          "name": "newOwner",
          "type": "address"
        }
      ],
      "name": "OwnershipTransferred",
      "type": "event"
    },
    {
      "stateMutability": "payable",
      "type": "fallback"
    },
    {
      "inputs": [],
      "name": "ADDRESSES_PROVIDER",
      "outputs": [
        {
          "internalType": "contract ILendingPoolAddressesProviderV2",
          "name": "",
          "type": "address"
        }
      ],
      "stateMutability": "view",
      "type": "function"
    },
    {
      "inputs": [],
      "name": "LENDING_POOL",
      "outputs": [
        {
          "internalType": "contract ILendingPoolV2",
          "name": "",
          "type": "address"
        }
      ],
      "stateMutability": "view",
      "type": "function"
    },
    {
      "inputs": [],
      "name": "balancerVault",
      "outputs": [
        {
          "internalType": "contract IBalancerVaultV2",
          "name": "",
          "type": "address"
        }
      ],
      "stateMutability": "view",
      "type": "function"
    },
    {
      "inputs": [
        {
          "internalType": "address[]",
          "name": "assets",
          "type": "address[]"
        },
        {
          "internalType": "uint256[]",
          "name": "amounts",
          "type": "uint256[]"
        },
        {
          "internalType": "uint256[]",
          "name": "premiums",
          "type": "uint256[]"
        },
        {
          "internalType": "address",
          "name": "initiator",
          "type": "address"
        },
        {
          "internalType": "bytes",
          "name": "params",
          "type": "bytes"
        }
      ],
      "name": "executeOperation",
      "outputs": [
        {
          "internalType": "bool",
          "name": "",
          "type": "bool"
        }
      ],
      "stateMutability": "nonpayable",
      "type": "function"
    },
    {
      "inputs": [
        {
          "internalType": "contract IBSLendingPair",
          "name": "pair",
          "type": "address"
        },
        {
          "internalType": "address[]",
          "name": "borrowers",
          "type": "address[]"
        },
        {
          "internalType": "uint256",
          "name": "amount",
          "type": "uint256"
        }
      ],
      "name": "flashLoanToLiquidate",
      "outputs": [],
      "stateMutability": "nonpayable",
      "type": "function"
    },
    {
      "inputs": [],
      "name": "owner",
      "outputs": [
        {
          "internalType": "address",
          "name": "",
          "type": "address"
        }
      ],
      "stateMutability": "view",
      "type": "function"
    },
    {
      "inputs": [],
      "name": "renounceOwnership",
      "outputs": [],
      "stateMutability": "nonpayable",
      "type": "function"
    },
    {
      "inputs": [
        {
          "internalType": "address",
          "name": "newOwner",
          "type": "address"
        }
      ],
      "name": "transferOwnership",
      "outputs": [],
      "stateMutability": "nonpayable",
      "type": "function"
    },
    {
      "inputs": [],
      "name": "warpVault",
      "outputs": [
        {
          "internalType": "contract IBSVault",
          "name": "",
          "type": "address"
        }
      ],
      "stateMutability": "view",
      "type": "function"
    },
    {
      "inputs": [
        {
          "internalType": "address",
          "name": "asset",
          "type": "address"
        }
      ],
      "name": "withdraw",
      "outputs": [],
      "stateMutability": "nonpayable",
      "type": "function"
    },
    {
      "stateMutability": "payable",
      "type": "receive"
    }
  ],
  "transactionHash": "0x038f21bf4a41072cec8c1a806236933f7e4c44ab8ddad004f501dcfe5339dd3e",
  "args": [
    "0xd69C16706F6Fa8d3A8329B0b48C208745740fD86",
    "0xac3e94cc094d20c801935b40b7efa0f93e3ec4c4",
    "0x67EeB1E1dd79a4ec823256Dd6c5C6474025618f6"
  ],
  "solcInputHash": "b199bc12a1394cd8820c04e71f3141e5",
  "bytecode": "0x6101006040523480156200001257600080fd5b50604051620024a6380380620024a68339810160408190526200003591620001d4565b82806001600160a01b03166080816001600160a01b031660601b81525050806001600160a01b0316630261bf8b6040518163ffffffff1660e01b815260040160206040518083038186803b1580156200008d57600080fd5b505afa158015620000a2573d6000803e3d6000fd5b505050506040513d601f19601f82011682018060405250810190620000c89190620001ae565b60601b6001600160601b03191660a052506000620000e5620001aa565b600080546001600160a01b0319166001600160a01b0383169081178255604051929350917f8be0079c531659141344cd1fd0a4f28419497f9722a3daafe3b4186f6b6457e0908290a3506001600160a01b038216620001615760405162461bcd60e51b8152600401620001589062000227565b60405180910390fd5b6001600160a01b0381166200018a5760405162461bcd60e51b815260040162000158906200025e565b6001600160601b0319606092831b811660c052911b1660e05250620002a3565b3390565b600060208284031215620001c0578081fd5b8151620001cd816200028a565b9392505050565b600080600060608486031215620001e9578182fd5b8351620001f6816200028a565b602085015190935062000209816200028a565b60408501519092506200021c816200028a565b809150509250925092565b60208082526016908201527f496e76616c69642042616c616e636572205661756c7400000000000000000000604082015260600190565b602080825260129082015271125b9d985b1a590815d85c9c0815985d5b1d60721b604082015260600190565b6001600160a01b0381168114620002a057600080fd5b50565b60805160601c60a05160601c60c05160601c60e05160601c61217e62000328600039600081816108b101528181610bf101528181610c8a01528181610d3001528181610e6e0152610f920152600081816101e5015281816114b401526115a80152600081816106d90152818161088d01526111b9015260006101c1015261217e6000f3fe6080604052600436106100955760003560e01c8063902877be11610059578063902877be14610128578063920f5c8414610148578063b4dcfc7714610175578063deb18f791461018a578063f2fde38b1461019f5761009c565b80630542975c1461009e578063158274a5146100c957806351cff8d9146100de578063715018a6146100fe5780638da5cb5b146101135761009c565b3661009c57005b005b3480156100aa57600080fd5b506100b36101bf565b6040516100c09190611c61565b60405180910390f35b3480156100d557600080fd5b506100b36101e3565b3480156100ea57600080fd5b5061009c6100f936600461182d565b610207565b34801561010a57600080fd5b5061009c61037b565b34801561011f57600080fd5b506100b3610411565b34801561013457600080fd5b5061009c610143366004611a56565b610420565b34801561015457600080fd5b50610168610163366004611939565b610756565b6040516100c09190611d82565b34801561018157600080fd5b506100b361088b565b34801561019657600080fd5b506100b36108af565b3480156101ab57600080fd5b5061009c6101ba36600461182d565b6108d3565b7f000000000000000000000000000000000000000000000000000000000000000081565b7f000000000000000000000000000000000000000000000000000000000000000081565b61020f6109a0565b6001600160a01b0316610220610411565b6001600160a01b03161461024f5760405162461bcd60e51b815260040161024690611e96565b60405180910390fd5b60006001600160a01b038216610298575060405130803191339083156108fc029084906000818181858888f19350505050158015610291573d6000803e3d6000fd5b505061032a565b6040516370a0823160e01b81526001600160a01b038316906370a08231906102c4903090600401611c61565b60206040518083038186803b1580156102dc57600080fd5b505afa1580156102f0573d6000803e3d6000fd5b505050506040513d601f19601f820116820180604052508101906103149190611b28565b905061032a6001600160a01b03831633836109a4565b816001600160a01b0316336001600160a01b03167f74217ce088f00bfd283666b763c64f0d1b1c345591dfdd01891dddf52446694e834260405161036f929190612027565b60405180910390a35050565b6103836109a0565b6001600160a01b0316610394610411565b6001600160a01b0316146103ba5760405162461bcd60e51b815260040161024690611e96565b600080546040516001600160a01b03909116907f8be0079c531659141344cd1fd0a4f28419497f9722a3daafe3b4186f6b6457e0908390a36000805473ffffffffffffffffffffffffffffffffffffffff19169055565b6000546001600160a01b031690565b6001600160a01b0383166104465760405162461bcd60e51b815260040161024690611e2a565b6040805160018082528183019092526000916020808301908036833701905050905060008160008151811061048b57634e487b7160e01b600052603260045260246000fd5b6020908102919091010152604080516001808252818301909252600091816020016020820280368337019050509050846001600160a01b03166338d52e0f6040518163ffffffff1660e01b815260040160206040518083038186803b1580156104f357600080fd5b505afa158015610507573d6000803e3d6000fd5b505050506040513d601f19601f8201168201806040525081019061052b9190611b0c565b8160008151811061054c57634e487b7160e01b600052603260045260246000fd5b6001600160a01b03929092166020928302919091019091015260408051600180825281830190925260009181602001602082028036833701905050905083816000815181106105ab57634e487b7160e01b600052603260045260246000fd5b602002602001018181525050600086876001600160a01b031663aabaecd66040518163ffffffff1660e01b815260040160206040518083038186803b1580156105f357600080fd5b505afa158015610607573d6000803e3d6000fd5b505050506040513d601f19601f8201168201806040525081019061062b9190611b0c565b886001600160a01b03166338d52e0f6040518163ffffffff1660e01b815260040160206040518083038186803b15801561066457600080fd5b505afa158015610678573d6000803e3d6000fd5b505050506040513d601f19601f8201168201806040525081019061069c9190611b0c565b33896040516020016106b2959493929190611d2d565b60408051601f198184030181529082905263ab9c4b5d60e01b825291506001600160a01b037f0000000000000000000000000000000000000000000000000000000000000000169063ab9c4b5d9061071b903090879087908a9084908990600090600401611cae565b600060405180830381600087803b15801561073557600080fd5b505af1158015610749573d6000803e3d6000fd5b5050505050505050505050565b60008061079884848080601f016020809104026020016040519081016040528093929190818152602001838380828437600092019190915250610a2c92505050565b905060018a1480156107f4575080604001516001600160a01b03168b8b60008181106107d457634e487b7160e01b600052603260045260246000fd5b90506020020160208101906107e9919061182d565b6001600160a01b0316145b801561080557506000816080015151115b6108215760405162461bcd60e51b815260040161024690611ecb565b61087a8989600081811061084557634e487b7160e01b600052603260045260246000fd5b90506020020135828989600081811061086e57634e487b7160e01b600052603260045260246000fd5b90506020020135610a94565b5060019a9950505050505050505050565b7f000000000000000000000000000000000000000000000000000000000000000081565b7f000000000000000000000000000000000000000000000000000000000000000081565b6108db6109a0565b6001600160a01b03166108ec610411565b6001600160a01b0316146109125760405162461bcd60e51b815260040161024690611e96565b6001600160a01b0381166109385760405162461bcd60e51b815260040161024690611de4565b600080546040516001600160a01b03808516939216917f8be0079c531659141344cd1fd0a4f28419497f9722a3daafe3b4186f6b6457e091a36000805473ffffffffffffffffffffffffffffffffffffffff19166001600160a01b0392909216919091179055565b3390565b610a278363a9059cbb60e01b84846040516024016109c3929190611d69565b60408051601f198184030181529190526020810180517bffffffffffffffffffffffffffffffffffffffffffffffffffffffff167fffffffff00000000000000000000000000000000000000000000000000000000909316929092179091526113fe565b505050565b610a3461176f565b600080600080600086806020019051810190610a509190611849565b6040805160a0810182526001600160a01b03968716815294861660208601529285169284019290925290921660608201526080810191909152979650505050505050565b610a9c61179f565b82602001516001600160a01b03166370a08231306040518263ffffffff1660e01b8152600401610acc9190611c61565b60206040518083038186803b158015610ae457600080fd5b505afa158015610af8573d6000803e3d6000fd5b505050506040513d601f19601f82011682018060405250810190610b1c9190611b28565b81604001818152505082604001516001600160a01b03166370a08231306040518263ffffffff1660e01b8152600401610b559190611c61565b60206040518083038186803b158015610b6d57600080fd5b505afa158015610b81573d6000803e3d6000fd5b505050506040513d601f19601f82011682018060405250810190610ba59190611b28565b808252610bb39085906120a2565b60e0820152610bc2828561208a565b6080820152604080840151905163095ea7b360e01b81526001600160a01b039091169063095ea7b390610c1b907f0000000000000000000000000000000000000000000000000000000000000000908890600401611d69565b602060405180830381600087803b158015610c3557600080fd5b505af1158015610c49573d6000803e3d6000fd5b505050506040513d601f19601f82011682018060405250810190610c6d9190611a36565b506040808401519051630284c3f560e01b81526001600160a01b037f00000000000000000000000000000000000000000000000000000000000000001691630284c3f591610cc49190309081908a90600401611da7565b6040805180830381600087803b158015610cdd57600080fd5b505af1158015610cf1573d6000803e3d6000fd5b505050506040513d601f19601f82011682018060405250810190610d159190611b40565b50508251604051630fc8706d60e21b81526001600160a01b037f00000000000000000000000000000000000000000000000000000000000000001691633f21c1b491610d6f91309160019060009081908190600401611c75565b600060405180830381600087803b158015610d8957600080fd5b505af1158015610d9d573d6000803e3d6000fd5b5050505060005b836080015151811015610e515783600001516001600160a01b0316632f86556885608001518381518110610de857634e487b7160e01b600052603260045260246000fd5b60200260200101516040518263ffffffff1660e01b8152600401610e0c9190611c61565b600060405180830381600087803b158015610e2657600080fd5b505af1158015610e3a573d6000803e3d6000fd5b505050508080610e49906120e9565b915050610da4565b506040808401519051633de222bb60e21b81526001600160a01b037f00000000000000000000000000000000000000000000000000000000000000001691630b620b819130908190859063f7888aec90610eb19086908590600401611d8d565b60206040518083038186803b158015610ec957600080fd5b505afa158015610edd573d6000803e3d6000fd5b505050506040513d601f19601f82011682018060405250810190610f019190611b28565b6040518563ffffffff1660e01b8152600401610f209493929190611da7565b602060405180830381600087803b158015610f3a57600080fd5b505af1158015610f4e573d6000803e3d6000fd5b505050506040513d601f19601f82011682018060405250810190610f729190611b28565b506020830151604051633de222bb60e21b81526000916001600160a01b037f00000000000000000000000000000000000000000000000000000000000000001691630b620b81919030908190859063f7888aec90610fd69086908590600401611d8d565b60206040518083038186803b158015610fee57600080fd5b505afa158015611002573d6000803e3d6000fd5b505050506040513d601f19601f820116820180604052508101906110269190611b28565b6040518563ffffffff1660e01b81526004016110459493929190611da7565b602060405180830381600087803b15801561105f57600080fd5b505af1158015611073573d6000803e3d6000fd5b505050506040513d601f19601f820116820180604052508101906110979190611b28565b90508160400151816110a991906120a2565b606083015260408085015190516370a0823160e01b81526000916001600160a01b0316906370a08231906110e1903090600401611c61565b60206040518083038186803b1580156110f957600080fd5b505afa15801561110d573d6000803e3d6000fd5b505050506040513d601f19601f820116820180604052508101906111319190611b28565b90508260e001518161114391906120a2565b602080850182905286015160408701516060860151608087015161116f9461116a916120a2565b61148d565b60a08401819052606084015161118591906120a2565b60c08401526040808601516080850151915163095ea7b360e01b81526001600160a01b039091169163095ea7b3916111e1917f000000000000000000000000000000000000000000000000000000000000000091600401611d69565b602060405180830381600087803b1580156111fb57600080fd5b505af115801561120f573d6000803e3d6000fd5b505050506040513d601f19601f820116820180604052508101906112339190611a36565b5060c0830151156112cc5784602001516001600160a01b031663a9059cbb86606001518560c001516040518363ffffffff1660e01b8152600401611278929190611d69565b602060405180830381600087803b15801561129257600080fd5b505af11580156112a6573d6000803e3d6000fd5b505050506040513d601f19601f820116820180604052508101906112ca9190611a36565b505b600085604001516001600160a01b03166370a08231306040518263ffffffff1660e01b81526004016112fe9190611c61565b60206040518083038186803b15801561131657600080fd5b505afa15801561132a573d6000803e3d6000fd5b505050506040513d601f19601f8201168201806040525081019061134e9190611b28565b905083608001518111156113f55785604001516001600160a01b031663a9059cbb876060015186608001518461138491906120a2565b6040518363ffffffff1660e01b81526004016113a1929190611d69565b602060405180830381600087803b1580156113bb57600080fd5b505af11580156113cf573d6000803e3d6000fd5b505050506040513d601f19601f820116820180604052508101906113f39190611a36565b505b50505050505050565b6000611453826040518060400160405280602081526020017f5361666545524332303a206c6f772d6c6576656c2063616c6c206661696c6564815250856001600160a01b03166116579092919063ffffffff16565b805190915015610a2757808060200190518101906114719190611a36565b610a275760405162461bcd60e51b815260040161024690611f39565b60405163095ea7b360e01b81526000906001600160a01b0386169063095ea7b3906114de907f0000000000000000000000000000000000000000000000000000000000000000908790600401611d69565b602060405180830381600087803b1580156114f857600080fd5b505af115801561150c573d6000803e3d6000fd5b505050506040513d601f19601f820116820180604052508101906115309190611a36565b506040805160c081018252600080825260208083018290526001600160a01b038981168486015288811660608086019190915260808086018a90528651808801885260048152630307830360e41b8186015260a0870152865190810187523080825293810185905295860192909252908401919091527f000000000000000000000000000000000000000000000000000000000000000016916352bbbe299190856115dd42610e1061208a565b6040518563ffffffff1660e01b81526004016115fc9493929190611f83565b602060405180830381600087803b15801561161657600080fd5b505af115801561162a573d6000803e3d6000fd5b505050506040513d601f19601f8201168201806040525081019061164e9190611b28565b95945050505050565b60606116668484600085611670565b90505b9392505050565b6060824710156116925760405162461bcd60e51b815260040161024690611e50565b61169b85611730565b6116b75760405162461bcd60e51b815260040161024690611f02565b600080866001600160a01b031685876040516116d39190611c45565b60006040518083038185875af1925050503d8060008114611710576040519150601f19603f3d011682016040523d82523d6000602084013e611715565b606091505b5091509150611725828286611736565b979650505050505050565b3b151590565b60608315611745575081611669565b8251156117555782518084602001fd5b8160405162461bcd60e51b81526004016102469190611dd1565b6040805160a081018252600080825260208201819052918101829052606080820192909252608081019190915290565b60405180610100016040528060008152602001600081526020016000815260200160008152602001600081526020016000815260200160008152602001600081525090565b60008083601f8401126117f5578182fd5b50813567ffffffffffffffff81111561180c578182fd5b602083019150836020808302850101111561182657600080fd5b9250929050565b60006020828403121561183e578081fd5b813561166981612130565b600080600080600060a08688031215611860578081fd5b855161186b81612130565b8095505060208087015161187e81612130565b604088015190955061188f81612130565b60608801519094506118a081612130565b608088015190935067ffffffffffffffff8111156118bc578283fd5b8701601f810189136118cc578283fd5b80516118df6118da82612066565b612035565b81815283810190838501858402850186018d10156118fb578687fd5b8694505b8385101561192657805161191281612130565b8352600194909401939185019185016118ff565b5080955050505050509295509295909350565b600080600080600080600080600060a08a8c031215611956578384fd5b893567ffffffffffffffff8082111561196d578586fd5b6119798d838e016117e4565b909b50995060208c0135915080821115611991578586fd5b61199d8d838e016117e4565b909950975060408c01359150808211156119b5578586fd5b6119c18d838e016117e4565b909750955060608c013591506119d682612130565b90935060808b013590808211156119eb578384fd5b818c0191508c601f8301126119fe578384fd5b813581811115611a0c578485fd5b8d6020828501011115611a1d578485fd5b6020830194508093505050509295985092959850929598565b600060208284031215611a47578081fd5b81518015158114611669578182fd5b600080600060608486031215611a6a578283fd5b8335611a7581612130565b925060208481013567ffffffffffffffff811115611a91578384fd5b8501601f81018713611aa1578384fd5b8035611aaf6118da82612066565b81815283810190838501858402850186018b1015611acb578788fd5b8794505b83851015611af6578035611ae281612130565b835260019490940193918501918501611acf565b5096999698505050506040949094013593505050565b600060208284031215611b1d578081fd5b815161166981612130565b600060208284031215611b39578081fd5b5051919050565b60008060408385031215611b52578182fd5b505080516020909101519092909150565b6001600160a01b03169052565b6000815180845260208085019450808401835b83811015611ba85781516001600160a01b031687529582019590820190600101611b83565b509495945050505050565b6000815180845260208085019450808401835b83811015611ba857815187529582019590820190600101611bc6565b60008151808452611bfa8160208601602086016120b9565b601f01601f19169290920160200192915050565b6001600160a01b03808251168352602082015115156020840152806040830151166040840152506060810151151560608301525050565b60008251611c578184602087016120b9565b9190910192915050565b6001600160a01b0391909116815260200190565b6001600160a01b039687168152949095166020850152911515604084015260ff166060830152608082015260a081019190915260c00190565b60006001600160a01b03808a16835260e06020840152611cd160e084018a611b70565b8381036040850152611ce3818a611bb3565b90508381036060850152611cf78189611bb3565b9050818716608085015283810360a0850152611d138187611be2565b9250505061ffff831660c083015298975050505050505050565b60006001600160a01b0380881683528087166020840152808616604084015280851660608401525060a0608083015261172560a0830184611b70565b6001600160a01b03929092168252602082015260400190565b901515815260200190565b6001600160a01b0392831681529116602082015260400190565b6001600160a01b039485168152928416602084015292166040820152606081019190915260800190565b6000602082526116696020830184611be2565b60208082526026908201527f4f776e61626c653a206e6577206f776e657220697320746865207a65726f206160408201526564647265737360d01b606082015260800190565b6020808252600c908201526b24b73b30b634b2102830b4b960a11b604082015260600190565b60208082526026908201527f416464726573733a20696e73756666696369656e742062616c616e636520666f6040820152651c8818d85b1b60d21b606082015260800190565b6020808252818101527f4f776e61626c653a2063616c6c6572206973206e6f7420746865206f776e6572604082015260600190565b60208082526013908201527f494e434f4e53495354454e545f504152414d5300000000000000000000000000604082015260600190565b6020808252601d908201527f416464726573733a2063616c6c20746f206e6f6e2d636f6e7472616374000000604082015260600190565b6020808252602a908201527f5361666545524332303a204552433230206f7065726174696f6e20646964206e6040820152691bdd081cdd58d8d9595960b21b606082015260800190565b600060e08252855160e0830152602086015160028110611fb157634e487b7160e01b82526021600452602482fd5b6101008301526040860151611fca610120840182611b63565b506060860151611fde610140840182611b63565b50608086015161016083015260a086015160c06101808401526120056101a0840182611be2565b9150506120156020830186611c0e565b60a082019390935260c0015292915050565b918252602082015260400190565b604051601f8201601f1916810167ffffffffffffffff8111828210171561205e5761205e61211a565b604052919050565b600067ffffffffffffffff8211156120805761208061211a565b5060209081020190565b6000821982111561209d5761209d612104565b500190565b6000828210156120b4576120b4612104565b500390565b60005b838110156120d45781810151838201526020016120bc565b838111156120e3576000848401525b50505050565b60006000198214156120fd576120fd612104565b5060010190565b634e487b7160e01b600052601160045260246000fd5b634e487b7160e01b600052604160045260246000fd5b6001600160a01b038116811461214557600080fd5b5056fea26469706673582212209127812ad4a9843026423141ff5388fe1a1d436adc5a4547ae1c0b49ade5245d64736f6c63430008010033",
  "devdoc": {
    "author": "@conlot-crypto",
    "kind": "dev",
    "methods": {
      "executeOperation(address[],uint256[],uint256[],address,bytes)": {
        "details": "This function must be called only be the LENDING_POOL and takes care of repaying active debt positions, migrating collateral and incurring new V2 debt token debt.",
        "params": {
          "amounts": "The array of flash loaned asset amounts used to repay debts.",
          "assets": "The array of flash loaned assets used to repay debts.",
          "initiator": "The address that initiated the flash loan, unused.",
          "params": "The byte array containing",
          "premiums": "The array of premiums incurred as additional debts."
        }
      },
      "flashLoanToLiquidate(address,address[],uint256)": {
        "details": "This function will trigger logic to flashloan borrow and liquidate",
        "params": {
          "amount": "of tokens to borrow & liquidate",
          "borrowers": "who will be liquidated",
          "pair": "warp finance pair"
        }
      },
      "owner()": {
        "details": "Returns the address of the current owner."
      },
      "renounceOwnership()": {
        "details": "Leaves the contract without owner. It will not be possible to call `onlyOwner` functions anymore. Can only be called by the current owner. NOTE: Renouncing ownership will leave the contract without an owner, thereby removing any functionality that is only available to the owner."
      },
      "transferOwnership(address)": {
        "details": "Transfers ownership of the contract to a new account (`newOwner`). Can only be called by the current owner."
      },
      "withdraw(address)": {
        "details": "Withdraw asset.",
        "params": {
          "asset": "Asset to be withdrawn."
        }
      }
    },
    "stateVariables": {
      "balancerVault": {
        "details": "Balancer V2 Vault"
      },
      "warpVault": {
        "details": "warp.finanace vault"
      }
    },
    "title": "LiquidationHelper",
    "version": 1
  },
  "userdoc": {
    "kind": "user",
    "methods": {},
    "notice": "Element finance Principal(EFP) token Liquidator Contract. A contract that takes the flash loan from Aave. Repays the debt and liquidates the collateral via the EFP pools. Then uses the remaining funds to repay back the flashloan and keeps the rest as profit For USDC PT/USDC, wBTC PT/wBTC, DAI PT/DAI pairs",
    "version": 1
  },
  "storageLayout": {
    "storage": [
      {
        "astId": 7,
        "contract": "contracts/liquidation/LiquidationHelper.sol:LiquidationHelper",
        "label": "_owner",
        "offset": 0,
        "slot": "0",
        "type": "t_address"
      }
    ],
    "types": {
      "t_address": {
        "encoding": "inplace",
        "label": "address",
        "numberOfBytes": "20"
      }
    }
  }
}