{
  "address": "0x0dB7f23cAC620730f639D28b251aED91e9c4caB4",
  "abi": [
    {
      "inputs": [
        {
          "internalType": "address",
          "name": "_owner",
          "type": "address"
        }
      ],
      "stateMutability": "nonpayable",
      "type": "constructor"
    },
    {
      "anonymous": false,
      "inputs": [
        {
          "indexed": false,
          "internalType": "address",
          "name": "newOwner",
          "type": "address"
        },
        {
          "indexed": false,
          "internalType": "uint256",
          "name": "timestamp",
          "type": "uint256"
        }
      ],
      "name": "OwnershipAccepted",
      "type": "event"
    },
    {
      "anonymous": false,
      "inputs": [
        {
          "indexed": false,
          "internalType": "contract IERC20",
          "name": "_token",
          "type": "address"
        },
        {
          "indexed": false,
          "internalType": "uint256",
          "name": "timestamp",
          "type": "uint256"
        }
      ],
      "name": "StableTokenAdded",
      "type": "event"
    },
    {
      "anonymous": false,
      "inputs": [
        {
          "indexed": false,
          "internalType": "address",
          "name": "_newTeam",
          "type": "address"
        },
        {
          "indexed": false,
          "internalType": "uint256",
          "name": "timestamp",
          "type": "uint256"
        }
      ],
      "name": "TransferControl",
      "type": "event"
    },
    {
      "anonymous": false,
      "inputs": [
        {
          "indexed": false,
          "internalType": "contract IERC20",
          "name": "token",
          "type": "address"
        },
        {
          "indexed": false,
          "internalType": "contract IOracle",
          "name": "oracle",
          "type": "address"
        }
      ],
      "name": "UpdateOracle",
      "type": "event"
    },
    {
      "inputs": [],
      "name": "acceptOwnership",
      "outputs": [],
      "stateMutability": "nonpayable",
      "type": "function"
    },
    {
      "inputs": [
        {
          "internalType": "contract IERC20[]",
          "name": "_tokens",
          "type": "address[]"
        }
      ],
      "name": "addStable",
      "outputs": [],
      "stateMutability": "nonpayable",
      "type": "function"
    },
    {
      "inputs": [
        {
          "internalType": "contract IERC20",
          "name": "",
          "type": "address"
        }
      ],
      "name": "assetToOracle",
      "outputs": [
        {
          "internalType": "contract IOracle",
          "name": "",
          "type": "address"
        }
      ],
      "stateMutability": "view",
      "type": "function"
    },
    {
      "inputs": [
        {
          "internalType": "contract IERC20",
          "name": "_token",
          "type": "address"
        }
      ],
      "name": "getPriceInUSD",
      "outputs": [
        {
          "internalType": "uint256",
          "name": "price",
          "type": "uint256"
        }
      ],
      "stateMutability": "view",
      "type": "function"
    },
    {
      "inputs": [
        {
          "internalType": "contract IERC20[]",
          "name": "_tokens",
          "type": "address[]"
        }
      ],
      "name": "getPriceInUSDMultiple",
      "outputs": [
        {
          "internalType": "uint256[]",
          "name": "prices",
          "type": "uint256[]"
        }
      ],
      "stateMutability": "view",
      "type": "function"
    },
    {
      "inputs": [],
      "name": "owner",
      "outputs": [
        {
          "internalType": "address",
          "name": "",
          "type": "address"
        }
      ],
      "stateMutability": "view",
      "type": "function"
    },
    {
      "inputs": [
        {
          "internalType": "contract IERC20",
          "name": "_asset",
          "type": "address"
        }
      ],
      "name": "removeOracleForAsset",
      "outputs": [],
      "stateMutability": "nonpayable",
      "type": "function"
    },
    {
      "inputs": [
        {
          "internalType": "contract IERC20[]",
          "name": "_asset",
          "type": "address[]"
        },
        {
          "internalType": "contract IOracle[]",
          "name": "_oracle",
          "type": "address[]"
        }
      ],
      "name": "setOracleForAsset",
      "outputs": [],
      "stateMutability": "nonpayable",
      "type": "function"
    },
    {
      "inputs": [
        {
          "internalType": "contract IERC20",
          "name": "",
          "type": "address"
        }
      ],
      "name": "stableTokens",
      "outputs": [
        {
          "internalType": "bool",
          "name": "",
          "type": "bool"
        }
      ],
      "stateMutability": "view",
      "type": "function"
    },
    {
      "inputs": [
        {
          "internalType": "address",
          "name": "_newOwner",
          "type": "address"
        }
      ],
      "name": "transferToNewOwner",
      "outputs": [],
      "stateMutability": "nonpayable",
      "type": "function"
    }
  ],
  "args": [
    "0x90F706114CCA699A59196414a14644446A580D96"
  ],
  "solcInputHash": "d8f710d108043478052b140f0bad2611",
  "bytecode": "0x608060405234801561001057600080fd5b50604051610c01380380610c0183398101604081905261002f91610083565b6001600160a01b03811661005e5760405162461bcd60e51b8152600401610055906100b1565b60405180910390fd5b600080546001600160a01b0319166001600160a01b03929092169190911790556100d8565b600060208284031215610094578081fd5b81516001600160a01b03811681146100aa578182fd5b9392505050565b6020808252600d908201526c24a72b20a624a22fa7aba722a960991b604082015260600190565b610b1a806100e76000396000f3fe608060405234801561001057600080fd5b506004361061009e5760003560e01c80637372e9be116100665780637372e9be1461014157806379ba5097146101545780638da5cb5b1461015c5780639080ddb114610164578063cafa0fd3146101775761009e565b806302266147146100a357806304fb0b56146100cc5780630dc3d0c8146100e15780632e00d2451461010157806342b60b0314610121575b600080fd5b6100b66100b1366004610825565b61018a565b6040516100c39190610a9c565b60405180910390f35b6100df6100da366004610888565b61029a565b005b6100f46100ef366004610848565b610441565b6040516100c39190610936565b61011461010f366004610825565b6104cc565b6040516100c39190610909565b61013461012f366004610825565b6104e7565b6040516100c3919061097a565b6100df61014f366004610825565b6104fc565b6100df6105a4565b61011461062f565b6100df610172366004610825565b61063e565b6100df610185366004610848565b6106be565b6001600160a01b03808216600090815260026020526040812054909116801561023d576001600160a01b038084166000908152600260209081526040918290205482516350d25bcd60e01b815292519316926350d25bcd926004808201939291829003018186803b1580156101fe57600080fd5b505afa158015610212573d6000803e3d6000fd5b505050506040513d601f19601f8201168201806040525081019061023691906108f1565b915061026b565b6001600160a01b03831660009081526003602052604090205460ff1615156001141561026b576305f5e10091505b600082116102945760405162461bcd60e51b815260040161028b9061099f565b60405180910390fd5b50919050565b6000546001600160a01b031633146102c45760405162461bcd60e51b815260040161028b90610a78565b8281146102e35760405162461bcd60e51b815260040161028b90610a5b565b8260005b8181101561043957600084848381811061031157634e487b7160e01b600052603260045260246000fd5b90506020020160208101906103269190610825565b90506001600160a01b03811661034e5760405162461bcd60e51b815260040161028b90610a24565b806002600089898681811061037357634e487b7160e01b600052603260045260246000fd5b90506020020160208101906103889190610825565b6001600160a01b039081168252602082019290925260400160002080546001600160a01b031916929091169190911790557fb1d1442dba579887e297ac433e5716c847abf2dc052ee9de4869b7b1b8f6206d8787848181106103fa57634e487b7160e01b600052603260045260246000fd5b905060200201602081019061040f9190610825565b8260405161041e929190610985565b60405180910390a1508061043181610aa5565b9150506102e7565b505050505050565b60608160005b818110156104c45761048785858381811061047257634e487b7160e01b600052603260045260246000fd5b90506020020160208101906100b19190610825565b8382815181106104a757634e487b7160e01b600052603260045260246000fd5b6020908102919091010152806104bc81610aa5565b915050610447565b505092915050565b6002602052600090815260409020546001600160a01b031681565b60036020526000908152604090205460ff1681565b6000546001600160a01b031633146105265760405162461bcd60e51b815260040161028b90610a78565b6001600160a01b03811661054c5760405162461bcd60e51b815260040161028b906109c6565b600180546001600160a01b0319166001600160a01b0383161790556040517f75ec58ed4c3b4778d64c8fb2682d99b9844d486931205289f0c8e9951eaab83290610599908390429061091d565b60405180910390a150565b6001546001600160a01b031633146105ce5760405162461bcd60e51b815260040161028b906109fd565b60018054600080546001600160a01b03199081166001600160a01b0384161782559091169091556040517f56a56c31bb3f318488e30872a32d64e9e9092a6a23043f6d9e9d71b2545e71729161062591429061091d565b60405180910390a1565b6000546001600160a01b031681565b6000546001600160a01b031633146106685760405162461bcd60e51b815260040161028b90610a78565b6001600160a01b03811660009081526002602052604080822080546001600160a01b0319169055517fb1d1442dba579887e297ac433e5716c847abf2dc052ee9de4869b7b1b8f6206d9161059991849190610985565b6000546001600160a01b031633146106e85760405162461bcd60e51b815260040161028b90610a78565b8060005b818110156107d65760016003600086868581811061071a57634e487b7160e01b600052603260045260246000fd5b905060200201602081019061072f9190610825565b6001600160a01b031681526020810191909152604001600020805460ff19169115159190911790557f09ab69151375e37d84ca1c288831fa9670a177da7f4e87216be1e2f12297f9ce84848381811061079857634e487b7160e01b600052603260045260246000fd5b90506020020160208101906107ad9190610825565b426040516107bc92919061091d565b60405180910390a1806107ce81610aa5565b9150506106ec565b50505050565b60008083601f8401126107ed578182fd5b50813567ffffffffffffffff811115610804578182fd5b602083019150836020808302850101111561081e57600080fd5b9250929050565b600060208284031215610836578081fd5b813561084181610acc565b9392505050565b6000806020838503121561085a578081fd5b823567ffffffffffffffff811115610870578182fd5b61087c858286016107dc565b90969095509350505050565b6000806000806040858703121561089d578182fd5b843567ffffffffffffffff808211156108b4578384fd5b6108c0888389016107dc565b909650945060208701359150808211156108d8578384fd5b506108e5878288016107dc565b95989497509550505050565b600060208284031215610902578081fd5b5051919050565b6001600160a01b0391909116815260200190565b6001600160a01b03929092168252602082015260400190565b6020808252825182820181905260009190848201906040850190845b8181101561096e57835183529284019291840191600101610952565b50909695505050505050565b901515815260200190565b6001600160a01b0392831681529116602082015260400190565b6020808252600d908201526c494e56414c49445f505249434560981b604082015260600190565b60208082526011908201527f494e56414c49445f4e45575f4f574e4552000000000000000000000000000000604082015260600190565b6020808252600d908201526c34b73b30b634b21037bbb732b960991b604082015260600190565b6020808252600e908201527f494e56414c49445f4f5241434c45000000000000000000000000000000000000604082015260600190565b60208082526003908201526224a72b60e91b604082015260600190565b6020808252600a908201526927a7262cafa7aba722a960b11b604082015260600190565b90815260200190565b6000600019821415610ac557634e487b7160e01b81526011600452602481fd5b5060010190565b6001600160a01b0381168114610ae157600080fd5b5056fea264697066735822122032191cacf19cf58c47f7f1363ce1c111c6946f6b4a2d2205e0d2710f5c73090964736f6c63430008010033",
  "devdoc": {
    "author": "@samparsky",
    "kind": "dev",
    "methods": {
      "getPriceInUSD(address)": {
        "params": {
          "_token": "token to fetch price"
        }
      },
      "setOracleForAsset(address[],address[])": {
        "params": {
          "_asset": "the oracle for the asset",
          "_oracle": "the oracle address"
        }
      },
      "transferToNewOwner(address)": {
        "params": {
          "_newOwner": "The new team"
        }
      }
    },
    "stateVariables": {
      "newOwner": {
        "details": "new owner"
      },
      "owner": {
        "details": "admin allowed to update price oracle"
      }
    },
    "title": "PriceOracleAggregator",
    "version": 1
  },
  "userdoc": {
    "kind": "user",
    "methods": {
      "acceptOwnership()": {
        "notice": "accept transfer of control"
      },
      "addStable(address[])": {
        "notice": "addStable use to add stablecoin asset that should be hardcoded"
      },
      "assetToOracle(address)": {
        "notice": "token to the oracle address"
      },
      "getPriceInUSD(address)": {
        "notice": "returns price of token in USD in 1e8 decimals"
      },
      "removeOracleForAsset(address)": {
        "notice": "remove oracle"
      },
      "setOracleForAsset(address[],address[])": {
        "notice": "adds oracle for an asset e.g. ETH"
      },
      "stableTokens(address)": {
        "notice": "stable to is stable status"
      },
      "transferToNewOwner(address)": {
        "notice": "Transfer control from current owner address to another"
      }
    },
    "notice": "aggregator of price oracle for assets in LendingPairs",
    "version": 1
  },
  "storageLayout": {
    "storage": [
      {
        "astId": 9791,
        "contract": "contracts/oracle/PriceOracleAggregator.sol:PriceOracleAggregator",
        "label": "owner",
        "offset": 0,
        "slot": "0",
        "type": "t_address"
      },
      {
        "astId": 9794,
        "contract": "contracts/oracle/PriceOracleAggregator.sol:PriceOracleAggregator",
        "label": "newOwner",
        "offset": 0,
        "slot": "1",
        "type": "t_address"
      },
      {
        "astId": 9801,
        "contract": "contracts/oracle/PriceOracleAggregator.sol:PriceOracleAggregator",
        "label": "assetToOracle",
        "offset": 0,
        "slot": "2",
        "type": "t_mapping(t_contract(IERC20)849,t_contract(IOracle)9397)"
      },
      {
        "astId": 9807,
        "contract": "contracts/oracle/PriceOracleAggregator.sol:PriceOracleAggregator",
        "label": "stableTokens",
        "offset": 0,
        "slot": "3",
        "type": "t_mapping(t_contract(IERC20)849,t_bool)"
      }
    ],
    "types": {
      "t_address": {
        "encoding": "inplace",
        "label": "address",
        "numberOfBytes": "20"
      },
      "t_bool": {
        "encoding": "inplace",
        "label": "bool",
        "numberOfBytes": "1"
      },
      "t_contract(IERC20)849": {
        "encoding": "inplace",
        "label": "contract IERC20",
        "numberOfBytes": "20"
      },
      "t_contract(IOracle)9397": {
        "encoding": "inplace",
        "label": "contract IOracle",
        "numberOfBytes": "20"
      },
      "t_mapping(t_contract(IERC20)849,t_bool)": {
        "encoding": "mapping",
        "key": "t_contract(IERC20)849",
        "label": "mapping(contract IERC20 => bool)",
        "numberOfBytes": "32",
        "value": "t_bool"
      },
      "t_mapping(t_contract(IERC20)849,t_contract(IOracle)9397)": {
        "encoding": "mapping",
        "key": "t_contract(IERC20)849",
        "label": "mapping(contract IERC20 => contract IOracle)",
        "numberOfBytes": "32",
        "value": "t_contract(IOracle)9397"
      }
    }
  }
}