{
  "address": "0xCAa5aF33a1D42C482cebB15ad44245C2Ddf1a009",
  "abi": [
    {
      "stateMutability": "payable",
      "type": "fallback"
    },
    {
      "inputs": [
        {
          "internalType": "address",
          "name": "initialAddress",
          "type": "address"
        }
      ],
      "name": "initializeProxy",
      "outputs": [],
      "stateMutability": "nonpayable",
      "type": "function"
    },
    {
      "stateMutability": "payable",
      "type": "receive"
    }
  ],
  "transactionHash": "0xab68d0a0f2f6a6d95a381ba71fb1fbb030d2ee1f9a90e2a4c2c1b8d7badb436b",
  "args": [],
  "solcInputHash": "d8f710d108043478052b140f0bad2611",
  "bytecode": "0x608060405234801561001057600080fd5b5061022c806100206000396000f3fe6080604052600436106100225760003560e01c80634a0687ef1461003957610031565b366100315761002f610059565b005b61002f610059565b34801561004557600080fd5b5061002f61005436600461015a565b610073565b610061610071565b61007161006c6100de565b6100ed565b565b6001600160a01b0381166100a25760405162461bcd60e51b8152600401610099906101bf565b60405180910390fd5b60006100ac610111565b6001600160a01b0316146100d25760405162461bcd60e51b815260040161009990610188565b6100db81610136565b50565b60006100e8610111565b905090565b3660008037600080366000845af43d6000803e80801561010c573d6000f35b3d6000fd5b7f360894a13ba1a3210667c828492db98dca3e2076cc3735a920a3ca505d382bbc5490565b7f360894a13ba1a3210667c828492db98dca3e2076cc3735a920a3ca505d382bbc55565b60006020828403121561016b578081fd5b81356001600160a01b0381168114610181578182fd5b9392505050565b6020808252601e908201527f5555505350726f78793a20616c726561647920696e697469616c697a65640000604082015260600190565b60208082526017908201527f5555505350726f78793a207a65726f206164647265737300000000000000000060408201526060019056fea2646970667358221220aa71d99a9432d5a0d3901c5894a84a38e1098061c2c4880e3077ef5d2abffc2864736f6c63430008010033",
  "devdoc": {
    "details": "UUPS (Universal Upgradeable Proxy Standard) Proxy NOTE: - Compliant with [Universal Upgradeable Proxy Standard](https://eips.ethereum.org/EIPS/eip-1822) - Compiiant with [Standard Proxy Storage Slots](https://eips.ethereum.org/EIPS/eip-1967) - Implements delegation of calls to other contracts, with proper forwarding of   return values and bubbling of failures. - It defines a fallback function that delegates all calls to the implementation.",
    "kind": "dev",
    "methods": {
      "initializeProxy(address)": {
        "details": "Proxy initialization function.      This should only be called once and it is permission-less.",
        "params": {
          "initialAddress": "Initial logic contract code address to be used."
        }
      }
    },
    "version": 1
  },
  "userdoc": {
    "kind": "user",
    "methods": {},
    "version": 1
  },
  "storageLayout": {
    "storage": [],
    "types": null
  }
}