{
  "address": "0xD6f7c1cE6d2C9C598F0360dF3662c550BC66cf8E",
  "abi": [
    {
      "inputs": [],
      "stateMutability": "nonpayable",
      "type": "constructor"
    },
    {
      "anonymous": false,
      "inputs": [
        {
          "indexed": false,
          "internalType": "address",
          "name": "whitelist",
          "type": "address"
        },
        {
          "indexed": false,
          "internalType": "bool",
          "name": "status",
          "type": "bool"
        }
      ],
      "name": "AllowContract",
      "type": "event"
    },
    {
      "anonymous": false,
      "inputs": [
        {
          "indexed": true,
          "internalType": "address",
          "name": "user",
          "type": "address"
        },
        {
          "indexed": true,
          "internalType": "address",
          "name": "allowed",
          "type": "address"
        },
        {
          "indexed": false,
          "internalType": "bool",
          "name": "status",
          "type": "bool"
        }
      ],
      "name": "Approval",
      "type": "event"
    },
    {
      "anonymous": false,
      "inputs": [
        {
          "indexed": false,
          "internalType": "bytes32",
          "name": "uuid",
          "type": "bytes32"
        },
        {
          "indexed": false,
          "internalType": "address",
          "name": "codeAddress",
          "type": "address"
        }
      ],
      "name": "CodeUpdated",
      "type": "event"
    },
    {
      "anonymous": false,
      "inputs": [
        {
          "indexed": true,
          "internalType": "contract IERC20",
          "name": "token",
          "type": "address"
        },
        {
          "indexed": true,
          "internalType": "address",
          "name": "from",
          "type": "address"
        },
        {
          "indexed": true,
          "internalType": "address",
          "name": "to",
          "type": "address"
        },
        {
          "indexed": false,
          "internalType": "uint256",
          "name": "amount",
          "type": "uint256"
        },
        {
          "indexed": false,
          "internalType": "uint256",
          "name": "shares",
          "type": "uint256"
        }
      ],
      "name": "Deposit",
      "type": "event"
    },
    {
      "anonymous": false,
      "inputs": [
        {
          "indexed": true,
          "internalType": "address",
          "name": "borrower",
          "type": "address"
        },
        {
          "indexed": true,
          "internalType": "contract IERC20",
          "name": "token",
          "type": "address"
        },
        {
          "indexed": false,
          "internalType": "uint256",
          "name": "amount",
          "type": "uint256"
        },
        {
          "indexed": false,
          "internalType": "uint256",
          "name": "feeAmount",
          "type": "uint256"
        },
        {
          "indexed": true,
          "internalType": "address",
          "name": "receiver",
          "type": "address"
        }
      ],
      "name": "FlashLoan",
      "type": "event"
    },
    {
      "anonymous": false,
      "inputs": [
        {
          "indexed": false,
          "internalType": "address",
          "name": "newOwner",
          "type": "address"
        },
        {
          "indexed": false,
          "internalType": "uint256",
          "name": "timestamp",
          "type": "uint256"
        }
      ],
      "name": "OwnershipAccepted",
      "type": "event"
    },
    {
      "anonymous": false,
      "inputs": [
        {
          "indexed": false,
          "internalType": "address",
          "name": "account",
          "type": "address"
        }
      ],
      "name": "Paused",
      "type": "event"
    },
    {
      "anonymous": false,
      "inputs": [
        {
          "indexed": false,
          "internalType": "address",
          "name": "sender",
          "type": "address"
        }
      ],
      "name": "RegisterProtocol",
      "type": "event"
    },
    {
      "anonymous": false,
      "inputs": [
        {
          "indexed": false,
          "internalType": "contract IERC20",
          "name": "token",
          "type": "address"
        },
        {
          "indexed": false,
          "internalType": "uint256",
          "name": "amount",
          "type": "uint256"
        }
      ],
      "name": "RescueFunds",
      "type": "event"
    },
    {
      "anonymous": false,
      "inputs": [
        {
          "indexed": true,
          "internalType": "contract IERC20",
          "name": "token",
          "type": "address"
        },
        {
          "indexed": true,
          "internalType": "address",
          "name": "from",
          "type": "address"
        },
        {
          "indexed": true,
          "internalType": "address",
          "name": "to",
          "type": "address"
        },
        {
          "indexed": false,
          "internalType": "uint256",
          "name": "amount",
          "type": "uint256"
        }
      ],
      "name": "Transfer",
      "type": "event"
    },
    {
      "anonymous": false,
      "inputs": [
        {
          "indexed": false,
          "internalType": "address",
          "name": "_newTeam",
          "type": "address"
        },
        {
          "indexed": false,
          "internalType": "uint256",
          "name": "timestamp",
          "type": "uint256"
        }
      ],
      "name": "TransferControl",
      "type": "event"
    },
    {
      "anonymous": false,
      "inputs": [
        {
          "indexed": false,
          "internalType": "address",
          "name": "account",
          "type": "address"
        }
      ],
      "name": "Unpaused",
      "type": "event"
    },
    {
      "anonymous": false,
      "inputs": [
        {
          "indexed": false,
          "internalType": "uint256",
          "name": "newRate",
          "type": "uint256"
        }
      ],
      "name": "UpdateFlashLoanRate",
      "type": "event"
    },
    {
      "anonymous": false,
      "inputs": [
        {
          "indexed": true,
          "internalType": "contract IERC20",
          "name": "token",
          "type": "address"
        },
        {
          "indexed": true,
          "internalType": "address",
          "name": "from",
          "type": "address"
        },
        {
          "indexed": true,
          "internalType": "address",
          "name": "to",
          "type": "address"
        },
        {
          "indexed": false,
          "internalType": "uint256",
          "name": "shares",
          "type": "uint256"
        },
        {
          "indexed": false,
          "internalType": "uint256",
          "name": "amount",
          "type": "uint256"
        }
      ],
      "name": "Withdraw",
      "type": "event"
    },
    {
      "inputs": [],
      "name": "MAX_FLASHLOAN_RATE",
      "outputs": [
        {
          "internalType": "uint256",
          "name": "",
          "type": "uint256"
        }
      ],
      "stateMutability": "view",
      "type": "function"
    },
    {
      "inputs": [],
      "name": "acceptOwnership",
      "outputs": [],
      "stateMutability": "nonpayable",
      "type": "function"
    },
    {
      "inputs": [
        {
          "internalType": "address",
          "name": "_contract",
          "type": "address"
        },
        {
          "internalType": "bool",
          "name": "_status",
          "type": "bool"
        }
      ],
      "name": "allowContract",
      "outputs": [],
      "stateMutability": "nonpayable",
      "type": "function"
    },
    {
      "inputs": [
        {
          "internalType": "address",
          "name": "",
          "type": "address"
        }
      ],
      "name": "allowedContracts",
      "outputs": [
        {
          "internalType": "bool",
          "name": "",
          "type": "bool"
        }
      ],
      "stateMutability": "view",
      "type": "function"
    },
    {
      "inputs": [
        {
          "internalType": "address",
          "name": "_user",
          "type": "address"
        },
        {
          "internalType": "address",
          "name": "_contract",
          "type": "address"
        },
        {
          "internalType": "bool",
          "name": "_status",
          "type": "bool"
        },
        {
          "internalType": "uint8",
          "name": "v",
          "type": "uint8"
        },
        {
          "internalType": "bytes32",
          "name": "r",
          "type": "bytes32"
        },
        {
          "internalType": "bytes32",
          "name": "s",
          "type": "bytes32"
        }
      ],
      "name": "approveContract",
      "outputs": [],
      "stateMutability": "nonpayable",
      "type": "function"
    },
    {
      "inputs": [
        {
          "internalType": "contract IERC20",
          "name": "",
          "type": "address"
        },
        {
          "internalType": "address",
          "name": "",
          "type": "address"
        }
      ],
      "name": "balanceOf",
      "outputs": [
        {
          "internalType": "uint256",
          "name": "",
          "type": "uint256"
        }
      ],
      "stateMutability": "view",
      "type": "function"
    },
    {
      "inputs": [
        {
          "internalType": "contract IERC20",
          "name": "_token",
          "type": "address"
        },
        {
          "internalType": "address",
          "name": "_from",
          "type": "address"
        },
        {
          "internalType": "address",
          "name": "_to",
          "type": "address"
        },
        {
          "internalType": "uint256",
          "name": "_amount",
          "type": "uint256"
        }
      ],
      "name": "deposit",
      "outputs": [
        {
          "internalType": "uint256",
          "name": "shareOut",
          "type": "uint256"
        }
      ],
      "stateMutability": "nonpayable",
      "type": "function"
    },
    {
      "inputs": [
        {
          "internalType": "address",
          "name": "",
          "type": "address"
        },
        {
          "internalType": "uint256",
          "name": "_amount",
          "type": "uint256"
        }
      ],
      "name": "flashFee",
      "outputs": [
        {
          "internalType": "uint256",
          "name": "",
          "type": "uint256"
        }
      ],
      "stateMutability": "view",
      "type": "function"
    },
    {
      "inputs": [
        {
          "internalType": "contract IERC3156FlashBorrower",
          "name": "_receiver",
          "type": "address"
        },
        {
          "internalType": "address",
          "name": "_token",
          "type": "address"
        },
        {
          "internalType": "uint256",
          "name": "_amount",
          "type": "uint256"
        },
        {
          "internalType": "bytes",
          "name": "_data",
          "type": "bytes"
        }
      ],
      "name": "flashLoan",
      "outputs": [
        {
          "internalType": "bool",
          "name": "",
          "type": "bool"
        }
      ],
      "stateMutability": "nonpayable",
      "type": "function"
    },
    {
      "inputs": [],
      "name": "flashLoanRate",
      "outputs": [
        {
          "internalType": "uint256",
          "name": "",
          "type": "uint256"
        }
      ],
      "stateMutability": "view",
      "type": "function"
    },
    {
      "inputs": [],
      "name": "getCodeAddress",
      "outputs": [
        {
          "internalType": "address",
          "name": "codeAddress",
          "type": "address"
        }
      ],
      "stateMutability": "view",
      "type": "function"
    },
    {
      "inputs": [
        {
          "internalType": "uint256",
          "name": "_flashLoanRate",
          "type": "uint256"
        },
        {
          "internalType": "address",
          "name": "_owner",
          "type": "address"
        }
      ],
      "name": "initialize",
      "outputs": [],
      "stateMutability": "nonpayable",
      "type": "function"
    },
    {
      "inputs": [
        {
          "internalType": "address",
          "name": "_token",
          "type": "address"
        }
      ],
      "name": "maxFlashLoan",
      "outputs": [
        {
          "internalType": "uint256",
          "name": "",
          "type": "uint256"
        }
      ],
      "stateMutability": "view",
      "type": "function"
    },
    {
      "inputs": [],
      "name": "name",
      "outputs": [
        {
          "internalType": "string",
          "name": "",
          "type": "string"
        }
      ],
      "stateMutability": "view",
      "type": "function"
    },
    {
      "inputs": [],
      "name": "newOwner",
      "outputs": [
        {
          "internalType": "address",
          "name": "",
          "type": "address"
        }
      ],
      "stateMutability": "view",
      "type": "function"
    },
    {
      "inputs": [],
      "name": "owner",
      "outputs": [
        {
          "internalType": "address",
          "name": "",
          "type": "address"
        }
      ],
      "stateMutability": "view",
      "type": "function"
    },
    {
      "inputs": [],
      "name": "pause",
      "outputs": [],
      "stateMutability": "nonpayable",
      "type": "function"
    },
    {
      "inputs": [],
      "name": "paused",
      "outputs": [
        {
          "internalType": "bool",
          "name": "",
          "type": "bool"
        }
      ],
      "stateMutability": "view",
      "type": "function"
    },
    {
      "inputs": [],
      "name": "proxiableUUID",
      "outputs": [
        {
          "internalType": "bytes32",
          "name": "",
          "type": "bytes32"
        }
      ],
      "stateMutability": "pure",
      "type": "function"
    },
    {
      "inputs": [
        {
          "internalType": "contract IERC20",
          "name": "_token",
          "type": "address"
        }
      ],
      "name": "rescueFunds",
      "outputs": [],
      "stateMutability": "nonpayable",
      "type": "function"
    },
    {
      "inputs": [
        {
          "internalType": "contract IERC20",
          "name": "_token",
          "type": "address"
        },
        {
          "internalType": "uint256",
          "name": "_amount",
          "type": "uint256"
        },
        {
          "internalType": "bool",
          "name": "_ceil",
          "type": "bool"
        }
      ],
      "name": "toShare",
      "outputs": [
        {
          "internalType": "uint256",
          "name": "share",
          "type": "uint256"
        }
      ],
      "stateMutability": "view",
      "type": "function"
    },
    {
      "inputs": [
        {
          "internalType": "contract IERC20",
          "name": "_token",
          "type": "address"
        },
        {
          "internalType": "uint256",
          "name": "_share",
          "type": "uint256"
        }
      ],
      "name": "toUnderlying",
      "outputs": [
        {
          "internalType": "uint256",
          "name": "amount",
          "type": "uint256"
        }
      ],
      "stateMutability": "view",
      "type": "function"
    },
    {
      "inputs": [
        {
          "internalType": "contract IERC20",
          "name": "",
          "type": "address"
        }
      ],
      "name": "totals",
      "outputs": [
        {
          "internalType": "uint256",
          "name": "totalUnderlyingDeposit",
          "type": "uint256"
        },
        {
          "internalType": "uint256",
          "name": "totalSharesMinted",
          "type": "uint256"
        }
      ],
      "stateMutability": "view",
      "type": "function"
    },
    {
      "inputs": [
        {
          "internalType": "contract IERC20",
          "name": "_token",
          "type": "address"
        },
        {
          "internalType": "address",
          "name": "_from",
          "type": "address"
        },
        {
          "internalType": "address",
          "name": "_to",
          "type": "address"
        },
        {
          "internalType": "uint256",
          "name": "_shares",
          "type": "uint256"
        }
      ],
      "name": "transfer",
      "outputs": [],
      "stateMutability": "nonpayable",
      "type": "function"
    },
    {
      "inputs": [
        {
          "internalType": "address",
          "name": "_newOwner",
          "type": "address"
        }
      ],
      "name": "transferToNewOwner",
      "outputs": [],
      "stateMutability": "nonpayable",
      "type": "function"
    },
    {
      "inputs": [],
      "name": "unpause",
      "outputs": [],
      "stateMutability": "nonpayable",
      "type": "function"
    },
    {
      "inputs": [
        {
          "internalType": "address",
          "name": "newAddress",
          "type": "address"
        }
      ],
      "name": "updateCode",
      "outputs": [],
      "stateMutability": "nonpayable",
      "type": "function"
    },
    {
      "inputs": [
        {
          "internalType": "uint256",
          "name": "_newRate",
          "type": "uint256"
        }
      ],
      "name": "updateFlashloanRate",
      "outputs": [],
      "stateMutability": "nonpayable",
      "type": "function"
    },
    {
      "inputs": [
        {
          "internalType": "address",
          "name": "",
          "type": "address"
        }
      ],
      "name": "userApprovalNonce",
      "outputs": [
        {
          "internalType": "uint256",
          "name": "",
          "type": "uint256"
        }
      ],
      "stateMutability": "view",
      "type": "function"
    },
    {
      "inputs": [
        {
          "internalType": "address",
          "name": "",
          "type": "address"
        },
        {
          "internalType": "address",
          "name": "",
          "type": "address"
        }
      ],
      "name": "userApprovedContracts",
      "outputs": [
        {
          "internalType": "bool",
          "name": "",
          "type": "bool"
        }
      ],
      "stateMutability": "view",
      "type": "function"
    },
    {
      "inputs": [],
      "name": "version",
      "outputs": [
        {
          "internalType": "string",
          "name": "",
          "type": "string"
        }
      ],
      "stateMutability": "view",
      "type": "function"
    },
    {
      "inputs": [
        {
          "internalType": "contract IERC20",
          "name": "_token",
          "type": "address"
        },
        {
          "internalType": "address",
          "name": "_from",
          "type": "address"
        },
        {
          "internalType": "address",
          "name": "_to",
          "type": "address"
        },
        {
          "internalType": "uint256",
          "name": "_shares",
          "type": "uint256"
        }
      ],
      "name": "withdraw",
      "outputs": [
        {
          "internalType": "uint256",
          "name": "amountOut",
          "type": "uint256"
        }
      ],
      "stateMutability": "nonpayable",
      "type": "function"
    }
  ],
  "args": [],
  "solcInputHash": "d8f710d108043478052b140f0bad2611",
  "bytecode": "0x60e060405234801561001057600080fd5b506001805462ff000019168155604080518082018252600c81526b576172705661756c7420763160a01b6020918201527fa40fef20e589d79043a3159d07cb3250ae0cc1485bcb2d436b4b7dc47d197c5c6080528151808301909252918152603160f81b9101527fc89efdaa54c0f20c7adf612882df0950f5a951637e0307cdcb4c672f298b8bc660a0526100a36100ab565b60c0526100af565b4690565b60805160a05160c0516128a06100ec60003960006117a801526000818161141101526118250152600081816113f0015261180401526128a06000f3fe608060405234801561001057600080fd5b50600436106101ef5760003560e01c80635cffe9de1161010f578063d728e005116100a2578063da5139ca11610071578063da5139ca146103d1578063e53b2017146103e4578063f18d03cc146103f7578063f7888aec1461040a576101ef565b8063d728e00514610385578063d78af5f114610398578063d9d98ce4146103ab578063da35a26f146103be576101ef565b80638456cb59116100de5780638456cb59146103655780638da5cb5b1461036d578063c6b45dfa14610375578063d4ee1d901461037d576101ef565b80635cffe9de14610324578063613255ab146103375780637372e9be1461034a57806379ba50971461035d576101ef565b806346951954116101875780635299493b116101565780635299493b146102f957806352d1902d1461030c57806354fd4d50146103145780635c975abb1461031c576101ef565b806346951954146102905780634ffe34db146102a357806350d75d25146102c457806351e0e26b146102d9576101ef565b80631e43a7a1116101c35780631e43a7a1146102585780631fd1ffde146102605780633f21c1b4146102755780633f4ba83a14610288576101ef565b8062f5ee4d146101f45780630284c3f51461021d57806306fdde03146102305780630b620b8114610245575b600080fd5b610207610202366004611d2d565b61041d565b60405161021491906120fe565b60405180910390f35b61020761022b366004611e91565b61042f565b61023861062e565b604051610214919061219c565b610207610253366004611e91565b610656565b610207610864565b61027361026e366004611fbc565b61086a565b005b610273610283366004611d81565b6108fb565b610273610c11565b61027361029e366004611d2d565b610c45565b6102b66102b1366004611d2d565b610c7b565b60405161021492919061276e565b6102cc610c94565b604051610214919061202f565b6102ec6102e7366004611d2d565b610ca4565b60405161021491906120f3565b610207610307366004611e20565b610cb9565b610207610cf4565b610238610d18565b6102ec610d35565b6102ec610332366004611f22565b610d44565b610207610345366004611d2d565b611078565b610273610358366004611d2d565b611093565b610273611130565b6102736111bc565b6102cc6111ee565b6102076111fd565b6102cc611209565b6102ec610393366004611d49565b611218565b6102736103a6366004611df3565b611238565b6102076103b9366004611e20565b6112ea565b6102736103cc366004611fd4565b611314565b6102076103df366004611ee1565b61146f565b6102736103f2366004611d2d565b6114f1565b610273610405366004611e91565b611649565b610207610418366004611e7f565b6116dd565b60086020526000908152604090205481565b6000610439610d35565b1561045f5760405162461bcd60e51b815260040161045690612474565b60405180910390fd5b83336001600160a01b038216148061049f57506001600160a01b038116600090815260076020908152604080832033845290915290205460ff1615156001145b6104bb5760405162461bcd60e51b8152600401610456906124d2565b600260005414156104de5760405162461bcd60e51b8152600401610456906126a5565b60026000556001600160a01b0384166105095760405162461bcd60e51b815260040161045690612372565b6105158684600061146f565b915061052c6001600160a01b0387168630866116fa565b6001600160a01b0380871660009081526006602090815260408083209388168352929052205461055d90839061277c565b6001600160a01b038088166000818152600660209081526040808320948a16835293815283822094909455908152600a90925281208054909185918391906105a690849061277c565b92505081905550828160010160008282546105c1919061277c565b92505081905550846001600160a01b0316866001600160a01b0316886001600160a01b03167f5fe47ed6d4225326d3303476197d782ded5a4e9c14f479dc9ec4992af4e85d59878760405161061792919061276e565b60405180910390a450506001600055949350505050565b6040518060400160405280600c81526020016b576172705661756c7420763160a01b81525081565b6000610660610d35565b1561067d5760405162461bcd60e51b815260040161045690612474565b83336001600160a01b03821614806106bd57506001600160a01b038116600090815260076020908152604080832033845290915290205460ff1615156001145b6106d95760405162461bcd60e51b8152600401610456906124d2565b600260005414156106fc5760405162461bcd60e51b8152600401610456906126a5565b60026000556001600160a01b0384166107275760405162461bcd60e51b815260040161045690612372565b6107318684610cb9565b6001600160a01b038088166000908152600660209081526040808320938a16835292905220549092506107659084906127d3565b6001600160a01b038088166000818152600660209081526040808320948b16835293815283822094909455908152600a90925281208054909184918391906107ae9084906127d3565b92505081905550838160010160008282546107c991906127d3565b909155505060018101546103e81115806107e557506001810154155b6108015760405162461bcd60e51b815260040161045690612555565b6108156001600160a01b0388168685611785565b846001600160a01b0316866001600160a01b0316886001600160a01b03167ffbde797d201c681b91056529119e0b02407c7bb96a4a2c75c01fc9667232c8db878760405161061792919061276e565b60025481565b6003546001600160a01b031633146108945760405162461bcd60e51b8152600401610456906126dc565b67016345785d8a000081106108bb5760405162461bcd60e51b81526004016104569061257c565b60028190556040517f351e11b7eebc302a6aa0cf8fb6ed5318359a632eecf29a1cafdf96ee7257be81906108f09083906120fe565b60405180910390a150565b6001600160a01b0385166109215760405162461bcd60e51b815260040161045690612700565b6001600160a01b0386166109475760405162461bcd60e51b8152600401610456906123e0565b60ff8316158015610956575081155b8015610960575080155b15610a1c576001600160a01b038616331461098d5760405162461bcd60e51b815260040161045690612600565b333214156109ad5760405162461bcd60e51b815260040161045690612314565b846001600160a01b0316866001600160a01b031614156109df5760405162461bcd60e51b815260040161045690612249565b6001600160a01b03851660009081526009602052604090205460ff16610a175760405162461bcd60e51b815260040161045690612737565b610b9d565b6000610a266117a4565b7fe8879d0159a5862e68322a449d14dcfb21ad39e0c3dc66f88aff16b87aa27eae86610a72577f31d77d35dcd597e2453861d123e3d7ee551c84d42d8d97544835a74f1ccb251b610a94565b7f9d3cc82da8126179611840997002f7d09633ad258b9c11d6e1dccc7e1ad477415b6001600160a01b038a16600090815260086020526040812080548c928c928c9291610abe83612816565b91905055604051602001610ad79695949392919061211e565b60405160208183030381529060405280519060200120604051602001610afe929190612014565b604051602081830303815290604052805190602001209050600060018286868660405160008152602001604052604051610b3b949392919061217e565b6020604051602081039080840390855afa158015610b5d573d6000803e3d6000fd5b505050602060405103519050876001600160a01b0316816001600160a01b031614610b9a5760405162461bcd60e51b81526004016104569061233b565b50505b6001600160a01b038681166000818152600760209081526040808320948a168084529490915290819020805460ff1916881515179055517f1d3e246ebbc933bf65d3290db9f93d67ab91a12d2b19308a35806e04d1c174c590610c019088906120f3565b60405180910390a3505050505050565b6003546001600160a01b03163314610c3b5760405162461bcd60e51b8152600401610456906126dc565b610c43611850565b565b6003546001600160a01b03163314610c6f5760405162461bcd60e51b8152600401610456906126dc565b610c78816118b6565b50565b600a602052600090815260409020805460019091015482565b6000610c9e6119be565b90505b90565b60096020526000908152604090205460ff1681565b6001600160a01b0382166000908152600a6020526040812060018101548154610ce290856127b4565b610cec9190612794565b949350505050565b7f789f0daca1cd17baa821e8d7454225d50b9f3e7c22acb67c2b2fff4f686a128290565b604051806040016040528060018152602001603160f81b81525081565b60015462010000900460ff1690565b600060026000541415610d695760405162461bcd60e51b8152600401610456906126a5565b600260009081556001600160a01b0386168152600a6020526040902054841115610da55760405162461bcd60e51b815260040161045690612406565b6040516370a0823160e01b815285906000906001600160a01b038316906370a0823190610dd690309060040161202f565b60206040518083038186803b158015610dee57600080fd5b505afa158015610e02573d6000803e3d6000fd5b505050506040513d601f19601f82011682018060405250810190610e269190611e67565b9050610e3c6001600160a01b0383168988611785565b6000610e4888886112ea565b90507f439148f0bbc682ca079e46d6e2c2f0c1e3b820f1a291b069d8882abf8cf18dd9896001600160a01b03166323e30c8b338b8b868c8c6040518763ffffffff1660e01b8152600401610ea196959493929190612067565b602060405180830381600087803b158015610ebb57600080fd5b505af1158015610ecf573d6000803e3d6000fd5b505050506040513d601f19601f82011682018060405250810190610ef39190611e67565b14610f105760405162461bcd60e51b815260040161045690612280565b610f318930610f1f848b61277c565b6001600160a01b0387169291906116fa565b600082846001600160a01b03166370a08231306040518263ffffffff1660e01b8152600401610f60919061202f565b60206040518083038186803b158015610f7857600080fd5b505afa158015610f8c573d6000803e3d6000fd5b505050506040513d601f19601f82011682018060405250810190610fb09190611e67565b610fba91906127d3565b905081811015610fdc5760405162461bcd60e51b81526004016104569061243d565b6001600160a01b0389166000908152600a60205260408120805484929061100490849061277c565b92505081905550896001600160a01b0316846001600160a01b0316336001600160a01b03167f581cf1fe7a440a4f68b6fdeba82ea38faf67f97ec14d5d9831a450e79a3849028b8660405161105a92919061276e565b60405180910390a46001945050505050600160005595945050505050565b6001600160a01b03166000908152600a602052604090205490565b6003546001600160a01b031633146110bd5760405162461bcd60e51b8152600401610456906126dc565b6001600160a01b0381166110e35760405162461bcd60e51b8152600401610456906122dd565b600480546001600160a01b0319166001600160a01b0383161790556040517f75ec58ed4c3b4778d64c8fb2682d99b9844d486931205289f0c8e9951eaab832906108f090839042906120da565b6004546001600160a01b0316331461115a5760405162461bcd60e51b8152600401610456906124ab565b60048054600380546001600160a01b03199081166001600160a01b038416179091551690556040517f56a56c31bb3f318488e30872a32d64e9e9092a6a23043f6d9e9d71b2545e7172906111b29060009042906120da565b60405180910390a1565b6003546001600160a01b031633146111e65760405162461bcd60e51b8152600401610456906126dc565b610c436119e3565b6003546001600160a01b031681565b67016345785d8a000081565b6004546001600160a01b031681565b600760209081526000928352604080842090915290825290205460ff1681565b6003546001600160a01b031633146112625760405162461bcd60e51b8152600401610456906126dc565b6001600160a01b0382166112885760405162461bcd60e51b8152600401610456906123a9565b6001600160a01b03821660009081526009602052604090819020805460ff1916831515179055517f868ef4c4efa656ac9fe74e223335211b2da76220bf70e4a05c30c6a857e89e0d906112de90849084906120bf565b60405180910390a15050565b6000670de0b6b3a76400006002548361130391906127b4565b61130d9190612794565b9392505050565b600154610100900460ff168061132d575060015460ff16155b6113495760405162461bcd60e51b8152600401610456906124f8565b600154610100900460ff16158015611373576001805460ff1961ff00199091166101001716811790555b6001600160a01b0382166113995760405162461bcd60e51b8152600401610456906125a2565b67016345785d8a0000600254106113c25760405162461bcd60e51b8152600401610456906122b7565b6113ca611a42565b6114357f8b73c3c69bb8fe3d512ecc4cf759cc79239f7b179b0ffacaa9a75d522b39400f7f00000000000000000000000000000000000000000000000000000000000000007f0000000000000000000000000000000000000000000000000000000000000000611a49565b6005556002839055600380546001600160a01b0319166001600160a01b038416179055801561146a576001805461ff00191690555b505050565b6001600160a01b0383166000908152600a60205260408120600181015480156114e45781548061149f83886127b4565b6114a99190612794565b93508480156114cb575085826114bf83876127b4565b6114c99190612794565b105b156114de576114db84600161277c565b93505b506114e8565b8492505b50509392505050565b600260005414156115145760405162461bcd60e51b8152600401610456906126a5565b60026000556003546001600160a01b031633146115435760405162461bcd60e51b8152600401610456906126dc565b6040516370a0823160e01b81526000906001600160a01b038316906370a082319061157290309060040161202f565b60206040518083038186803b15801561158a57600080fd5b505afa15801561159e573d6000803e3d6000fd5b505050506040513d601f19601f820116820180604052508101906115c29190611e67565b6001600160a01b0383166000908152600a6020526040812054919250906115e990836127d3565b600354909150611606906001600160a01b03858116911683611785565b7f891d905c747e7308f7e952ff603f2ac799bc5abc150b5792024a59b5c96273d283826040516116379291906120da565b60405180910390a15050600160005550565b611651610d35565b1561166e5760405162461bcd60e51b815260040161045690612474565b82336001600160a01b03821614806116ae57506001600160a01b038116600090815260076020908152604080832033845290915290205460ff1615156001145b6116ca5760405162461bcd60e51b8152600401610456906124d2565b6116d685858585611a8a565b5050505050565b600660209081526000928352604080842090915290825290205481565b61177f846323b872dd60e01b85858560405160240161171b93929190612043565b60408051601f198184030181529190526020810180517bffffffffffffffffffffffffffffffffffffffffffffffffffffffff167fffffffff0000000000000000000000000000000000000000000000000000000090931692909217909152611b8a565b50505050565b61146a8363a9059cbb60e01b848460405160240161171b9291906120da565b60007f00000000000000000000000000000000000000000000000000000000000000006117cf611c19565b14156117de5750600554610ca1565b6118497f8b73c3c69bb8fe3d512ecc4cf759cc79239f7b179b0ffacaa9a75d522b39400f7f00000000000000000000000000000000000000000000000000000000000000007f0000000000000000000000000000000000000000000000000000000000000000611a49565b9050610ca1565b611858610d35565b6118745760405162461bcd60e51b815260040161045690612212565b6001805462ff0000191690557f5db9ee0a495bf2e6ff9c91a7834c1ba4fdd244a5e8aa4e537bd38aeae4b073aa6118a9611c1d565b6040516111b2919061202f565b60006118c06119be565b6001600160a01b031614156118e75760405162461bcd60e51b8152600401610456906125c9565b806001600160a01b03166352d1902d6040518163ffffffff1660e01b815260040160206040518083038186803b15801561192057600080fd5b505afa158015611934573d6000803e3d6000fd5b505050506040513d601f19601f820116820180604052508101906119589190611e67565b611960610cf4565b1461197d5760405162461bcd60e51b8152600401610456906121cf565b61198681611c21565b7fe011bc04c286c344a8fcbb8de77f953da762c3e25d8cdea984147fc4168a5dcc6119af610cf4565b826040516108f0929190612107565b7f360894a13ba1a3210667c828492db98dca3e2076cc3735a920a3ca505d382bbc5490565b6119eb610d35565b15611a085760405162461bcd60e51b815260040161045690612474565b6001805462ff00001916620100001790557f62e78cea01bee320cd4e420270b5ea74000d11b0c9f74754ebdbfc544b05a2586118a9611c1d565b6001600055565b6000838383611a56611c19565b30604051602001611a6b959493929190612152565b6040516020818303038152906040528051906020012090509392505050565b6001600160a01b038216611ab05760405162461bcd60e51b815260040161045690612372565b6001600160a01b03808516600090815260066020908152604080832093871683529290522054611ae19082906127d3565b6001600160a01b03858116600090815260066020908152604080832088851684529091528082209390935590841681522054611b1e90829061277c565b6001600160a01b0380861660008181526006602090815260408083208886168085529252918290209490945551918616917fd1398bee19313d6bf672ccb116e51f4a1a947e91c757907f51fbb5b5e56c698f90611b7c9086906120fe565b60405180910390a450505050565b6000611bdf826040518060400160405280602081526020017f5361666545524332303a206c6f772d6c6576656c2063616c6c206661696c6564815250856001600160a01b0316611c459092919063ffffffff16565b80519091501561146a5780806020019051810190611bfd9190611e4b565b61146a5760405162461bcd60e51b81526004016104569061265b565b4690565b3390565b7f360894a13ba1a3210667c828492db98dca3e2076cc3735a920a3ca505d382bbc55565b6060610cec848460008585611c5985611cee565b611c755760405162461bcd60e51b815260040161045690612624565b600080866001600160a01b03168587604051611c919190611ff8565b60006040518083038185875af1925050503d8060008114611cce576040519150601f19603f3d011682016040523d82523d6000602084013e611cd3565b606091505b5091509150611ce3828286611cf4565b979650505050505050565b3b151590565b60608315611d0357508161130d565b825115611d135782518084602001fd5b8160405162461bcd60e51b8152600401610456919061219c565b600060208284031215611d3e578081fd5b813561130d81612847565b60008060408385031215611d5b578081fd5b8235611d6681612847565b91506020830135611d7681612847565b809150509250929050565b60008060008060008060c08789031215611d99578182fd5b8635611da481612847565b95506020870135611db481612847565b94506040870135611dc48161285c565b9350606087013560ff81168114611dd9578283fd5b9598949750929560808101359460a0909101359350915050565b60008060408385031215611e05578182fd5b8235611e1081612847565b91506020830135611d768161285c565b60008060408385031215611e32578182fd5b8235611e3d81612847565b946020939093013593505050565b600060208284031215611e5c578081fd5b815161130d8161285c565b600060208284031215611e78578081fd5b5051919050565b60008060408385031215611d5b578182fd5b60008060008060808587031215611ea6578384fd5b8435611eb181612847565b93506020850135611ec181612847565b92506040850135611ed181612847565b9396929550929360600135925050565b600080600060608486031215611ef5578283fd5b8335611f0081612847565b9250602084013591506040840135611f178161285c565b809150509250925092565b600080600080600060808688031215611f39578283fd5b8535611f4481612847565b94506020860135611f5481612847565b935060408601359250606086013567ffffffffffffffff80821115611f77578283fd5b818801915088601f830112611f8a578283fd5b813581811115611f98578384fd5b896020828501011115611fa9578384fd5b9699959850939650602001949392505050565b600060208284031215611fcd578081fd5b5035919050565b60008060408385031215611fe6578182fd5b823591506020830135611d7681612847565b6000825161200a8184602087016127ea565b9190910192915050565b61190160f01b81526002810192909252602282015260420190565b6001600160a01b0391909116815260200190565b6001600160a01b039384168152919092166020820152604081019190915260600190565b60006001600160a01b03808916835280881660208401525085604083015284606083015260a060808301528260a0830152828460c084013781830160c090810191909152601f909201601f1916010195945050505050565b6001600160a01b039290921682521515602082015260400190565b6001600160a01b03929092168252602082015260400190565b901515815260200190565b90815260200190565b9182526001600160a01b0316602082015260400190565b95865260208601949094526001600160a01b039283166040860152911660608401521515608083015260a082015260c00190565b9485526020850193909352604084019190915260608301526001600160a01b0316608082015260a00190565b93845260ff9290921660208401526040830152606082015260800190565b60006020825282518060208401526121bb8160408501602087016127ea565b601f01601f19169190910160400192915050565b60208082526023908201527f5555505350726f786961626c653a206e6f7420636f6d70617469626c65206c6f60408201526267696360e81b606082015260800190565b60208082526014908201527f5061757361626c653a206e6f7420706175736564000000000000000000000000604082015260600190565b6020808252600f908201527f494e56414c49445f415050524f56450000000000000000000000000000000000604082015260600190565b60208082526019908201527f49455243333135363a2043616c6c6261636b206661696c656400000000000000604082015260600190565b6020808252600c908201526b494e56414c49445f5241544560a01b604082015260600190565b60208082526011908201527f494e56414c49445f4e45575f4f574e4552000000000000000000000000000000604082015260600190565b6020808252600d908201526c13d3931657d0d3d395149050d5609a1b604082015260600190565b60208082526011908201527f494e56414c49445f5349474e4154555245000000000000000000000000000000604082015260600190565b60208082526012908201527f494e56414c49445f544f5f414444524553530000000000000000000000000000604082015260600190565b6020808252600f908201527f696e76616c69645f616464726573730000000000000000000000000000000000604082015260600190565b6020808252600c908201526b24a72b20a624a22faaa9a2a960a11b604082015260600190565b60208082526012908201527f4e6f7420656e6f7567682062616c616e63650000000000000000000000000000604082015260600190565b6020808252600f908201527f6e6f7420656e6f75676820666565730000000000000000000000000000000000604082015260600190565b60208082526010908201527f5061757361626c653a2070617573656400000000000000000000000000000000604082015260600190565b6020808252600d908201526c34b73b30b634b21037bbb732b960991b604082015260600190565b6020808252600c908201526b13d3931657d0531313d5d15160a21b604082015260600190565b6020808252602e908201527f496e697469616c697a61626c653a20636f6e747261637420697320616c72656160408201527f647920696e697469616c697a6564000000000000000000000000000000000000606082015260800190565b6020808252600d908201526c494e56414c49445f524154494f60981b604082015260600190565b6020808252600c908201526b696e76616c6964207261746560a01b604082015260600190565b6020808252600d908201526c24a72b20a624a22fa7aba722a960991b604082015260600190565b6020808252601d908201527f5555505350726f786961626c653a206e6f742075706772616461626c65000000604082015260600190565b6020808252600a90820152692727aa2fa9a2a72222a960b11b604082015260600190565b6020808252601d908201527f416464726573733a2063616c6c20746f206e6f6e2d636f6e7472616374000000604082015260600190565b6020808252602a908201527f5361666545524332303a204552433230206f7065726174696f6e20646964206e6040820152691bdd081cdd58d8d9595960b21b606082015260800190565b6020808252601f908201527f5265656e7472616e637947756172643a207265656e7472616e742063616c6c00604082015260600190565b6020808252600a908201526927a7262cafa7aba722a960b11b604082015260600190565b60208082526010908201527f494e56414c49445f434f4e545241435400000000000000000000000000000000604082015260600190565b6020808252600f908201527f4e4f545f57484954454c49535445440000000000000000000000000000000000604082015260600190565b918252602082015260400190565b6000821982111561278f5761278f612831565b500190565b6000826127af57634e487b7160e01b81526012600452602481fd5b500490565b60008160001904831182151516156127ce576127ce612831565b500290565b6000828210156127e5576127e5612831565b500390565b60005b838110156128055781810151838201526020016127ed565b8381111561177f5750506000910152565b600060001982141561282a5761282a612831565b5060010190565b634e487b7160e01b600052601160045260246000fd5b6001600160a01b0381168114610c7857600080fd5b8015158114610c7857600080fdfea264697066735822122047c12bcc86121363e94286fe60833b77d2e3a737beec50be2eb3dd677646095e64736f6c63430008010033",
  "devdoc": {
    "author": "@samparsky",
    "kind": "dev",
    "methods": {
      "constructor": {
        "details": "setup a vault"
      },
      "deposit(address,address,address,uint256)": {
        "params": {
          "_amount": "Token amount in native representation to deposit.",
          "_from": "which account to pull the tokens.",
          "_to": "which account to push the tokens.",
          "_token": "The ERC-20 token to deposit."
        },
        "returns": {
          "shareOut": "The deposit amount in vault shares"
        }
      },
      "flashFee(address,uint256)": {
        "params": {
          "": "// _token The loan currency.",
          "_amount": "The amount of tokens lent."
        },
        "returns": {
          "_0": "The amount of `token` to be charged for the loan, on top of the returned principal."
        }
      },
      "flashLoan(address,address,uint256,bytes)": {
        "params": {
          "_amount": "The amount of tokens lent.",
          "_data": "Arbitrary data structure, intended to contain user-defined parameters.",
          "_receiver": "The receiver of the tokens in the loan, and the receiver of the callback.",
          "_token": "The loan currency."
        }
      },
      "getCodeAddress()": {
        "details": "Get current implementation code address."
      },
      "maxFlashLoan(address)": {
        "params": {
          "_token": "The loan currency."
        },
        "returns": {
          "_0": "The amount of `token` that can be borrowed."
        }
      },
      "paused()": {
        "details": "Returns true if the contract is paused, and false otherwise."
      },
      "proxiableUUID()": {
        "details": "Proxiable UUID marker function.      This would help to avoid wrong logic contract to be used for upgrading."
      },
      "rescueFunds(address)": {
        "params": {
          "_token": "ERC20 token to rescue funds from"
        }
      },
      "toShare(address,uint256,bool)": {
        "details": "Helper function to represent an `amount` of `token` in shares.",
        "params": {
          "_amount": "The `token` amount.",
          "_ceil": "If to ceil the amount or not",
          "_token": "The ERC-20 token."
        },
        "returns": {
          "share": "The token amount represented in shares."
        }
      },
      "toUnderlying(address,uint256)": {
        "params": {
          "_share": "The amount of shares.",
          "_token": "The ERC-20 token."
        },
        "returns": {
          "amount": "The share amount back into native representation."
        }
      },
      "transfer(address,address,address,uint256)": {
        "params": {
          "_from": "which user to pull the tokens.",
          "_shares": "of shares to transfer",
          "_to": "which user to push the tokens.",
          "_token": "The ERC-20 token to transfer."
        }
      },
      "transferToNewOwner(address)": {
        "params": {
          "_newOwner": "The new team"
        }
      },
      "updateFlashloanRate(uint256)": {
        "details": "Update the flashloan rate charged, only owner can call",
        "params": {
          "_newRate": "The ERC-20 token."
        }
      },
      "withdraw(address,address,address,uint256)": {
        "params": {
          "_from": "which user to pull the tokens.",
          "_shares": "of shares to withdraw",
          "_to": "which user to push the tokens.",
          "_token": "The ERC-20 token to withdraw."
        },
        "returns": {
          "amountOut": "The amount of underlying transferred"
        }
      }
    },
    "title": "Vault",
    "version": 1
  },
  "userdoc": {
    "events": {
      "Deposit(address,address,address,uint256,uint256)": {
        "notice": "Emitted on deposit"
      },
      "Withdraw(address,address,address,uint256,uint256)": {
        "notice": "Emitted on withdraw"
      }
    },
    "kind": "user",
    "methods": {
      "MAX_FLASHLOAN_RATE()": {
        "notice": "max flashlaon rate 10%"
      },
      "acceptOwnership()": {
        "notice": "accept transfer of control"
      },
      "allowContract(address,bool)": {
        "notice": "Enables or disables a contract for approval without signed message."
      },
      "allowedContracts(address)": {
        "notice": "mapping to contract to whitelist status"
      },
      "approveContract(address,address,bool,uint8,bytes32,bytes32)": {
        "notice": "approve a contract to enable the contract to withdraw"
      },
      "balanceOf(address,address)": {
        "notice": "mapping of token asset to user address and balance"
      },
      "deposit(address,address,address,uint256)": {
        "notice": "Deposit an amount of `token`"
      },
      "flashFee(address,uint256)": {
        "notice": "The fee to be charged for a given loan."
      },
      "flashLoan(address,address,uint256,bytes)": {
        "notice": "Initiate a flash loan."
      },
      "flashLoanRate()": {
        "notice": "the flashloan rate to charge for flash loans"
      },
      "maxFlashLoan(address)": {
        "notice": "The amount of currency available to be lent."
      },
      "name()": {
        "notice": "vault name"
      },
      "owner()": {
        "notice": "the address that access to perform `admin` functions"
      },
      "pause()": {
        "notice": "pause vault actions"
      },
      "rescueFunds(address)": {
        "notice": "rescueFunds Enables us to rescue funds that are not tracked"
      },
      "toUnderlying(address,uint256)": {
        "notice": "Helper function represent shares back into the `token` amount."
      },
      "totals(address)": {
        "notice": "mapping of asset to total deposit and shares minted"
      },
      "transfer(address,address,address,uint256)": {
        "notice": "Transfer share of `token` to another account"
      },
      "transferToNewOwner(address)": {
        "notice": "Transfer control from current owner address to another"
      },
      "unpause()": {
        "notice": "unpause vault actions"
      },
      "userApprovalNonce(address)": {
        "notice": "mapping of user to approval nonce"
      },
      "userApprovedContracts(address,address)": {
        "notice": "mapping of user to contract to approval status"
      },
      "version()": {
        "notice": "vault version"
      },
      "withdraw(address,address,address,uint256)": {
        "notice": "Withdraw the underlying share of `token` from a user account."
      }
    },
    "notice": "Vault contract stores assets deposited into the Lending pairs. It enables deposit, withdrawal, flashloans and transfer of tokens. It represents the deposited token amount in form of shares This contract implements the EIP3156 IERC3156FlashBorrower for flashloans. Rebasing tokens ARE NOT supported and WILL cause loss of funds. ",
    "version": 1
  },
  "storageLayout": {
    "storage": [
      {
        "astId": 13547,
        "contract": "contracts/Vault.sol:Vault",
        "label": "_status",
        "offset": 0,
        "slot": "0",
        "type": "t_uint256"
      },
      {
        "astId": 138,
        "contract": "contracts/Vault.sol:Vault",
        "label": "_initialized",
        "offset": 0,
        "slot": "1",
        "type": "t_bool"
      },
      {
        "astId": 141,
        "contract": "contracts/Vault.sol:Vault",
        "label": "_initializing",
        "offset": 1,
        "slot": "1",
        "type": "t_bool"
      },
      {
        "astId": 196,
        "contract": "contracts/Vault.sol:Vault",
        "label": "_paused",
        "offset": 2,
        "slot": "1",
        "type": "t_bool"
      },
      {
        "astId": 6967,
        "contract": "contracts/Vault.sol:Vault",
        "label": "flashLoanRate",
        "offset": 0,
        "slot": "2",
        "type": "t_uint256"
      },
      {
        "astId": 6970,
        "contract": "contracts/Vault.sol:Vault",
        "label": "owner",
        "offset": 0,
        "slot": "3",
        "type": "t_address"
      },
      {
        "astId": 6973,
        "contract": "contracts/Vault.sol:Vault",
        "label": "newOwner",
        "offset": 0,
        "slot": "4",
        "type": "t_address"
      },
      {
        "astId": 6976,
        "contract": "contracts/Vault.sol:Vault",
        "label": "_CACHED_DOMAIN_SEPARATOR",
        "offset": 0,
        "slot": "5",
        "type": "t_bytes32"
      },
      {
        "astId": 6985,
        "contract": "contracts/Vault.sol:Vault",
        "label": "balanceOf",
        "offset": 0,
        "slot": "6",
        "type": "t_mapping(t_contract(IERC20)849,t_mapping(t_address,t_uint256))"
      },
      {
        "astId": 6992,
        "contract": "contracts/Vault.sol:Vault",
        "label": "userApprovedContracts",
        "offset": 0,
        "slot": "7",
        "type": "t_mapping(t_address,t_mapping(t_address,t_bool))"
      },
      {
        "astId": 6997,
        "contract": "contracts/Vault.sol:Vault",
        "label": "userApprovalNonce",
        "offset": 0,
        "slot": "8",
        "type": "t_mapping(t_address,t_uint256)"
      },
      {
        "astId": 7002,
        "contract": "contracts/Vault.sol:Vault",
        "label": "allowedContracts",
        "offset": 0,
        "slot": "9",
        "type": "t_mapping(t_address,t_bool)"
      },
      {
        "astId": 7009,
        "contract": "contracts/Vault.sol:Vault",
        "label": "totals",
        "offset": 0,
        "slot": "10",
        "type": "t_mapping(t_contract(IERC20)849,t_struct(TotalBase)6964_storage)"
      }
    ],
    "types": {
      "t_address": {
        "encoding": "inplace",
        "label": "address",
        "numberOfBytes": "20"
      },
      "t_bool": {
        "encoding": "inplace",
        "label": "bool",
        "numberOfBytes": "1"
      },
      "t_bytes32": {
        "encoding": "inplace",
        "label": "bytes32",
        "numberOfBytes": "32"
      },
      "t_contract(IERC20)849": {
        "encoding": "inplace",
        "label": "contract IERC20",
        "numberOfBytes": "20"
      },
      "t_mapping(t_address,t_bool)": {
        "encoding": "mapping",
        "key": "t_address",
        "label": "mapping(address => bool)",
        "numberOfBytes": "32",
        "value": "t_bool"
      },
      "t_mapping(t_address,t_mapping(t_address,t_bool))": {
        "encoding": "mapping",
        "key": "t_address",
        "label": "mapping(address => mapping(address => bool))",
        "numberOfBytes": "32",
        "value": "t_mapping(t_address,t_bool)"
      },
      "t_mapping(t_address,t_uint256)": {
        "encoding": "mapping",
        "key": "t_address",
        "label": "mapping(address => uint256)",
        "numberOfBytes": "32",
        "value": "t_uint256"
      },
      "t_mapping(t_contract(IERC20)849,t_mapping(t_address,t_uint256))": {
        "encoding": "mapping",
        "key": "t_contract(IERC20)849",
        "label": "mapping(contract IERC20 => mapping(address => uint256))",
        "numberOfBytes": "32",
        "value": "t_mapping(t_address,t_uint256)"
      },
      "t_mapping(t_contract(IERC20)849,t_struct(TotalBase)6964_storage)": {
        "encoding": "mapping",
        "key": "t_contract(IERC20)849",
        "label": "mapping(contract IERC20 => struct VaultStorageV1.TotalBase)",
        "numberOfBytes": "32",
        "value": "t_struct(TotalBase)6964_storage"
      },
      "t_struct(TotalBase)6964_storage": {
        "encoding": "inplace",
        "label": "struct VaultStorageV1.TotalBase",
        "members": [
          {
            "astId": 6961,
            "contract": "contracts/Vault.sol:Vault",
            "label": "totalUnderlyingDeposit",
            "offset": 0,
            "slot": "0",
            "type": "t_uint256"
          },
          {
            "astId": 6963,
            "contract": "contracts/Vault.sol:Vault",
            "label": "totalSharesMinted",
            "offset": 0,
            "slot": "1",
            "type": "t_uint256"
          }
        ],
        "numberOfBytes": "64"
      },
      "t_uint256": {
        "encoding": "inplace",
        "label": "uint256",
        "numberOfBytes": "32"
      }
    }
  }
}